:020000040000FA
:10000000E01E00203102000059020000A50100009E
:1000100000000000000000000000000000000000E0
:100020000000000000000000000000005D02000071
:1000300000000000000000005F02000061020000FC
:10004000630200006302000063020000630200001C
:100050007D19000063020000630200000000000040
:10006000951B0000630200006302000063020000B1
:1000700063020000A11B0000630200006302000095
:1000800063020000630200006302000063020000DC
:1000900063020000630200006302000063020000CC
:1000A00063020000630200006302000063020000BC
:1000B00063020000630200006302000063020000AC
:1000C00000F002F800F05FF80CA030C808382418DF
:1000D0002D18A246671EAB4654465D46AC4201D180
:1000E00000F051F87E460F3E0FCCB6460126334253
:1000F00000D0FB1AA246AB4633431847B426000093
:10010000D4260000103A02D378C878C1FAD8520732
:1001100001D330C830C101D504680C6070470000BD
:100120000023002400250026103A01D378C1FBD813
:10013000520700D330C100D50B60704710B5662957
:1001400002D102F085FA10BD642902D100F00AF94B
:1001500010BD782902D100F03BF910BD632902D10E
:1001600000F045FE10BD002010BD1FB500F00EFAD6
:1001700000F076FE04000020002102F0FBF9E060B0
:100180001FBD10B510BD01F036FA1146FFF7EDFFA7
:1001900001F0C6FE01F04EFA03B4FFF7F2FF03BC14
:1001A00001F094FA04207146084202D0EFF309806E
:1001B00001E0EFF308807146004A1047C5190000BE
:1001C00030B40C490C684A6823681068C018106085
:1001D000241D121D8C4207D28A4208D20C604A604C
:1001E00030BC4000400870470C00DC3CF6E70A00D9
:1001F000DC3AF3E77418002070B505460C46164645
:1002000002E00FCC0FC5103E102EFAD2082E02D3FA
:1002100003CC03C5083E042E07D301CC01C5361F0D
:1002200003E021782970641C6D1C761EF9D270BD24
:100230000F48104901601049016010490160104ADF
:1002400010491160104A114911601148804708484F
:10025000002101600F480047FEE7FEE7FEE7FEE7EA
:10026000FEE7FEE70C480D490D4A0E4B70470000B3
:100270000001005059000000160000008800000036
:1002800060000050A55A000014000050C00000009B
:10029000511B0000C1000000E0180020E01E0020FB
:1002A000E01A0020E01A00200FB4054910B503AA97
:1002B000029800F0A9FD10BC08BC04B0184700006B
:1002C0000C00002070B5044685690068C10601D5A0
:1002D000302600E02026C00707D070BD6268304697
:1002E000A1689047206A401C20626D1EF6D570BD43
:1002F00070B5044685690078C00707D170BD626893
:10030000A16820209047206A401C20626D1EF6D50F
:1003100070BD70B50C460546012A05D028788006C8
:1003200000D5EA69002302E0012305E05B1C93424B
:1003300002D2E05C0028F9D1A869E618C01AA861C9
:10034000286AC01828622846FFF7BCFF04E06A68E4
:100350002078A968641C9047B442F8D32846FFF778
:10036000C7FF70BDF7B5002575291068009914A660
:1003700011D0C046C046002802DA404211A608E06B
:10038000009909688A0701D50FA602E0490704D53C
:100390000EA6012501E0C046C046009F0024243778
:1003A00004E000F045FD30313955641C0028F8D1D7
:1003B0002B4632462146009800F0A9FAFEBD000007
:1003C000000000002D0000002B00000020000000B5
:1003D00070B504460D4621461068C046C0462188C7
:1003E000090502D50F4A7A4402E00E4A7A440E32D9
:1003F00023460021243305E006070009360F965DE9
:100400005E54491C0028F7D120780023000705D549
:10041000702D03D0002901D002231132204600F0B4
:1004200076FA70BDB6220000F3B50446002081B014
:1004300020622046E168884700287DD0252802D028
:100440006268A16883E0454F00257F442046E1684B
:1004500088472028064608DB312E06D2B8192038F6
:100460000078002801D00543F0E7A80701D5042053
:1004700085430020E0610746A0612A2E0AD030465D
:1004800001F03EFD002827D0B8000019303E009052
:10049000866119E00298BA00121902C891610290AF
:1004A0002046E1688847012F064617D1E0690028F9
:1004B0001FDA202085431CE000980A218069484308
:1004C00000998019303888612046E16888470646DF
:1004D00001F016FD0028EFD1012F0AD02E2E08D1F1
:1004E0002046E16888470646202005437F1C022FEE
:1004F000C3DBA069002803DA4042A0610120054364
:10050000E80701D010208543002E24D03046413822
:10051000192803D80120C002054320362046256053
:100520003146029A1546FFF709FE00280CD0012833
:1005300007D0ED1DE80800E00DE0C0000830029093
:1005400077E72D1D029574E762683046A1689047F1
:10055000206A401C6CE7206AFEBD00007A22000081
:100560000B4A30B511460B4C60310B46DC3B0CC1DD
:10057000372106E0020C8D0012185A51064A5043EA
:1005800000190A46491E002AF4DC30BD0120E7E7C5
:1005900014180020E119D666CD0D010000220309D0
:1005A0008B422CD3030A8B4211D300239C464EE08E
:1005B00003460B433CD4002243088B4231D303094A
:1005C0008B421CD3030A8B4201D394463FE0C309FC
:1005D0008B4201D3CB01C01A524183098B4201D314
:1005E0008B01C01A524143098B4201D34B01C01AFF
:1005F000524103098B4201D30B01C01A5241C30877
:100600008B4201D3CB00C01A524183088B4201D3E5
:100610008B00C01A524143088B4201D34B00C01AD1
:100620005241411A00D201465241104670475DE0E6
:10063000CA0F00D04942031000D340425340002269
:100640009C4603098B422DD3030A8B4212D3FC2212
:10065000890112BA030A8B420CD3890192118B4291
:1006600008D3890192118B4204D389013AD09211A7
:1006700000E08909C3098B4201D3CB01C01A524162
:1006800083098B4201D38B01C01A524143098B422B
:1006900001D34B01C01A524103098B4201D30B0114
:1006A000C01A5241C3088B4201D3CB00C01A524139
:1006B00083088B4201D38B00C01A5241D9D2430820
:1006C0008B4201D34B00C01A5241411A00D201465D
:1006D000634652415B10104601D34042002B00D5C7
:1006E0004942704763465B1000D3404201B5002089
:1006F000C046C04602BD7047704770470121C9051A
:100700000123411842001B06D3185B0E0AD0C1100A
:100710000722D206891840075242D14201D5520021
:1007200089187047090208D50146002A03D0C10F75
:10073000C9070020704710467047420202D00020CF
:1007400002497047072109050143F4E70000F87FDB
:10075000F0B5FF252D04C609C209FF2704462E4027
:100760000137CB093E4348402A402B400746002A28
:100770006BD0002B69D0AA4267D0AB4265D000286D
:1007800000DA32460125ED0529432C4309022002F7
:10079000090AD21A4B0C7F24E31A434C000A7C440A
:1007A000E35C7D242404121914145B00A21888420F
:1007B00001D3521C00E0400049420C465C43241126
:1007C0005C43DB016415E318040A5C43C502200D99
:1007D0000C4644436419250A5D432303EC0C0D4683
:1007E000654300030019EB184C42A34201D35B1888
:1007F000401CD4052018002B07D05B00C91804D377
:10080000401C002901D1400840003F2189048A4250
:1008100009D3002A08DC1106090F04D00321490777
:100820004018C00FC007F0BD012241001206891810
:100830007F2252069142F6D205214907C84201D5CE
:100840009010F0BDFF20C005F0BD002F00DA324649
:100850001648AA4207D2AB4205D21902090E17D098
:10086000F80FC007F0BDFF2563002D06AB42F9D895
:100870004900A942F6D8AB4201D1A942F2D0A9421F
:1008800001D1002101E061004908D0050843F0BD15
:100890001102090EFBD0FF200243D005F0BD0A462D
:1008A0000146104654E70000371F00000000C07FDB
:1008B0001F22030C02D10F2200041CD0030E01D111
:1008C0000002083A030F01D10001121F830F01D16A
:1008D0008000921E002801DB4000521ED2055118F4
:1008E000021251181922904004D3491C002801D14A
:1008F0004908490008467047C10FC90700D0404267
:10090000012292071143D3E701218907D0E7FFB500
:1009100004460D4681B0243000902168880604D535
:100920001022E0699143216000E00120A84201DD2E
:10093000471B00E000270498A1697A191018081ACB
:10094000A0612078C00602D42046FFF7BBFC002639
:1009500008E003986268A168805D9047206A401CA7
:10096000761C206204988642F3DB2078C0060AD504
:100970002046FFF7A7FC06E06268A1683020904798
:10098000206A401C206238467F1E0028F4DC07E005
:1009900000986268A168405D9047206A401C206210
:1009A00028466D1E0028F3DC2046FFF7A1FC2078C6
:1009B000000602D5022005B0F0BD0120FBE70000D3
:1009C0007047FFB50C461E468FB003CA08900991C8
:1009D0004F007D0D00D16D1E002108460020C0464D
:1009E0000321099A89050840002A03DA8200801849
:1009F00040080840800D01280A9002DD0020C04315
:100A00000A90089807430DD0F048F1492818484348
:100A10000714189800281DD07542291E1DDD0A985C
:100A200042421BE01898012802D00020302104E047
:100A30000020F24305E02154401CB042FBDB30466D
:100A40000022189B002121540F998B600A60486096
:100A500013B0F0BDBD1B6D1CDFE70A9A002900DA58
:100A600069420BA800F09AFA0BAB07CB03AB07C3A4
:100A70000899099800F0FEFA6B4607C30146D5486D
:100A80000918002D00910BDDD24903980A9A4942BA
:100A90004018002303A90390684600F05BFD08E0BE
:100AA00003990A9A0023081803A90390684600F0E6
:100AB000FBFC6B4607C30004000C03D00020C043BE
:100AC000410800E01046189A002A03D00022009244
:100AD00015461EE0751E05D400F0C6F93032625589
:100AE0006D1EF9D501220843079602D000227F1C13
:100AF00004E02078302801D100227F1E002A0697CA
:100B000087D01EE0112D07DA00F0AEF930326255C1
:100B10006D1C02460A43F5D1084303D00098002813
:100B200019D00EE00021681E05E0235C625C63546E
:100B30002254401E491C8142F7DBA81B401E07952A
:100B40000690079A18990020A0540F98079B069AC0
:100B500081600CC07CE711260020189059E7D21D57
:100B6000F0B50D460446D10893B0C90003C90C90F6
:100B70000D9101F0AFF902460D98C00F01D02D2064
:100B800007E02068810701D52B2002E04007C00F55
:100B90004001032A0F9001D0072A05DB03462946AE
:100BA000204600F0B7F90EE12078800601D5E7690C
:100BB00000E006272846652D04D0662814D0672D4E
:100BC00069D12DE00020112F009001DB112300E0FE
:100BD0007B1C0CAA03A910A8FFF7F3FE11990026AD
:100BE00010987D1C0E9142E001203B460CAAC007E4
:100BF0000B900120009003A910A8FFF7E2FE119DC1
:100C000012981099002600280E9501D1781C0D1815
:100C1000781B02D446427D1C761EE81B00903AE009
:100C2000012F00DA01270020112F009001DD112390
:100C300000E03B460CAA03A910A8FFF7C2FE1199D9
:100C40003D46109800260E91217809070BD40E9985
:100C5000A94200DA0D4603A9012D04DD4A19203A04
:100C6000D27F302A06D0B84201DA011D04DA012110
:100C700000910FE06D1EEFE7002802DC86192D1AA7
:100C800003E0411CA94200DD0D46801B401C009082
:100C90000120C0070B902078000705D40098A842D7
:100CA00002DB0020C043009069460020C8720B9808
:100CB000012102AF0337C907884225D002201090D6
:100CC0002B2011900B9800280BDA40420B902D201E
:100CD000119006E00B9800F0ABF830317F1E0B90BE
:100CE00039701099481E00291090F3DC0B980028E9
:100CF000F0D111987F1E38702088000501D545205D
:100D000000E065207F1E387001A8C01BC01D0B903D
:100D10000F98002800D0012041190098C017091829
:100D20000B980818A169081A401EA0612078C00617
:100D300002D42046FFF7C6FA0F98002805D0626853
:100D4000A1689047206A401C20622078C00625D503
:100D50002046FFF7B7FA21E0002E07DB0E98B042DD
:100D600004DD03A86268805DA16802E06268A16892
:100D700030209047206A761C401C20620098401E5C
:100D8000002800900AD100F06BF8C0686268016822
:100D9000405CA1689047206A401C206228466D1E76
:100DA0000028D9DC07E062683878A1687F1C90478A
:100DB000206A401C20620B99481E00290B90F2DC2F
:100DC0002046FFF795FA032042E6000001FCFFFFF2
:100DD000104D0000E1DFFFFF10B54369002B02D08A
:100DE000C046C04601E0FFF794FA012010BD12781A
:100DF000014624310A7000224A700122ECE7116892
:100E00000022D243E8E70000084B70B50D467B4452
:100E100000F06DF80446284601F079F8002802D069
:100E20000020C04370BD204670BD000003110000CB
:100E300001468008081A02091018020A1018020C4C
:100E40001018C008820012185200891A01E0401CD4
:100E50000A390A29FBD27047004870477C180020E5
:100E6000004870479C1800200B4670B50246890761
:100E70008008084319469D08141AA9412509080746
:100E8000054308092C194841250A01060D43010AAA
:100E90002C194141200C0D0428430D0C00194D4123
:100EA000002140194D41C00869070843E908840F33
:100EB0008D002543840024184D4124196D41121BD7
:100EC000AB4107E00925ED432C1152196341002481
:100ED000401C61411C460A250026551BB441F1D235
:100EE00070BD000001694A1C02610878704700B5B6
:100EF0008FB0029100210591054901937944039136
:100F0000114604906846FFF78FFA0FB000BD00004D
:100F1000E5FFFFFFF8B51F46044601230068DB022A
:100F2000032601461840072A05DB002801D017A533
:100F300006E017A504E0002801D016A500E016A5DC
:100F4000102081432160A069C01E002FA06101D044
:100F5000401EA0612046FFF7B5F9002F09D03846A2
:100F60006268A1689047206A401C2062C01C206211
:100F700006E0206AFAE762682878A1686D1C90474D
:100F8000761EF8D22046FFF7B3F9F8BD4E414E0069
:100F90006E616E00494E4600696E6600F7B51646F2
:100FA0008AB0334878446C4603467C33C06F5A6835
:100FB0009B680DC42E487844763003AC0DC80DC430
:100FC0003720C001081837211B30FFF7F1FA05461A
:100FD0000C46803D1B3C02D56442012000E000200D
:100FE0000027099010E0E0070CD00C20204978433E
:100FF000794432464C3941186846012300F054FACE
:101000006B4607C364107F1C002CECD1184F7F4443
:101010002E3F16E0E80712D02001C0190EC8069135
:10102000089307920068F04201D19819089032465F
:10103000012306A903A800F037FA03AB07C36D101C
:10104000641C002DE6D10998002806D03246694676
:10105000012303A800F07EFA05E001233246694629
:1010600003A800F021FA0A9B07C30DB0F0BD0000F1
:1010700074170000034640000A4610B5400D0BD01F
:101080000121C9070F24A40200191C03640821438D
:10109000540D2143D20207E000210120F2E7D40FD2
:1010A000490021435200401E0029F8DADB0FDB071C
:1010B000184310BDFFB50D46144685B04868516809
:1010C00000F0F0FE00910190A868A16800F0EAFE2F
:1010D00002910390A868616800F0E4FE029A121879
:1010E0008242029201D2012000E00020019A0B18F6
:1010F000D2180028019202D08A4202D903E08A4223
:1011000001D2012000E000200099081800906868D2
:10111000A16800F0C7FE029A12188242029201D220
:10112000012000E00020019A0B18D218002801923B
:1011300002D08A4202D903E08A4201D2012000E0B3
:101140000020009908180090286821684000490094
:10115000400849084018FA49471814E0019940002E
:10116000C90F08430090019802994000C90F084335
:101170000190029803994000C90F08430290039818
:1011800040007F1E039000980028E7DA08980028A6
:1011900001D0EC4E00E00026B74201DA012000E069
:1011A0000020002804902AD0F71BF806C00E15D0A6
:1011B000029B2021091A039A8B401A430392029A38
:1011C000019BC2408B401A430292019A009BC2408D
:1011D0008B4000991A430192C14000917B110DD0C0
:1011E0006F460320C11A03D500218200B95003E0E5
:1011F0008A008100BA587A50401EF3D537460398CA
:101200000299002800D0012001430898029100288B
:1012100008460CD0002800D001200199019A490508
:1012200008430121D20AC902D202019200E0012141
:101230000E9B0122D207012B02D0002B03D013E01A
:10124000002807D120E0904204D890420CD1019BA5
:101250000B4209D0019B5918019105D10099491CF5
:10126000009101D17F1C009200280DD0102108466A
:101270000020C0460498002806D00F98002803D00C
:10128000082108460020C04628682168019B009A72
:101290004840C10F0598C90739430EC009B0F0BDD9
:1012A000FFB587B0099A0898089953689268406812
:1012B000896896460022039317469446089A126856
:1012C0005300099A5B081268520052089A1A9E4B02
:1012D000D4180A9A002A01D0352200E04022069252
:1012E0000022012315460492DB07059324E0002D1C
:1012F00005D175460346039E4D1BB34109D3754680
:101300006646039B491B049D9841059B7519AC4695
:101310005F4163463B4308D0059B049EDD0776088A
:101320002E435B080496059301E0521E641EC50F10
:10133000ED0749184041521C069B9A42D7DB002D0D
:1013400004D17546039A6B1A824101D203200CE046
:10135000039A0B466B404240134303D0014303D032
:10136000012002E0022000E00020614601910021FE
:10137000009702910A99002905D061464002014375
:10138000704B019102E08007002302909C4201DA39
:10139000012000E0002007003AD01A1BD006C00E42
:1013A00015D0029D2021019C091AC5408C4025437F
:1013B000029C8C4000D001242543019C0295009D95
:1013C000C4408D4000992C430194C14000915411B8
:1013D0001DD06D460221002202290CD10320001BE2
:1013E00007E0002804DB8600AE59002E00D0012261
:1013F000401C0328F5DB081B02D588002A5004E0B6
:101400008000285810438A00A850491EE3D51C4686
:101410000A98002802980CD0002800D001200199D9
:10142000019A490508430121D20AC902D202019258
:1014300000E00121109B0122D207012B02D0002BDA
:1014400003D013E0002807D11FE0904204D8904257
:101450000CD1019B0B4209D0019B5918019105D178
:101460000099491C009101D1641C009200280CD005
:10147000102108460020C046002F06D011980028F1
:1014800003D0082108460020C04608980999019A0F
:10149000009B006809684840C10F0798C9072143AD
:1014A00082600AC00BB0F0BD00B585B00193009218
:1014B0000A460146002302A8FFF7FCFD02A807C860
:1014C00005B000BDFFB50A461F4685B007990193D8
:1014D00001230091014602A8FFF7ECFD0299039851
:1014E000049ECA0F4900D20700920F2249089202B7
:1014F0008C1A0021002800DB0C46450013486D08BB
:10150000844214D3079A002A04DA441E0026104DA0
:10151000F64302E004460D460E4610210846002020
:10152000C046002F03D0042108460020C0462005F5
:10153000E90A0843009908436905F20A1143ADE638
:1015400002C0FFFF013C0000FF3F0000FF0700005A
:10155000FFFFFF7F00B585B0019300920A46014668
:10156000002302A8FFF79CFE02A807C8A8E7FFB562
:101570000A461F4685B00799019301230091014651
:1015800002A8FFF78DFE02990398049ECA0F490036
:10159000D20700920F22490892028C1A00210028DB
:1015A00000DB0C46450011486D08844214D3079AAD
:1015B000002A04DA441E00260D4DF64302E00446DC
:1015C0000D460E46102108460020C046002F03D0CD
:1015D000042108460020C0462005E90A0843009976
:1015E00008436905F20A114358E60000FF070000AE
:1015F000FFFFFF7F70477546FFF72EFCAE460500E4
:1016000069465346C008C000854618B020B5FEF7AD
:1016100029FE60BC00274908B6460026C0C5C0C5E3
:10162000C0C5C0C5C0C5C0C5C0C5C0C5403D4900D6
:101630008D46704710B50446C046C0462046FEF7AA
:10164000ABFD10BD024670B50A4392072AD11E4D6C
:10165000EE0104C808C9541B9443344017D0D0B2DB
:10166000D9B2401A2106014310D190B299B2401A62
:10167000210401430AD110021902000A090A401A82
:101680002102014302D1100E190E401A70BD9A4278
:10169000DFD010BA19BA884201D9012070BD0020EC
:1016A000C04370BD02780B78401C491C002A09D049
:1016B0009A4207D102780B78401C491C002A01D0BD
:1016C0009A42EFD0D01A70BD0101010101491820E2
:1016D000ABBEFEE726000200C10F8A000449511884
:1016E0004A68C306DB0E0120984002434A607047F7
:1016F0000002005002490A6802430A607047000075
:101700000002005010B500F013FA0148006810BD47
:101710000400002010B500F00BFA0148006810BD6D
:101720000400002002480068C00700D0014870474C
:101730000002005000366E0104480068800702D5A0
:101740000120C003704700207047000000020050D5
:1017500010B588B0202209496846FEF74DFD0848BB
:10176000406B4407640F00F0E3F9A0006946095894
:1017700004480068FEF712FF08B010BD60260000A4
:10178000000200500400002010B588B02022094952
:101790006846FEF731FD0848446B7020044000F0B5
:1017A000C7F9A0006946095804480068FEF7F6FE2C
:1017B00008B010BD80260000000200500400002088
:1017C00010B512494A6AD00301D5002010BD50035C
:1017D000830F0CD0800F01280BD00D489104920686
:1017E000890E920E5043491CFEF7D8FE10BD0948E1
:1017F000F4E70869000701D50748EFE708688004A7
:1018000001D50648EAE70648E8E700000002005074
:1018100000093D0000366E01005125020024F4004D
:10182000001BB70010B5074AD3691B091B010B4306
:10183000D3611169090909010143116100F078F9C7
:1018400010BD00000002005070B5840A23061B0E74
:101850000CD003039B0F0F4D9B005B191D68860581
:10186000E4B2F60EB440A54315431D60420E1207C4
:101870000ED04200074B920F92000C3BD218136817
:10188000C400240FC001C00E8440A3430B43136067
:1018900070BD00001C02005010B504460749084BFB
:1018A00005E00A46491E002A01DC002010BDDA6866
:1018B00020469043F5D1012010BD000080F52000A6
:1018C0000002005010B50220FFF714FF0220FFF7BE
:1018D000E3FF0028FAD00120FFF70CFF0120FFF7FB
:1018E000DBFF0028FAD00820FFF704FF0820FFF7ED
:1018F000D3FF0028FAD000210846FFF793FF00220B
:1019000011460E48FFF7A0FF002211460C48FFF7D2
:101910009BFF0121002249060A48FFF795FF01219C
:101920000022C9060848FFF78FFF0F22FF2112028D
:1019300001310648FFF788FF10BD0000103D00AEE2
:10194000913D00CE0C008CA70F00ACC7023D84AEC9
:10195000036942689A420FD2836802680978D154B9
:101960004168491C416002698168521E914201D25E
:10197000491C00E000218160704700000D48016AA9
:101980004A070121002A03DA0B4A1170042202627D
:10199000026A520404D5094A1170012292030262BC
:1019A00004484030026A120703D5054A1170082125
:1019B00001627047004000503C0000203D000020C4
:1019C0003E000020044603A0FEF76EFC204600F017
:1019D0005DFBFEE7496E2048617264204661756CCC
:1019E000742048616E646C65720A00000E49886953
:1019F0000E4A1043886105200007826B11231A43A9
:101A00008263826B1B041A4382630A68084B1A4381
:101A10000A60016B074A11430163016B0163416B6B
:101A20004163816B8163704740000050007700770D
:101A3000111100000060660606498A695205FCD44F
:101A400008600A2804D188694005FCD40D2008608C
:101A5000704700000000054010B5154C2069400794
:101A6000400F0FD001280FD0022810D0032811D02A
:101A7000042811D00F48E1690907090F491CFEF736
:101A80008DFD10BD0C48F6E70120C003F3E700F020
:101A90001DF8F0E70948EEE72069000701D508487E
:101AA000E9E72068800401D50648E4E70648E2E754
:101AB0000002005000093D0000366E0110270000B2
:101AC000005125020024F400001BB70010B5124994
:101AD0004A6AD00301D5002010BD5003830F0CD0FB
:101AE000800F01280BD00D4891049206890E920EAA
:101AF0005043491CFEF752FD10BD0948F4E7086940
:101B0000000701D50748EFE70868800401D50648BB
:101B1000EAE70648E8E700000002005000093D003F
:101B200000366E01005125020024F400001BB700AE
:101B300010B5FFF791FF044C044920604A1080184B
:101B4000FEF72CFD606010BD0400002040420F0035
:101B50000A48826802210A4382600A4B084A5A6096
:101B6000094A126AFF231B049A43084B1A43084B85
:101B70001A6382688A438260704700000002005046
:101B800065A9000000800040000100500030B00056
:101B9000C0810040014901200861704700000140F8
:101BA00038B5134D2869134CC10608D40DE0012245
:101BB000694600F06DF869462068FFF7C9FEA9691B
:101BC00028468907F3D510210FE0C00708D138BD9A
:101BD0000122694600F05CF869462068FFF7B8FE0C
:101BE000A96928468907F3D5012100F005F838BD19
:101BF00000001540100000204A0703D570228261C2
:101C0000012242610A0704D5C26901239B041A43D9
:101C1000C2618A0602D5FF22023282614A0601D5DC
:101C2000402202610A0601D506224261C90501D59A
:101C3000382141617047C2680A43C26070470000A2
:101C400070B50E46044600F0E3F8054660680C21C6
:101C5000884360600020A0630320A060002E13D0A2
:101C6000700840193146FEF799FC0849401E884229
:101C700009D9F00040193146FEF790FC0121000916
:101C8000C907401E0843606270BD0000FFFF0000EE
:101C900070B5044600200125AD070CE0002304E0E8
:101CA0005B1CAB4201D3002070BDA669B607F7D418
:101CB00023680B54401C9042F0D370BD026A520A54
:101CC00052020A430262C16810221143C160704788
:101CD00070B52848FFF700FD2748FFF7FDFCE12518
:101CE000264C6D0229462046FFF7AAFF2946244DBF
:101CF0002846FFF7A5FFA168032000020143A16069
:101D0000A9680143A960FF212046FFF7D7FFFF2103
:101D10002846FFF7D3FF11212846FFF78CFFFFF776
:101D2000F1FC014617A0FEF7BFFAFFF7F3FC0146EE
:101D300019A0FEF7B9FAFFF7F5FC01461BA0FEF764
:101D4000B3FAFFF7F9FC01461DA0FEF7ADFAFFF765
:101D5000FFFC01461FA0FEF7A7FAFFF715FD01469D
:101D600021A0FEF7A1FAFFF72BFD014623A0FEF705
:101D70009BFA70BD103D00AE913D00CE00000540C5
:101D80000000154043505520467265712020203ACE
:101D9000202564487A0A000048434C4B204672656F
:101DA0007120203A202564487A0A000048585420BF
:101DB000467265712020203A202564487A0A000086
:101DC0004C585420467265712020203A20256448E2
:101DD0007A0A000050434C4B302046726571203A1D
:101DE000202564487A0A000050434C4B312046724B
:101DF0006571203A202564487A0A0000504C4C2036
:101E0000467265712020203A202564487A0A000035
:101E100010B51C4B002201241B49984206D1486989
:101E20004207C869520F0005040F08E0174B98429B
:101E300006D188694207C869520F0004040F641C68
:101E4000002A0AD0012A0AD0022A0BD0032A0CD079
:101E50000F482146FEF7A2FB10BD0E48F9E701200E
:101E6000C003F6E7FFF732FEF3E70869000701D584
:101E70000948EEE70868800401D50848E9E7084802
:101E8000E7E7000000000540000200500000154098
:101E900000093D0000366E01005125020024F400C7
:101EA000001BB700F8B5040C8BB2264682B25E4325
:101EB0000D0C1046370C5843360480190021794127
:101EC00016466E43370C36048019794126466E4318
:101ED0008919F8BD4900CA020243100000D004204D
:101EE0004A0D01D001221043044A490D914201D10B
:101EF00002210843012800D105207047FF07000098
:101F000030380A2801D20120704700207047002095
:101F1000C043704700B50346FFF78EFD184600BD6D
:101F200008B5592116223248882302E00160026078
:101F300003600468012CF9D1FFF758FDFFF7C2FCDC
:101F4000FFF7C6FE00252B4EFEF73AF95021FEF7AB
:101F50002FFB0091FEF734F95021FEF729FB4F1CAF
:101F6000294625A0FEF7A0F900998C0030590028D9
:101F70000AD023A0FEF798F92448005900F026F96A
:101F80002349002008510EE0384600F0D3F81F49DD
:101F90000028085100993A4607D01EA0FEF784F9A0
:101FA0001B4807510120305106E01FA0FEF77CF9C5
:101FB00024480168491C016023486D1C8542C3D335
:101FC000124D134F0024A000315800913B582A585D
:101FD00021461EA0FEF768F9641C502CF3D3194863
:101FE000016827A0FEF760F900F026F9FEE700007F
:101FF000000100509001002025303464202E200084
:102000005B253032645D467265650A005000002031
:10201000D00200205B253032645D416C6C6F632020
:102020003A2025640A0000005B253032645D416C73
:102030006C6F63203A202564203B204572726F72DA
:102040000A0000000000002010270000705B25300F
:10205000645D2041646472657373203A2030782592
:1020600058203B2053697A65203A202564203B2084
:102070004973416C6C6F63203A2025640A000000AC
:102080004572726F72203A2025640A0010B504462A
:10209000016810A0FEF708F911A06168FEF704F9C5
:1020A00012A0A168FEF700F913A0E168FEF7FCF8A2
:1020B00014A02169FEF7F8F815A06169FEF7F4F89D
:1020C00016A0A169FEF7F0F817A0E169FEF7ECF899
:1020D00010BD0000723020203D20307825780A00A5
:1020E000723120203D20307825780A00723220207D
:1020F0003D20307825780A00723320203D2030784A
:1021000025780A00723132203D20307825780A0087
:102110006C7220203D20307825780A0070632020E2
:102120003D20307825780A00707372203D20307889
:1021300025780A00F8B50024234F054600947868F6
:102140002646002801D100F0EFF9680702D0ED1D06
:10215000ED08ED001C4A28460832083084461A482B
:102160001168476817E04868A84209D11648036813
:102170005B1B083B03600846096808301160F8BD26
:10218000604506D3002C02D06368984201D20C4609
:1021900016460A460968B942E5D1002C11D00A4812
:1021A0000168491B08390160204608300090601919
:1021B000216881606168491B0839C1600830656029
:1021C00030600098F8BD00004000002030B50246A5
:1021D000083A002826D0174828E0914225D9154D05
:1021E0005368083D2C6808341C192C6014460834C8
:1021F0001C198C4209D16C68A14206D00C6814608D
:10220000496859180831516000E01160034641687F
:102210000833CB18934206D11368036052688918BB
:102220000831416030BD026030BD084601680029B8
:10223000D3D130BD48000020F0B54D4C85B06007CB
:1022400002D0E41DE408E4004A4D6868061B4AA079
:102250000836FEF729F8564A4549134655A0FEF7B9
:1022600023F821465FA0FEF71FF83246114665A00D
:10227000FEF71AF840A0FEF717F83046FEF744FBC9
:102280000290039028680646FEF73EFB0399FEF78E
:102290005FFA624900F084F9FEF730FA32460191A4
:1022A000009011465EA0FDF7FFFF2E46083665A0A0
:1022B0003168FDF7F9FF6BA06968FDF7F5FF2EA007
:1022C000FDF7F2FF356820E06E6829466CA00836FD
:1022D000FDF7EAFF3046029FFEF716FB3946FEF790
:1022E00037FA4E4900F05CF9FEF708FA32460191E0
:1022F0000090114668A0FDF7D7FF70A02968FDF790
:10230000D3FF23A0FDF7D0FF2D68002DDCD11948A5
:1023100023210830056871A0FDF7C6FF402175A094
:10232000FDF7C2FF3A2178A0FDF7BEFF18E07BA0C1
:10233000FDF7BAFF641CAC42F9D3002678A0FDF784
:10234000B3FF641C761C082EF8D3002604E075A0A9
:10235000FDF7AAFF641C761C6868B042F7D82D68A8
:10236000002DE8D136A0FDF79FFF05B0F0BD0000BD
:1023700010040020400000202D2D2D2D2D2D2D2D61
:102380002D2D2D2D2D2D2D2D2D2D2D2D2D2D2D2D7D
:102390002D2D2D2D2D2D2D2D2D2D2D2D2D2D2D2D6D
:1023A0002D2D2D2D2D2D2D2D2D2D2D0A0000000034
:1023B000881300004F726967696E204172726179FB
:1023C0002041646472657373203A20307825582068
:1023D0003B2053697A65203A2030782558282564B7
:1023E000290A0000416C69676E6D656E7420417248
:1023F0007261792041646472657373203A20307889
:1024000025580A00426C6F636B2053697A65203A45
:102410002030782558282564290A00000000C84289
:10242000467265652053697A65203A2030782558D0
:10243000282564292E2E2E2E2E25302E3166252578
:102440000A0000004669727374204C696E6B6572F5
:102450002041646472657373203A20307825580AED
:1024600000000000456E64204C696E6B657220416F
:10247000646472657373203A20307825580A00002E
:10248000426C6F636B2041646472657373203A2001
:10249000307825580A000000426C6F636B20536946
:1024A0007A65203A2030782558282564292E2E2E4A
:1024B0002E2E25302E316625250A0000426C6F63D2
:1024C0006B204E657874204C696E6B204164647299
:1024D000657373203A20307825580A00616C6C6F60
:1024E0006361746564203A205B25635D20202020B1
:1024F000000000004C696E6B6572203A205B25631A
:102500005D202020000000004672656520426C6F4F
:10251000636B203A205B25635D0A00002300000006
:10252000400000003A000000104810B50E49420774
:1025300005D0C01DC0080D4AC000821A891A0C4A75
:10254000002413461160083311C308394018506045
:1025500004605068083B4460186851680160091ABB
:102560000839416010BD00008813000010040020ED
:102570004000002010B500290AD00878002807D0B4
:1025800005487844FFF75EF8002801D0002010BD10
:102590000248784410BD00004E02000046020000D0
:1025A00070B5420064414B005C41120E39D01B0EE5
:1025B00038D0FF2A3CD0FF2B3AD040024902400AD3
:1025C000490A060045184E43000A090AD218484332
:1025D000ED017F3A0104731A4019190C4318990F41
:1025E00004D001215B0849075B1A521CD80904D3A7
:1025F000401CF50301D19D0607D0FF2A08D2D5055E
:1026000006D0E4072043401970BD0125A843F4E734
:10261000002A01DCE00770BD2402FF202043C00532
:1026200070BD1B0EFF2A03D0FF2B01D0E00770BD49
:10263000FF2645003606B54206D84D00B54203D800
:10264000D218FF2A00D0E7E7004870BD0000C07F25
:1026500003B402487844844603BC604707E5FFFFA3
:10266000010000000200000004000000080000005B
:102670001000000001000000010000000100000047
:10268000010000000200000004000000080000003B
:102690001000000001000000010000000100000027
:1026A0003031323334353637383941424344454688
:1026B0004030580030313233343536373839616282
:1026C0006364656640307800040000080000000084
:1026D000000000020001000010818283848586874B
:1026E00088898B8C8D8E8F919293959697999A9CD1
:1026F0009D9FA0A2A3A5A7A8AAACAEB0B2B3B5B740
:10270000B9BCBEC0C2C5C7C9CCCED1D4D7D9DCDF15
:10271000E2E6E9ECF0F3F7FAFE0000000240000008
:10272000000000A00000000005400000000000C8FC
:10273000000000000C4000000000409C0000000071
:10274000194000000020BCBE000000003440000022
:10275000BFC91B8E00000004B5400000504BCFD015
:102760006607E2CF010000006C4100003E8251AAE2
:10277000DFEEA73401000000D9420000DCB5A0E282
:102780003A301F97FFFFFFFFB4450000FD25A0C8AA
:10279000E9A3C14FFFFFFFFFFF3F000000000080E3
:1027A00000000000FF3F000000000080000000006B
:1027B000EC27000000000020500000000401000091
:1027C0003C28000050000020901E00002001000066
:1027D0001C00000043000000F8FFFFFF0C00000099
:1027E0000E0000000F0000002E000000000000009E
:1027F000001BB7000C0000000000000000000000FB
:1028000000000000E40700000100000001000000DB
:1028100000000000000000000000000000000000B8
:1028200001000000000000000000000000000000A7
:0C2830000000000000000000000000009C
:0400000500000231C4
:00000001FF
