:020000040000FA
:1000000010210020E50100000D0200009101000018
:1000100000000000000000000000000000000000E0
:1000200000000000000000000000000011020000BD
:100030000000000000000000130200001502000094
:10004000170200001702000017020000170200004C
:10005000890C0000170200001702000000000000D9
:10006000A10E000017020000170200001702000096
:1000700017020000AD0E000017020000170200007A
:10008000170200001702000017020000170200000C
:1000900017020000170200001702000017020000FC
:1000A00017020000170200001702000017020000EC
:1000B00017020000170200001702000017020000DC
:1000C00000F002F800F054F80CA030C808382418EA
:1000D0002D18A246671EAB4654465D46AC4201D180
:1000E00000F046F87E460F3E0FCCB646012633425E
:1000F00000D0FB1AA246AB4633431847B0120000AB
:10010000D0120000103A02D378C878C1FAD852074A
:1001100001D330C830C101D504680C6070470000BD
:100120000023002400250026103A01D378C1FBD813
:10013000520700D330C100D50B60704710B5642959
:1001400002D100F01BF910BD782902D100F04CF962
:1001500010BD732902D100F067FB10BD002010BD57
:100160001FB50098019900F0C0FA1FBD10B510BD71
:1001700000F0C3FB1146FFF7F3FF01F02DF800F08C
:10018000DBFB03B4FFF7F2FF03BC00F00BFC000045
:1001900004207146084202D0EFF3098001E0EFF33A
:1001A00008807146004A1047D10C000070B5054622
:1001B0000C46164602E00FCC0FC5103E102EFAD2A8
:1001C000082E02D303CC03C5083E042E07D301CC6E
:1001D00001C5361F03E021782970641C6D1C761E52
:1001E000F9D270BD0F4810490160104901601049F3
:1001F0000160104A10491160104A114911601148FC
:1002000080470848002101600F480047FEE7FEE7ED
:10021000FEE7FEE7FEE7FEE70C480D490D4A0E4BF0
:100220007047000000010050590000001600000057
:100230008800000060000050A55A00001400005023
:10024000C00000005D0E0000C10000001001002091
:1002500010210020101100201011002070B506465A
:1002600000F026FA056830460B30C408E400B442BA
:1002700001D8002070BD68682A46002818D001689F
:10028000A14211D30B46214608318B4208D3436863
:1002900001194B6003681B1B0B605160046001E097
:1002A00041685160001D70BD024640680028E6D1DB
:1002B0002146284600F004FA0028DCD170BD70B554
:1002C0000446051F00F0F4F90068002C1AD04468B9
:1002D00001E020466468002C01D0AC42F9D30168EB
:1002E0000A18AA4204D12A6805468918016000E06C
:1002F000456028684119A14205D16168696021689B
:100300004018286070BD6C6070BD00000FB40549D6
:1003100010B503AA029800F08BFA10BC08BC04B018
:10032000184700001400002070B50C460546012A4D
:1003300005D02878800600D5EA69002302E0012371
:1003400005E05B1C934202D2E05C0028F9D1A86969
:10035000E618C01AA861286AC01828622846C04654
:10036000C04604E06A682078A968641C9047B442DB
:10037000F8D32846C046C04670BD0000F7B500253A
:1003800075291068009914A611D0C046C0460028EF
:1003900002DA404211A608E0009909688A0701D5EF
:1003A0000FA602E0490704D50EA6012501E0C046CC
:1003B000C046009F0024243704E000F04DFA30319D
:1003C0003955641C0028F8D12B4632462146009846
:1003D00000F0BFF9FEBD0000000000002D0000008D
:1003E0002B0000002000000070B504460D46214699
:1003F0001068C046C0462188090502D50F4A7A44D4
:1004000002E00E4A7A440E3223460021243305E0EE
:1004100006070009360F965D5E54491C0028F7D187
:1004200020780023000705D5702D03D0002901D0C6
:1004300002231132204600F08CF970BD820F0000BB
:10044000F3B50446002081B020622046E168884769
:1004500000287AD0252802D06268A16871E0E1689E
:1004600020460025884706460020E0610746A06137
:100470002A2E0AD0304600F09BFE002827D0B80074
:100480000019303E0090866119E00298BA001219F6
:1004900002C8916102902046E1688847012F064614
:1004A00017D1E06900281FDA202085431CE000985E
:1004B0000A218069484300998019303888612046B4
:1004C000E1688847064600F073FE0028EFD1012F4F
:1004D0000AD02E2E08D12046E16888470646202003
:1004E00005437F1C022FC3DBA069002803DA4042CA
:1004F000A06101200543E80701D010208543002EAC
:1005000023D030464138192803D80120C0020543C2
:100510002036204625603146029A1546FFF70EFE2A
:1005200000280BD0012806D0ED1DE808C0000830D7
:1005300002908AE709E02D1D029586E76268304641
:10054000A1689047206A401C7EE7206AFEBD002219
:1005500003098B422CD3030A8B4211D300239C4600
:100560004EE003460B433CD4002243088B4231D378
:1005700003098B421CD3030A8B4201D394463FE00C
:10058000C3098B4201D3CB01C01A524183098B426C
:1005900001D38B01C01A524143098B4201D34B0155
:1005A000C01A524103098B4201D30B01C01A5241B8
:1005B000C3088B4201D3CB00C01A524183088B423F
:1005C00001D38B00C01A524143088B4201D34B0028
:1005D000C01A5241411A00D201465241104670479A
:1005E0005DE0CA0F00D04942031000D3404253409F
:1005F00000229C4603098B422DD3030A8B4212D35F
:10060000FC22890112BA030A8B420CD38901921190
:100610008B4208D3890192118B4204D389013AD0CD
:10062000921100E08909C3098B4201D3CB01C01AA2
:10063000524183098B4201D38B01C01A52414309B5
:100640008B4201D34B01C01A524103098B4201D3A3
:100650000B01C01A5241C3088B4201D3CB00C01A10
:10066000524183088B4201D38B00C01A5241D9D228
:1006700043088B4201D34B00C01A5241411A00D2A9
:100680000146634652415B10104601D34042002BA5
:1006900000D54942704763465B1000D3404201B524
:1006A0000020C046C04602BD70477047704700003A
:1006B00000487047B400002070477047704770478B
:1006C00038B504460A4600206946C046C0460028A0
:1006D00005D002462046009900F0D6F8012038BD2A
:1006E00010B5012000F002F910BDF8B5C046C046B3
:1006F000054600200C461020C0460646A819A04218
:100700000DD9324669460020C046C046070001D1D7
:1007100000F0ECF80098A04200D00546C419FFF79D
:10072000C7FFF61D07460560F008C00046192846B9
:1007300000F008F8B44204D031463868A21B00F03B
:10074000A3F8F8BD0021016041608060704710206F
:100750007047FFB504460D4681B0243000902168F3
:10076000880604D51022E0699143216000E0012051
:10077000A84201DD471B00E000270498A1697A190F
:100780001018081AA0612078C00602D42046C0467E
:10079000C046002608E003986268A168805D904723
:1007A000206A401C761C206204988642F3DB207885
:1007B000C0060AD52046C046C04606E06268A16869
:1007C00030209047206A401C206238467F1E002857
:1007D000F4DC07E000986268A168405D9047206AF9
:1007E000401C206228466D1E0028F3DC2046C046CF
:1007F000C0462078000602D5022005B0F0BD0120D9
:10080000FBE710B54369002B02D0C046C04601E0AB
:10081000FFF78AFD012010BD1278014624310A70CD
:1008200000224A700122ECE711680022D243E8E777
:10083000084B70B50D467B4400F045F80446284649
:1008400000F0C1FC002802D00020C04370BD20464B
:1008500070BD00009309000001468008081A0209D3
:100860001018020A1018020C1018C0088200121882
:100870005200891A01E0401C0A390A29FBD270474C
:1008800000487047AC00002010B50346406801E006
:1008900003464068002801D08842F9D31868C3187D
:1008A0008B4206D0CB1CD808C000001D411A521A3A
:1008B0000146081D0A60FFF702FD10BD01694A1CD0
:1008C00002610878704700B58FB002910021059150
:1008D0000549019379440391114604906846FFF756
:1008E000AFFD0FB000BD0000E5FFFFFF10B500F049
:1008F00031F800F029F810BD70477546FFF7C0FFCA
:10090000AE46050069465346C008C000854618B08B
:1009100020B5FFF781FC60BC00274908B6460026D9
:10092000C0C5C0C5C0C5C0C5C0C5C0C5C0C5C0C59F
:10093000403D49008D46704710B50446C046C0464C
:100940002046FFF71EFC10BD10B5002801D000F0B6
:1009500029F810BD10B5012805D0002103A000F032
:1009600027F8012010BD09A1F8E7000053494752BC
:10097000544D454D3A204F7574206F66206865616F
:1009800070206D656D6F7279000000003A20486537
:100990006170206D656D6F727920636F7272757012
:1009A0007465640001491820ABBEFEE72600020012
:1009B00070B505460C460A2000E06D1C00F0FFFBF8
:1009C000002D06D028780028F7D102E0641C00F042
:1009D000F6FB002C02D020780028F7D10A2000F086
:1009E000EEFB70BDC10F8A00044951184A68C30666
:1009F000DB0E0120984002434A607047000200501D
:100A000002490A6802430A60704700000002005071
:100A100010B500F013FA0148006810BD0C0000206A
:100A200010B500F00BFA0148006810BD0C00002062
:100A300002480068C00700D001487047000200501B
:100A400000366E0104480068800702D50120C0030B
:100A500070470020704700000002005010B588B0B9
:100A6000202209496846FFF7A1FB0848406B44076C
:100A7000640F00F0E3F9A0006946095804480068D3
:100A8000FFF765FD08B010BD4413000000020050E0
:100A90000C00002010B588B0202209496846FFF7F5
:100AA00085FB0848446B7020044000F0C7F9A000A3
:100AB0006946095804480068FFF749FD08B010BDB1
:100AC00064130000000200500C00002010B5124911
:100AD0004A6AD00301D5002010BD5003830F0CD00B
:100AE000800F01280BD00D4891049206890E920EBA
:100AF0005043491CFFF72BFD10BD0948F4E7086976
:100B0000000701D50748EFE70868800401D50648CB
:100B1000EAE70648E8E700000002005000093D004F
:100B200000366E01005125020024F400001BB700BE
:100B300010B5074AD3691B091B010B43D361116927
:100B4000090909010143116100F078F910BD0000A5
:100B50000002005070B5840A23061B0E0CD003035C
:100B60009B0F0F4D9B005B191D688605E4B2F60EC6
:100B7000B440A54315431D60420E12070ED042003B
:100B8000074B920F92000C3BD2181368C400240F3D
:100B9000C001C00E8440A3430B43136070BD00002E
:100BA0001C02005010B504460749084B05E00A46F0
:100BB000491E002A01DC002010BDDA68204690435F
:100BC000F5D1012010BD000080F52000000200508A
:100BD00010B50220FFF714FF0220FFF7E3FF002803
:100BE000FAD00120FFF70CFF0120FFF7DBFF002800
:100BF000FAD00820FFF704FF0820FFF7D3FF0028F2
:100C0000FAD000210846FFF793FF002211460E4854
:100C1000FFF7A0FF002211460C48FFF79BFF0121C0
:100C2000002249060A48FFF795FF01210022C90664
:100C30000848FFF78FFF0F22FF21120201310648FB
:100C4000FFF788FF10BD0000103D00AE913D00CEC3
:100C50000C008CA70F00ACC7023D84AE036942684C
:100C60009A420FD2836802680978D1544168491CBE
:100C7000416002698168521E914201D2491C00E024
:100C800000218160704700000D48016A4A07012178
:100C9000002A03DA0B4A117004220262026A52042B
:100CA00004D5094A117001229203026204484030BF
:100CB000026A120703D5054A1170082101627047C4
:100CC0000040005044000020450000204600002065
:100CD000044603A0FFF71AFB204600F0DFFAFEE708
:100CE000496E2048617264204661756C74204861C9
:100CF0006E646C65720A00000E4988690E4A1043E2
:100D0000886105200007826B11231A438263826B7E
:100D10001B041A4382630A68084B1A430A60016B7A
:100D2000074A11430163016B0163416B4163816BAE
:100D30008163704740000050007700771111000078
:100D40000060660606498A695205FCD408600A28D4
:100D500004D188694005FCD40D200860704700006C
:100D60000000054010B5154C20694007400F0FD01A
:100D700001280FD0022810D0032811D0042811D048
:100D80000F48E1690907090F491CFFF7E0FB10BD97
:100D90000C48F6E70120C003F3E700F01DF8F0E788
:100DA0000948EEE72069000701D50848E9E720680F
:100DB000800401D50648E4E70648E2E70002005057
:100DC00000093D0000366E01102700000051250289
:100DD0000024F400001BB70010B512494A6AD00382
:100DE00001D5002010BD5003830F0CD0800F0128C7
:100DF0000BD00D4891049206890E920E5043491C67
:100E0000FFF7A5FB10BD0948F4E70869000701D505
:100E10000748EFE70868800401D50648EAE7064876
:100E2000E8E700000002005000093D0000366E01B6
:100E3000005125020024F400001BB70010B5FFF795
:100E400091FF044C044920604A108018FFF77FFB93
:100E5000606010BD0C00002040420F000A4882680C
:100E600002210A4382600A4B084A5A60094A126A00
:100E7000FF231B049A43084B1A43084B1A638268EA
:100E80008A438260704700000002005065A900009C
:100E900000800040000100500030B000C0810040E0
:100EA00001490120086170470000014038B5134D29
:100EB0002869134CC10608D40DE00122694600F0F0
:100EC0006DF869462068FFF7C9FEA96928468907B9
:100ED000F3D510210FE0C00708D138BD01226946C3
:100EE00000F05CF869462068FFF7B8FEA96928465B
:100EF0008907F3D5012100F005F838BD0000154041
:100F0000180000204A0703D5702282610122426145
:100F10000A0704D5C26901239B041A43C2618A06E9
:100F200002D5FF22023282614A0601D540220261C7
:100F30000A0601D506224261C90501D53821416161
:100F40007047C2680A43C2607047000070B50E4621
:100F5000044600F0E3F8054660680C2188436060B1
:100F60000020A0630320A060002E13D07008401959
:100F70003146FFF7ECFA0849401E884209D9F000D3
:100F800040193146FFF7E3FA01210009C907401E65
:100F90000843606270BD0000FFFF000070B50446AA
:100FA00000200125AD070CE0002304E05B1CAB42F0
:100FB00001D3002070BDA669B607F7D423680B548F
:100FC000401C9042F0D370BD026A520A52020A439A
:100FD0000262C16810221143C160704770B5284891
:100FE000FFF700FD2748FFF7FDFCE125264C6D02C9
:100FF00029462046FFF7AAFF2946244D2846FFF739
:10100000A5FFA168032000020143A160A968014374
:10101000A960FF212046FFF7D7FFFF212846FFF7F1
:10102000D3FF11212846FFF78CFFFFF7F1FC0146A3
:1010300017A0FFF76BF9FFF7F3FC014619A0FFF7C4
:1010400065F9FFF7F5FC01461BA0FFF75FF9FFF715
:10105000F9FC01461DA0FFF759F9FFF7FFFC014617
:101060001FA0FFF753F9FFF715FD014621A0FFF779
:101070004DF9FFF72BFD014623A0FFF747F970BD9F
:10108000103D00AE913D00CE00000540000015402F
:1010900043505520467265712020203A202564482F
:1010A0007A0A000048434C4B204672657120203A72
:1010B000202564487A0A0000485854204672657119
:1010C0002020203A202564487A0A00004C585420F9
:1010D000467265712020203A202564487A0A000073
:1010E00050434C4B302046726571203A20256448AD
:1010F0007A0A000050434C4B312046726571203A09
:10110000202564487A0A0000504C4C2046726571D4
:101110002020203A202564487A0A000010B51C4B94
:10112000002201241B49984206D148694207C86938
:10113000520F0005040F08E0174B984206D188694A
:101140004207C869520F0004040F641C002A0AD029
:10115000012A0AD0022A0BD0032A0CD00F482146BC
:10116000FFF7F5F910BD0E48F9E70120C003F6E7D7
:10117000FFF732FEF3E70869000701D50948EEE7FB
:101180000868800401D50848E9E70848E7E7000057
:1011900000000540000200500000154000093D001D
:1011A00000366E01005125020024F400001BB70038
:1011B00030380A2801D2012070470020704700B55E
:1011C000FFF7C0FD00BD0020C043704700B50346D7
:1011D000FFF7B8FD184600BD204859221621882384
:1011E00002E00260016003600468012CF9D1FFF79E
:1011F00083FDFFF7EDFCFFF7F1FE19A0FFF786F87E
:101200006002FFF72BF8050023D000216954491C28
:10121000C9B26429FAD30024295D14A0FFF776F837
:10122000641CE4B2642CF7D3134D00202854401CF6
:10123000C0B26428FAD30024295D10A0FFF766F835
:10124000641CE4B2642CF7D3104911A0FFF75EF8D8
:10125000FEE710A0FFF75AF8E6E700000001005093
:10126000537461727421210A00000000646174618A
:10127000203A2025640A00004800002074656D7043
:101280005F64617461203A2025640A000000002038
:1012900025730A0045525220410A000010B5044649
:1012A000016810A0FFF732F811A06168FFF72EF86F
:1012B00012A0A168FFF72AF813A0E168FFF726F84B
:1012C00014A02169FFF722F815A06169FFF71EF845
:1012D00016A0A169FFF71AF817A0E169FFF716F841
:1012E00010BD0000723020203D20307825780A00A3
:1012F000723120203D20307825780A00723220207B
:101300003D20307825780A00723320203D20307847
:1013100025780A00723132203D20307825780A0085
:101320006C7220203D20307825780A0070632020E0
:101330003D20307825780A00707372203D20307887
:1013400025780A00010000000200000004000000EF
:101350000800000010000000010000000100000073
:101360000100000001000000020000000400000075
:101370000800000010000000010000000100000053
:1013800001000000303132333435363738394142CC
:1013900043444546403058003031323334353637D7
:1013A000383961626364656640307800CC130000B0
:1013B0000000002048000000040100001414000098
:1013C00048000020C82000002001000031323334E2
:1013D0003536373839300000001BB7000C000000EC
:1013E000000000000000000000000000E407000012
:1013F00001000000010000000000000000000000EB
:1014000000000000000000000100000000000000DB
:0414100000000000D8
:04000005000001E511
:00000001FF
