:020000040000FA
:100000002823002049020000710200007D01000049
:1000100000000000000000000000000000000000E0
:1000200000000000000000000000000015130000A8
:100030000000000000000000CF01000011140000CB
:100040007B0200007B0200007B0200007B020000BC
:100050009D0C00007B0200007B02000000000000FD
:10006000C11500007B0200007B0200007B02000043
:100070007B020000CD1500007B0200007B02000027
:100080007B0200007B0200007B0200007B0200007C
:100090007B0200007B0200007B0200007B0200006C
:1000A0007B0200007B0200007B0200007B0200005C
:1000B0007B0200007B0200007B0200007B0200004C
:1000C00000F002F800F04BF80CA030C808382418F3
:1000D0002D18A246671EAB4654465D46AC4201D180
:1000E00000F03DF87E460F3E0FCCB6460126334267
:1000F00000D0FB1AA246AB4633431847982C0000A9
:10010000B82C0000103A02D378C878C1FAD8520748
:1001100001D330C830C101D504680C6070470000BD
:100120000023002400250026103A01D378C1FBD813
:10013000520700D330C100D50B60704710B5642959
:1001400002D100F0CBF810BD782902D100F0FCF804
:1001500010BD002010BD1FB51FBD10B510BD00F0B3
:1001600080FB1146FFF7F7FF01F0D0FB00F098FB92
:1001700003B4FFF7F2FF03BC00F09AFB04207146C2
:10018000084202D0EFF3098001E0EFF308807146E6
:10019000004A1047CD0D0000084B19680868203050
:1001A00080F30988022080F31488BFF36F8F3FBC6F
:1001B000AE4608BC04BC62B61847000080000020B0
:1001C000EFF3108072B6704780F310887047EFF33A
:1001D00009800E4B1A6820381060F0C044464D4626
:1001E00056465F46F0C008B572B602F0C7F962B66F
:1001F0000CBC116808681030F0C8A046A946B24689
:10020000BB4680F309882038F0C8184780000020DA
:1002100070B505460C46164602E00FCC0FC5103EE1
:10022000102EFAD2082E02D303CC03C5083E042EAA
:1002300007D301CC01C5361F03E021782970641C67
:100240006D1C761EF9D270BD0F481049016010492F
:10025000016010490160104A10491160104A1149AB
:100260001160114880470848002101600F4800478D
:10027000FEE7FEE7FEE7FEE7FEE7FEE70C480D4976
:100280000D4A0E4B7047000000010050590000005D
:10029000160000008800000060000050A55A000011
:1002A00014000050C000000055140000C100000000
:1002B000281C002028230020281E0020281E0020A3
:1002C0000FB4054910B503AA029800F085FA10BCD6
:1002D00008BC04B0184700001C000020F7B500253A
:1002E00075291068009914A611D0C046C046002890
:1002F00002DA404211A608E0009909688A0701D590
:100300000FA602E0490704D50EA6012501E0C0466C
:10031000C046009F0024243704E000F071FA303119
:100320003955641C0028F8D12B46324621460098E6
:1003300000F0FAF9FEBD0000000000002D000000F2
:100340002B0000002000000070B504460D46214639
:100350001068C046C0462188090502D50F4A7A4474
:1003600002E00E4A7A440E3223460021243305E08F
:1003700006070009360F965D5E54491C0028F7D128
:1003800020780023000705D5702D03D0002901D067
:1003900002231132204600F0C7F970BD0A2A00007E
:1003A000F3B50446002081B020622046E16888470A
:1003B00000287AD0252802D06268A16871E0E1683F
:1003C00020460025884706460020E0610746A061D8
:1003D0002A2E0AD0304601F088FA002827D0B8002B
:1003E0000019303E0090866119E00298BA00121997
:1003F00002C8916102902046E1688847012F0646B5
:1004000017D1E06900281FDA202085431CE00098FE
:100410000A21806948430099801930388861204654
:10042000E1688847064601F060FA0028EFD1012F05
:100430000AD02E2E08D12046E168884706462020A3
:1004400005437F1C022FC3DBA069002803DA40426A
:10045000A06101200543E80701D010208543002E4C
:1004600023D030464138192803D80120C002054363
:100470002036204625603146029A1546FFF75EFE7B
:1004800000280BD0012806D0ED1DE808C000083078
:1004900002908AE709E02D1D029586E762683046E2
:1004A000A1689047206A401C7EE7206AFEBD0000DC
:1004B00030B5441C03E00178401C00290DD08107B1
:1004C000F9D10B4BDD0104C8D11A91432940FAD070
:1004D000001B0A0603D0C01E30BD001B30BD0A043D
:1004E00001D0801E30BD0902FCD0401E30BD00008E
:1004F00001010101F8B5042A2CD3830712D00B782F
:10050000491C0370401C521E83070BD00B78491CFA
:100510000370401C521E830704D00B78491C0370E3
:10052000401C521E8B079B0F05D0C91ADF002023E9
:10053000DE1B08C90AE0FFF76BFEF8BD1D4608C9BF
:10054000FD401C46B4402C4310C0121F042AF5D2B3
:10055000F308C91A521EF0D40B78491C0370401CD2
:10056000521EEAD40B78491C0370401C012AE4D4C3
:1005700009780170F8BDD2B210B513029A181304AD
:100580009A1800F00EF810BD01E004C0091F0429FC
:10059000FBD28B0701D50280801CC90700D00270F6
:1005A000704700290BD0C30702D00270401C491EBF
:1005B000022904D3830702D50280801C891EE3E749
:1005C0000022EEE70022DFE7002203098B422CD352
:1005D000030A8B4211D300239C464EE003460B4393
:1005E0003CD4002243088B4231D303098B421CD3F5
:1005F000030A8B4201D394463FE0C3098B4201D3E7
:10060000CB01C01A524183098B4201D38B01C01A1E
:10061000524143098B4201D34B01C01A5241030995
:100620008B4201D30B01C01A5241C3088B4201D344
:10063000CB00C01A524183088B4201D38B00C01AF1
:10064000524143088B4201D34B00C01A5241411A18
:1006500000D201465241104670475DE0CA0F00D0FB
:100660004942031000D34042534000229C460309F4
:100670008B422DD3030A8B4212D3FC22890112BA7A
:10068000030A8B420CD3890192118B4208D3890152
:1006900092118B4204D389013AD0921100E089096A
:1006A000C3098B4201D3CB01C01A524183098B424B
:1006B00001D38B01C01A524143098B4201D34B0134
:1006C000C01A524103098B4201D30B01C01A524197
:1006D000C3088B4201D3CB00C01A524183088B421E
:1006E00001D38B00C01A5241D9D243088B4201D3A7
:1006F0004B00C01A5241411A00D201466346524192
:100700005B10104601D34042002B00D54942704790
:1007100063465B1000D3404201B50020C046C0468E
:1007200002BD704770477047FFB504460D4681B063
:10073000243000902168880604D51022E069914396
:10074000216000E00120A84201DD471B00E00027F6
:100750000498A1697A191018081AA0612078C006B7
:1007600002D42046C046C046002608E003986268CE
:10077000A168805D9047206A401C761C2062049826
:100780008642F3DB2078C0060AD52046C046C04624
:1007900006E06268A16830209047206A401C206211
:1007A00038467F1E0028F4DC07E000986268A168E4
:1007B000405D9047206A401C206228466D1E00283C
:1007C000F3DC2046C046C0462078000602D5022051
:1007D00005B0F0BD0120FBE7084B70B50D467B442A
:1007E00000F02BF80446284601F086F8002802D0D5
:1007F0000020C04370BD204670BD00001D110000E8
:1008000001468008081A02091018020A1018020C82
:100810001018C008820012185200891A01E0401C0A
:100820000A390A29FBD2704700487047C41B0020D0
:1008300001694A1C02610878704700B58FB00291C7
:1008400000210591054901937944039111460490D3
:100850006846FFF7A5FD0FB000BD0000E5FFFFFFF4
:1008600070477546FFF7E0FFAE4605006946534600
:10087000C008C000854618B020B5FFF7FFFC60BC7B
:1008800000274908B6460026C0C5C0C5C0C5C0C5BA
:10089000C0C5C0C5C0C5C0C5403D49008D467047F4
:1008A00010B50446C046C0462046FFF761FC10BDA7
:1008B00001491820ABBEFEE726000200C10F8A00E6
:1008C000044951184A68C306DB0E012098400243D0
:1008D0004A6070470002005002490A6802430A60F9
:1008E000704700000002005010B500F0A3FD014861
:1008F000006810BD1400002010B500F09BFD0148F9
:10090000006810BD1400002002480068C00700D035
:10091000014870470002005000366E01044800682C
:10092000800702D50120C0037047002070470000F7
:100930000002005010B588B0202209496846FFF730
:1009400067FC0848406B4407640F00F073FDA0008B
:100950006946095804480068FFF736FE08B010BD24
:100960001C2D0000000200501400002010B588B0BB
:10097000202209496846FFF74BFC0848446B702069
:10098000044000F057FDA00069460958044800687B
:10099000FFF71AFE08B010BD3C2D00000002005009
:1009A0001400002010B512494A6AD00301D5002076
:1009B00010BD5003830F0CD0800F01280BD00D48C1
:1009C00091049206890E920E5043491CFFF7FCFDDC
:1009D00010BD0948F4E70869000701D50748EFE7AB
:1009E0000868800401D50648EAE70648E8E7000001
:1009F0000002005000093D0000366E010051250242
:100A00000024F400001BB70010B50220FFF764FFBC
:100A1000022000F079F80028FAD00120FFF75CFFEF
:100A2000012000F071F80028FAD00820FFF754FFE9
:100A3000082000F069F80028FAD00021084600F0EC
:100A400029F8002211460E4800F036F8002211461F
:100A50000C4800F031F80121002249060A4800F054
:100A60002BF801210022C906084800F025F80F22C2
:100A7000FF2112020131064800F01EF810BD0000EF
:100A8000103D00AE913D00CE0C008CA70F00ACC70E
:100A9000023D84AE10B5074AD3691B091B010B4305
:100AA000D3611169090909010143116100F0C2FC18
:100AB00010BD00000002005070B5840A23061B0E12
:100AC0000CD003039B0F0F4D9B005B191D6886051F
:100AD000E4B2F60EB440A54315431D60420E120762
:100AE0000ED04200074B920F92000C3BD2181368B5
:100AF000C400240FC001C00E8440A3430B43136005
:100B000070BD00001C02005010B504460749084B98
:100B100005E00A46491E002A01DC002010BDDA6803
:100B200020469043F5D1012010BD000080F5200043
:100B30000002005010B512490020886011A000E0AA
:100B400014A0FFF7BDFB144800F0B0F90028F7D05F
:100B50007D20C00001F054FC0723032219460E48F3
:100B600000F068F9E12149020B4800F0D9F926218B
:100B7000094800F02EFA09A0FFF7A2FB10BD000003
:100B8000404200505761697420666F722043616D66
:100B9000657261002E000000EC000020646F776E2B
:100BA0000A000000097802688368D154416802692C
:100BB00091420DD24168491C416082680169491E19
:100BC0008A4202D28168491C00E00021816070479E
:100BD00082680169491E8A4202D28168491C00E08C
:100BE00000218160C2680169491E8A4202D2C1683F
:100BF000491C00E00021C16070470000FFB51E4C99
:100C000081B020681746006800900298FFF750FCFA
:100C1000054619480068026800998A4201680098F0
:100C200002D2081A401E00E0081A0499884202D92C
:100C3000002005B0F0BD002618E0002413E0314686
:100C4000019800F01BF801460298005D81420CD12A
:100C5000BD4201D2284600E03846611C884201D1DD
:100C60000120E6E7641CAC42E9D3761C0198406899
:100C7000801BA842CDD3E0E75400002010B50A46FF
:100C800001690446C0688018FFF79EFC2068405C3C
:100C900010BD002181604160C16070470D48016A4C
:100CA0004A070121002A03DA0B4A1170042202626A
:100CB000026A520404D5094A1170012292030262A9
:100CC00004484030026A120703D5054A1170082112
:100CD00001627047004000507C0000207D00002031
:100CE0007E00002010B58369140E8C40234383617D
:100CF000C3691202120A8A401343C36110BD000087
:100D0000F8B5264C01221146204600F04BF800228F
:100D10000421204600F046F80127BF03002239468F
:100D2000204600F03FF80122D103204600F03AF8B7
:100D30001A4D012240350421284600F033F80022E4
:100D40000821284600F02EF8606A042630436062CD
:100D5000606A38436062686A082108436862012259
:100D600002212046FFF7BEFF01220E212046FFF799
:100D7000B9FF012203212846FFF7B4FF08483321B9
:100D8000016060693043606105490120803108607D
:100D90000022CA630249C0318860F8BD004000509B
:100DA00080410050F0B5002301273C469C400C4296
:100DB00008D005685C000326A640B5431646A64049
:100DC000354305605B1C102BEFD3F0BD044603A038
:100DD000FFF776FA204601F08FF9FEE7496E2048CA
:100DE000617264204661756C742048616E646C6544
:100DF000720A0000034810210160090101604901E5
:100E00000160704700E100E010B5012803D0014601
:100E100001A0FFF755FA10BD43616D656E61206555
:100E2000727221210945525220434F4445203A20F5
:100E300025580A00FEB51D46019316460F4600923E
:100E40000B4604460022012100F0B8F82069FFF7A4
:100E500020FF062120461430E269029090470020CE
:100E600000900346019001220E21204600F0A6F8D2
:100E7000FA23062220690299FFF7C0FE00280AD053
:100E80006770A670E5702069FFF703FF216A0120F3
:100E900088470120FEBD0220FFF7B6FF2069FFF75B
:100EA000F8FE216A012088470020FEBD7CB50025A0
:100EB000044600952B462A460D21019500F07EF848
:100EC0002069FFF7E6FE062120461430E269064657
:100ED0009047E269062130469047002300951A4664
:100EE0000E212046019500F069F8002306223146C4
:100EF0002069FFF783FE002807D02069FFF7C9FEAD
:100F0000216A0120884701207CBD0120FFF77CFF7A
:100F10002069FFF7BEFE216A0120884700207CBDC2
:100F2000FEB50446E1208003FFF74EFB450802268C
:100F3000F00101E06D0876008542FBD8701EC3B257
:100F40000027681EC2B2009707212046019700F0D3
:100F500035F82069FFF79DFE062120461430E2692E
:100F6000029090470097002307220E212046019708
:100F700000F024F8FA23062220690299FFF73EFECA
:100F8000002810D0E12029468003FFF71DFB3146E1
:100F9000FFF71AFBE0602069FFF77BFE216A012062
:100FA00088470120FEBD0520FFF72EFF2069FFF7CF
:100FB00070FE216A012088470020FEBD70B5AA2678
:100FC000059D049C067541758275C375047645764A
:100FD00070BDFEB50446080A0D460026CBB200904F
:100FE0000822062101962046FFF7E8FF2069FFF757
:100FF00050FE062120461430E269074690470096CD
:10100000002306220E2120460196FFF7D7FFFA2380
:10101000062239462069FFF7F1FD002808D0258116
:101020002069FFF736FE216A012088470120FEBDB6
:101030000720FFF7E9FE2069FFF72BFE216A012058
:1010400088470020FEBD00000E4988690E4A104303
:10105000886105200007826B11231A438263826B2B
:101060001B041A4382630A68084B1A430A60016B27
:10107000074A11430163016B0163416B4163816B5B
:101080008163704740000050007700771111000025
:1010900000606606F8B50446314D3048286029687E
:1010A000012903D0286028680128FCD1002C46D0F3
:1010B000E069002844D000F057F86869012108432E
:1010C00068617D2021680001081A0A21FFF77CFA77
:1010D0000E04000506430A216068FFF775FA000355
:1010E00030430E0206430A21A068FFF76DFA0001A3
:1010F00030431C4E0143316000F036F830682861FF
:101100000A212069FFF760FA0F04000507430A214E
:101110006069FFF759FA000338430F0207430A21B9
:10112000A069FFF751FA000138430143316000F034
:101130001BF83068E86000F017F8E068A861F8BDB7
:1011400000F012F86869400840006861206A0228CF
:10115000B7D1206914302061B3E700005713EBA525
:10116000008000402000002004490548416042689A
:10117000D203FBD54168C901FCD4704765A90000C2
:101180000080004010B50548FFF798FB0448FFF7C2
:1011900081FF002000F006F810BD000001000CE007
:1011A0005800002000B50346FFF7DEFF03490A6B35
:1011B000D208D2001A430A6300BD0000008000403C
:1011C00010B5029C202B00D10023DB000B431343FE
:1011D0000360214600F024F810BD000038B50B482C
:1011E000FFF76CFB0A48FFF769FB0A4C082304224F
:1011F000002109480094FFF7E3FF0823042200219F
:1012000006480094FFF7DCFF38BD00000C008CA7F7
:101210000F00ACC740420F000000034000001E401A
:10122000F8B5364C0E460546334F3549354A6310FE
:101230003548BD4216D14769BF01BF0F012F05D008
:101240004769BF01BF0F04D0476918E0FFF754FB9F
:1012500001E0FFF7A7FB044635E00068400731D501
:10126000144630E0294FBD4212D18769BF01BF0F3C
:10127000012FEBD08769BF01BF0FEAD08769BF019B
:10128000BF0F022F1FD004692407E6D50C461AE0D1
:101290001F4FBD420AD147693F01BF0F012FD5D073
:1012A00047693F01BF0FD4D0476909E087693F0113
:1012B000BF0F012FCAD087693F01BF0FC9D087690F
:1012C0003F01DDE71C46A64200D92646002E11D07C
:1012D00031462046FFF778F9401EFF2800D9FF204D
:1012E000A968090A09020143A960411C2046FFF7C9
:1012F0006BF9F8BD0020F8BD0000034000366E0118
:10130000005125020024F4000002005000001340A8
:1013100000000D407047000006498A695205FCD460
:1013200008600A2804D188694005FCD40D200860B3
:10133000704700000000054010B5154C20694007BB
:10134000400F0FD001280FD0022810D0032811D051
:10135000042811D00F48E1690907090F491CFFF75C
:1013600033F910BD0C48F6E70120C003F3E700F0A5
:101370001DF8F0E70948EEE72069000701D50848A5
:10138000E9E72068800401D50648E4E70648E2E77B
:101390000002005000093D0000366E0110270000D9
:1013A000005125020024F400001BB70010B51249BB
:1013B0004A6AD00301D5002010BD5003830F0CD022
:1013C000800F01280BD00D4891049206890E920ED1
:1013D0005043491CFFF7F8F810BD0948F4E70869C5
:1013E000000701D50748EFE70868800401D50648E3
:1013F000EAE70648E8E700000002005000093D0067
:1014000000366E01005125020024F400001BB700D5
:1014100010B5FEF7D5FE044601F020FB002803D0EE
:1014200001200349000748602046FEF7CDFE10BDAD
:1014300000ED00E010B5FFF77FFF044C0449206089
:101440004A108018FFF7C0F8606010BD140000203B
:1014500040420F000A48826802210A4382600A4B18
:10146000084A5A60094A126AFF231B049A43084B30
:101470001A43084B1A6382688A43826070470000EF
:101480000002005065A900000080004000010050EB
:101490000030B000C08100401FB525491EC903942B
:1014A0006C460EC4234A2449904205D148690A6A11
:1014B0004005400F120A16E0204A904206D14869C2
:1014C0000A6A4004400F1204140F0EE01C4A9042B6
:1014D000886904D140050A6A400F120C03E04004F9
:1014E0000A6A400F120D1407240F641C042803D24B
:1014F00081006846405805E0042808D0052814D02B
:10150000FFF7FAF92146FFF75FF804B010BD08694C
:10151000000702D521460B48F5E7086821468004FC
:1015200001D50948EFE70948EDE721460848EAE711
:101530005C2D00000000014000020050000101404D
:1015400000001140005125020024F400001BB700E8
:1015500000093D00F7B517460646FFF79DFF044614
:1015600000254008B84201D2022008E009498C4217
:1015700001D90125044639462046FFF725F8B06019
:101580007560019931606D1C684301462046FFF784
:101590001BF8FEBDFFFFFF0010B50748FFF78EF9EF
:1015A000064C082210212046FFF7D4FFE1680122F3
:1015B0001143E16010BD0000023D84AE0000014017
:1015C00001490120086170470000014038B5134C03
:1015D0002169C80608D40DE00122694600F06EF8C2
:1015E00069460F48FFF7DEFAA16920468907F3D55F
:1015F00010210FE0C80708D138BD0122694600F06C
:101600005DF869460648FFF7CDFAA16920468907CB
:10161000F3D5012100F006F838BD000000001540A8
:101620001C0100204A0703D5702282610122426119
:101630000A0704D5C26901239B041A43C2618A06C2
:1016400002D5FF22023282614A0601D540220261A0
:101650000A0601D506224261C90501D5382141613A
:101660007047C2680A43C2607047000070B50E46FA
:10167000044600F0E3F8054660680C21884360608A
:101680000020A0630320A060002E13D07008401932
:101690003146FEF799FF0849401E884209D9F000FB
:1016A00040193146FEF790FF01210009C907401E8D
:1016B0000843606270BD0000FFFF000070B5044683
:1016C00000200125AD070CE0002304E05B1CAB42C9
:1016D00001D3002070BDA669B607F7D423680B5468
:1016E000401C9042F0D370BD70B52848FFF7E6F873
:1016F0002748FFF7E3F8E125264C6D0229462046EE
:10170000FFF7B4FF2946244D2846FFF7AFFFA16835
:10171000032000020143A160A9680143A960FF21E1
:10172000204600F081F8FF21284600F07DF81121C5
:101730002846FFF796FFFFF7D7F8014617A0FEF7F8
:10174000BFFDFFF7D9F8014619A0FEF7B9FDFFF775
:10175000DBF801461BA0FEF7B3FDFFF7DFF80146FB
:101760001DA0FEF7ADFDFFF7E5F801461FA0FEF74F
:10177000A7FDFFF7FBF8014621A0FEF7A1FDFFF74B
:1017800011F9014623A0FEF79BFD70BD103D00AE90
:10179000913D00CE0000054000001540435055200B
:1017A000467265712020203A202564487A0A00009C
:1017B00048434C4B204672657120203A20256448EE
:1017C0007A0A000048585420467265712020203A59
:1017D000202564487A0A00004C58542046726571EE
:1017E0002020203A202564487A0A000050434C4BC0
:1017F000302046726571203A202564487A0A00003C
:1018000050434C4B312046726571203A2025644884
:101810007A0A0000504C4C20467265712020203A14
:10182000202564487A0A0000026A520A52020A43DA
:101830000262C16810221143C160704710B51C4B91
:10184000002201241B49984206D148694207C86911
:10185000520F0005040F08E0174B984206D1886923
:101860004207C869520F0004040F641C002A0AD002
:10187000012A0AD0022A0BD0032A0CD00F48214695
:10188000FEF7A2FE10BD0E48F9E70120C003F6E7FF
:10189000FFF78CFDF3E70869000701D50948EEE77B
:1018A0000868800401D50848E9E70848E7E7000030
:1018B00000000540000200500000154000093D00F6
:1018C00000366E01005125020024F400001BB70011
:1018D00030B47446641E2578641CAB4200D21D46A9
:1018E000635D5B00E31830BC184730380A2801D22A
:1018F00001207047002070470020C043704700B5AA
:101900000346FFF709FD184600BD00001CB559202D
:101910001621144C882202E0206021602260236896
:10192000012BF9D1FFF790FBFFF76EF8FFF7DCFE14
:10193000FFF728FCFFF7E4F9FFF750FCFFF72CFE58
:10194000FFF758FA0020206007490120019100901C
:101950000023802205A1074801F042F800F0DCFDD9
:1019600000201CBD0001005004000020626F6F7455
:1019700000000000A1210000F8B5134E0F46F568E5
:1019800004463068001D00F079FC601C07D1002F70
:1019900005D031680D48091D00F0A9FCF8BD30687C
:1019A0002C1944603168AC4204D2B06B091D00F0C0
:1019B00086FCF8BD706B091D00F081FCB06A8442A2
:1019C000F7D2B462F8BD000080000020240200209D
:1019D000F8B5054600F098FC2A4EB068401CB0608F
:1019E0003068294F002803D07069002827D02CE0E8
:1019F0003560B068012828D1002414206043C01944
:101A000000F04FFC641C052CF7D31F48643000F035
:101A100048FC1D48783000F044FC1B488C3000F036
:101A200040FC1948A03000F03CFC1748B43000F0EE
:101A300038FC1548643070631430B06305E03068DA
:101A4000E96AC06A884200D83560706A401C7062DA
:101A50002864E86A3169884200D93061142148431A
:101A6000C019291D00F043FC00F05AFC70690028E1
:101A700006D03068E96AC06A884201D200F080FC72
:101A8000F8BD0000800000207001002010B500F0BB
:101A90003BFC0E4C2068002815D10D4800F001FCDD
:101AA0000B48143000F0FDFB0948E0601430206161
:101AB00000220C21052000F0B5FD2060002802D096
:101AC00004A100F069FC00F02BFC10BDBC0000205C
:101AD00038020020546D72510000000010B5026CF5
:101AE0000C46002A0CD0C1688B18C36081688B42F9
:101AF00001D2194601E00168C1602046FEF7FAFCF8
:101B000010BDF8B5856B174604460026026C002A06
:101B100011D0002F19D0E068FEF7ECFCE168206CD2
:101B2000091AE1602268914202D2A168081AE060B5
:101B3000022F17D019E02068002816D1A06800F005
:101B4000EBFF06460020A0600FE06068FEF7D2FCC5
:101B5000216C606840186060A168884205D32068E5
:101B6000606002E0002D00D06D1E6D1CA563304644
:101B7000F8BD10B50446006B00F0E0FB204600F015
:101B8000DDFB10BD0F480E49420705D0C01DC0083F
:101B90000C4AC000821A891A0B4B0022411805C357
:101BA0000839C908C900183B19604A600A600A1A56
:101BB00006C09A600120C0075A60D86070470000D4
:101BC0006419000060020020E40000200F4E104D58
:101BD0003746A03F11E000F097FBF068C468201D75
:101BE00000F04CFBA868401EA8606868401E686052
:101BF00000F096FB2046FFF7BCFF68680028EAD19A
:101C000038680128F9D900F0BBFBF6E71002002084
:101C100080000020FFB581B00E4691000C9C0F465D
:101C20000A9DA522206BFEF7A6FC206B3F1FC01962
:101C3000C708FF00780701D072B6FEE721462031C1
:101C4000002E0DD000202318325C20331A75325C30
:101C5000002A02D0401C0A28F5D30020487701E072
:101C600000200875052D00D30425E5620026E664F2
:101C7000201DA56400F020FB2046183000F01CFB5E
:101C800024610520401B6462A0612665542006552E
:101C90003846049A019900F01FFA20600B9800283A
:101CA00000D0046005B0F0BD30B5114900E0114628
:101CB0000A688242FBD34B685C18844203D14068B7
:101CC00018184860084643681C18944209D1084C0B
:101CD000103C2468A24209D052689A1842600A68EF
:101CE00012680260814200D0086030BD0460F9E7EC
:101CF000E400002070B5002441600B4D006191426A
:101D000006D8D11A8269914206D2011D286907E0DE
:101D10009A4203D2994201D3012403E0011DE868ED
:101D200000F0CDFA204670BDBC00002010B504467E
:101D300000F0EAFAA06B002804D0002400F0F0FACA
:101D4000204610BD0124F9E7F0B585B00125344ED9
:101D50005CE00198002859DB039C6069002802D0F0
:101D6000201D00F08BFA04A800F0C0F8024601988C
:101D70000300FFF7ADFD0A060606282E3F060628DB
:101D80002E4B27462037387A284338720298A169AB
:101D9000034641182046FFF7ADFF002836D0216AE0
:101DA00020468847387A400730D5002000900298B6
:101DB000A169002342181946204600F087FF002839
:101DC00024D172B6FEE72034207A40084000207209
:101DD0001CE020462030017A294301720298A0615C
:101DE000002805D0811813462046FFF783FF0DE039
:101DF00072B6FEE721462031087A820703D42046D6
:101E000000F09CFA02E0400840000872002201A99C
:101E1000306800F035FD00289BD105B0F0BD000012
:101E2000BC000020FEB50F46054600F09FFB01A850
:101E300000F05CF804460198002802D000F0D0FEC3
:101E4000FEBD214E002F10D030690068002838D028
:101E50000027291B3A46306800F0B0FA00F0C0FEB7
:101E60000028EDD100F08CFAFEBDA542F1D800F0BB
:101E7000B7FEF0682746C068C468201D00F0FEF970
:101E800021462031087A420714D5A0692B46411912
:101E90003A462046FFF72EFF00280ED000200346CA
:101EA000014600902A46204600F010FF002804D189
:101EB00072B6FEE7400840000872216A2046884753
:101EC000FEBD0127C5E70000BC0000200648416BAD
:101ED0000968002905D0416BC968C96849688162F1
:101EE00070470021C943FAE78000002070B505461D
:101EF00000F0AEFD064E0446B068844203D200F006
:101F000009F8012000E0002028602046B46070BD80
:101F1000BC000020F8B5174E21E0C068C468056811
:101F2000201D00F0ABF9216A204688472820005D7B
:101F3000400714D5A0694019A84206D92461606001
:101F4000211DF06800F0BBF909E0002003460146BE
:101F500000902A46204600F0B9FE002807D0F0681D
:101F600001680029D9D13169F1603061F8BD72B6DC
:101F7000FEE70000BC00002003480068401C72B669
:101F800000D0FEE7FEE70000D0000020094CE0682A
:101F90000168002908D00021002907D00020FFF7A0
:101FA00041FFFFF7D1FEF2E70121F5E7C0680068C5
:101FB000F5E70000BC000020F8B5044600F0A4F9E5
:101FC0002646403605257557274624370BE0606ABC
:101FD00000280AD0384600F0D1FD002801D000F0DA
:101FE0006BFA6D1E6DB2002DF1DC0027FF43777197
:101FF00000F096F900F088F9042575572046103056
:1020000000900BE0206900280AD0009800F0B6FD8F
:10201000002801D000F050FA6D1E6DB2002DF1DCE9
:10202000377100F07DF9F8BDF8B50546002600F0DF
:102030009DFA284F3868002801D1FFF7A3FDF86802
:1020400005423FD1002D3DD00835680708D068070C
:10205000400F0821081A4519680701D072B6FEE73B
:10206000002D2FD0786885422CD81A4910310846A7
:10207000046801E0214604466068A84202D2206854
:102080000028F7D1386884421CD00E6820680860A8
:1020900060680836411B102908D96019420701D031
:1020A00072B6FEE741606560FFF7FEFD6168786823
:1020B000401A7860BA68904200D2B860F86801436C
:1020C000002003C400F08CFD700701D072B6FEE75B
:1020D0003046F8BDD400002010B50124031F2406AB
:1020E0001C601B1F1960191F024B0B60143940380C
:1020F0000A6010BD791F000010B50446016810A0E9
:10210000FEF7DEF811A06168FEF7DAF812A0A16808
:10211000FEF7D6F813A0E168FEF7D2F814A0216903
:10212000FEF7CEF815A06169FEF7CAF816A0A169FE
:10213000FEF7C6F817A0E169FEF7C2F810BD00006F
:10214000723020203D20307825780A00723120201E
:102150003D20307825780A00723220203D203078EA
:1021600025780A00723320203D20307825780A0037
:10217000723132203D20307825780A006C722020A0
:102180003D20307825780A00706320203D2030788B
:1021900025780A00707372203D20307825780A0077
:1021A0001CB500F0B1F81449032001910090002300
:1021B000802212A1134800F013FC0F490220091DD0
:1021C00001910090002380220FA1114800F008FC2B
:1021D00009490120083101910090002380220DA1BE
:1021E0000E4800F0FDFB04480838406800F020F974
:1021F00000F096F81CBD0000080000207461736BAD
:1022000030000000212200007461736B3100000077
:102210003D2200007461736B320000005122000007
:10222000054C0125FF26F5362168694021603046BE
:1022300000F0E6F8F8E700000042005010B5FEF7A5
:1022400079FC0248C06800F0F3F810BD00000020DF
:10225000064CFF252168F53505A0FEF731F8284624
:1022600000F0CEF82168491C2160F5E7000000204D
:10227000636F756E74203A2025640A004368826893
:1022800001699A60836842685A604A68824201D153
:1022900082684A60002202610868401E086008687F
:1022A00070470146083100224160D243C16082601C
:1022B000016100210160704700210161704730B564
:1022C0000C68621C02D00246083202E0026904E097
:1022D0001A4653681D68A542FAD953684B60996045
:1022E0008A60516008610168491C016030BD426824
:1022F0004A6093688B6093685960916008610168D7
:10230000491C01607047000072B604480168491C0E
:102310000160BFF34F8FBFF36F8F7047D000002075
:1023200005490868002804D0401E086000D162B644
:10233000704772B6FEE70000D000002070B500289C
:102340001AD004460D4D083C6068E968084201D186
:1023500072B6FEE72268002A01D072B6FEE7884313
:10236000606000F003F960686968401868602046A2
:10237000FFF79AFC00F034FC70BD0000D400002090
:102380000120044900074860BFF34F8FBFF36F8FF0
:102390007047000000ED00E010B5074B0022D400AC
:1023A0001C59002C03D0521C082AF8D310BDD200AF
:1023B0009950D118486010BD3001002070B5154605
:1023C0000E460446FFF7A0FF204640300422825606
:1023D0000021521C00D1017105228256521C00D1ED
:1023E0004171FFF79DFFA06B002805D120462A46CA
:1023F0003146243000F078F82046FFF7DDFD70BD4F
:1024000010B502000FD00948006B002801D072B649
:10241000FEE700F0ABF800211046FFF7ADFA00F040
:10242000DFFB002801D1FFF7ABFF10BD80000020CB
:1024300070B50446FFF768FF194D002C00D12C68D9
:10244000201DFFF71BFFA06A002803D0204618308C
:10245000FFF714FF686A401C68622868844207D14D
:10246000211D1048FFF743FF6868401C686007E0C3
:10247000A868401EA8602046FFF77BFBFFF726FDFB
:10248000FFF74EFF6869002809D02868844206D10A
:10249000286B002801D072B6FEE7FFF771FF70BD10
:1024A000800000201002002002490A6A0260C96808
:1024B000416070478000002001490120C8617047D9
:1024C0008000002010B50C46002809D00549096895
:1024D0001831FFF7F4FE01212046FFF74DFA10BD39
:1024E00072B6FEE78000002070B514460D46002845
:1024F0000DD0084909681831FFF7F9FE002C01D00A
:102500000025ED4321462846FFF736FA70BD72B626
:10251000FEE70000800000201CB510480024019058
:1025200023463C220EA100940F4800F059FA0128DE
:1025300003D100F0ABFB012803D0401C0CD172B6D4
:10254000FEE772B600210548C9432C38816201219B
:102550004161C46000F03EF81CBD0000AC000020EA
:1025600049444C4500000000CD1B00000248016BAF
:10257000491C0163704700008000002010B5134B18
:10258000186B002802D00120D86110BD0020D8614E
:1025900018690F4902E0002815D0401E142242435A
:1025A0008A58002AF7D01422424351184A680C4630
:1025B000526808344A60A24201D152684A60D16828
:1025C0001960186110BD72B6FEE70000800000209F
:1025D0007001002070B50F48016AFF2212041143F8
:1025E0000162016A1202114301620B4C0025256150
:1025F000A5610A487D21C9000068FDF7E5FF401E7E
:1026000060610720206106480560FDF7C5FD0020D8
:1026100070BD000000ED00E000E000E014000020CC
:10262000D0000020F8B517460E46050016D0002E43
:1026300016D070435030FFF7F7FC04000CD0204652
:102640005030002E0ED02060266420460121E56324
:1026500000F00AF84C2007552046F8BD72B6FEE798
:102660000020E7E72460EFE770B50D46040026D0B0
:10267000FFF74AFE216CE06B484321684118A160D6
:102680000021A16321686160E06B216C401E48431A
:102690002168224641180020C0434032E160107199
:1026A000507120461030002D0BD0FFF7FAFD204668
:1026B0002430FFF7F6FDFFF733FE012070BD72B640
:1026C000FEE721690029F6D000F058FA0028F2D080
:1026D000FFF756FEEFE7FFB5002583B01E46044620
:1026E000002803D00498002802D006E072B6FEE766
:1026F000206C002801D072B6FEE7022E04D1E06BF8
:10270000012801D072B6FEE700F092F9002804D14A
:102710000598002801D072B6FEE7FFF7F5FDA06B23
:10272000E16B884207D3022E05D00598002817D008
:10273000002D18D01BE0324620460499FFF7E1F93E
:10274000616A002903D02046243000F017FA0028DF
:1027500001D0FFF715FEFFF7E3FD012007B0F0BD44
:10276000FFF7DEFD22E06846FFF79EFE0125FFF73A
:10277000D7FDFFF7FBFEFFF7C7FD204640300421E1
:102780004156491C00D1017105214156491C00D117
:102790004171FFF7C5FD05A9684600F0F3F8002870
:1027A00006D02046FFF708FC00F01AFA0020D5E713
:1027B000FFF7AAFDA06BE16B884201D1012700E081
:1027C0000027FFF7ADFD002F0ED0204610300599F1
:1027D000FFF778FE2046FFF7EFFB00F001FA002834
:1027E0009BD1FFF7CDFD98E72046FFF7E5FB00F012
:1027F000F7F992E7FFB581B01E46040003D00298B6
:10280000002802D006E072B6FEE7206C002801D056
:1028100072B6FEE7022E04D1E06B012801D072B639
:10282000FEE7FDF7CDFC0090A06BE16B884208D37A
:10283000022E06D000240098FDF7C6FC204605B005
:10284000F0BD204640300525455707463246204614
:102850000299FFF756F9681C03D06D1C7D710124A5
:10286000E9E7606A0028FAD02046243000F086F9B3
:102870000028F4D003980028F1D001210160EEE790
:10288000F7B5002582B00446002803D0039800283D
:1028900002D006E072B6FEE7206C002801D072B6C6
:1028A000FEE700F0C5F80026002804D104980028AF
:1028B00001D072B6FEE7FFF727FDA76B002F15D0FA
:1028C00020460399FFF70AF97F1EA76320690028B5
:1028D00007D02046103000F051F9002801D0FFF752
:1028E0004FFDFFF71DFD012005B0F0BD0498002845
:1028F00002D0002D03D006E0FFF712FD27E0684666
:10290000FFF7D2FD0125FFF70BFDFFF72FFEFFF7C5
:10291000FBFC2046403004214156491C00D1067181
:1029200005214156491C00D14671FFF7F9FC04A965
:10293000684600F027F8002820460AD0FFF73CFB45
:1029400000F04EF92046FFF7F1F90028B3D000203F
:10295000CAE7FFF7EBF900280ED02046243004998F
:10296000FFF7B0FD2046FFF727FB00F039F90028FC
:10297000A1D1FFF705FD9EE72046FFF71DFB00F004
:102980002FF998E7F8B50C46050012D0002C12D0AC
:10299000FFF7BAFC114EF1686B682068CA1A471C31
:1029A0000BD02F68366AB7420CD08B420AD801246C
:1029B00004E072B6FEE772B6FEE70024FFF7B0FC53
:1029C0002046F8BD904205D9801A20602846FFF7BE
:1029D0006BFDF2E700202060E9E7000080000020A6
:1029E000FFB585B0164690000F9FFFF71DFB050051
:1029F0001AD05820FFF718FB040012D025630021DD
:102A00000E9803910197009002943246089B069914
:102A10000598FFF7FFF82046FEF7DAFF012009B01E
:102A2000F0BD2846FFF78AFC0020C043F7E700000E
:102A300006484169002904D0006B002803D000201B
:102A4000704701207047022070470000800000207E
:102A50000148C0687047000080000020F8B52C4F86
:102A60000026386B002808D0B869401CB861F869A6
:102A7000002800D001263046F8BDFD686D1CFD60C1
:102A80000ED1786B0068002801D072B6FEE7786B33
:102A9000B96B7963B863386A401C3862FFF716FA7D
:102AA000B86A85420AD3786B0068002810D0786B2A
:102AB000C068C468606885420DD2B8623868142165
:102AC000C06A4843134908580128D0D90126CEE7E7
:102AD0000020C043F1E7201DFFF7D0FBA06A0028CB
:102AE00003D020461830FFF7C9FBE06A39698842F5
:102AF00000D938611421484306494018211DFFF7C9
:102B0000F6FBE06A3968C96A8842CCD30126CAE775
:102B1000800000207001002070B504460020002CC9
:102B200025D0144D29688C4201D072B6FEE7E16CC5
:102B300000291DD0491EE164A36CE26A9A4216D0B6
:102B4000002914D1201DFFF799FBA06C0521E0623C
:102B5000081AA061E06A2969884200D92861142115
:102B6000484305494018211DFFF7C1FB012070BDF6
:102B700072B6FEE7800000207001002070B5C068CA
:102B8000C468002C0BD0204618300646FFF776FBB1
:102B9000114D286B002804D0314610480FE072B662
:102BA000FEE7201DFFF76AFBE06A2969884200D929
:102BB00028611421484309498C394018211DFFF729
:102BC00096FBE06A2968C96A884202D90120E86157
:102BD00070BD002070BD000080000020FC010020BE
:102BE000F8B5284D0024286B2746002808D0FFF7A9
:102BF0008BFB286B401E2863286B002802D03CE02A
:102C000072B6FEE7A868012600281BD135E0C0682F
:102C1000C46820461830FFF731FB201DFFF72EFB5C
:102C2000E06A2969884200D928611421484316497D
:102C30004018211DFFF75BFBE06A2968C96A8842DA
:102C400000D3EE6110488C3001680029DFD1002CE0
:102C500001D0FFF73BF9AC69002C08D0FFF7FEFE6E
:102C6000002800D0EE61641EF8D10020A861E86958
:102C7000002802D00127FFF783FBFFF751FB3846FE
:102C8000F8BD000080000020700100201CB5FEF798
:102C9000FDFE0A48006800280CD008490220091DE2
:102CA000019100900023502205A10748FFF798FEEC
:102CB000002801D172B6FEE71CBD0000BC00002058
:102CC000546D7220537663008D1F0000FEB51D46C3
:102CD00003460020089E002B12D00F4C2768002FBF
:102CE0000DD068460EC006290FDAFFF7A1FE0228B4
:102CF00008D000231A4669462068FFF7ECFCFEBDA9
:102D000072B6FEE700233246F5E700232A466946FD
:102D10003846FFF76FFDFEBDBC000020010000003B
:102D20000200000004000000080000001000000085
:102D3000010000000100000001000000010000008F
:102D40000200000004000000080000001000000065
:102D500001000000010000000100000000366E01CB
:102D600000800000102700000000000030313233E6
:102D700034353637383941424344454640305800AF
:102D800030313233343536373839616263646566E1
:102D900040307800B42D000000000020EC0000005E
:102DA00004010000A02E0000EC0000203C220000E6
:102DB00020010000000000000000000000000000F2
:102DC0000000000000000000001BB7000C00000025
:102DD00000000000000000000000000000000000F3
:102DE00000000000000000000000000000000000E3
:102DF00000000000000000000000000000000000D3
:102E0000000000000000000000000000E4070000D7
:102E100001000000010000000000000000000000B0
:102E200000000000000000000100000000000000A1
:102E30000000000000000000000000000000000092
:102E40000000000000000000000000000000000082
:102E50000000000000000000000000000000000072
:102E60000000000000000000000000000000000062
:102E70000000000000000000000000000000000052
:102E800000000000AAAAAAAA00000000000000009A
:102E90000000000000000000000000000000000032
:0400000500000249AC
:00000001FF
