:020000040000FA
:1000000030160020D1010000F90100007D01000040
:1000100000000000000000000000000000000000E0
:10002000000000000000000000000000FD010000D2
:100030000000000000000000FF01000001020000BD
:10004000030200000302000003020000030200009C
:10005000ED0B00000302000003020000000000009E
:10006000C1120000030200000302000003020000AE
:1000700003020000CD120000030200000302000092
:10008000030200000302000003020000030200005C
:10009000030200000302000003020000030200004C
:1000A000030200000302000003020000030200003C
:1000B000030200000302000003020000030200002C
:1000C00000F002F800F04BF80CA030C808382418F3
:1000D0002D18A246671EAB4654465D46AC4201D180
:1000E00000F03DF87E460F3E0FCCB6460126334267
:1000F00000D0FB1AA246AB4633431847081800004D
:1001000028180000103A02D378C878C1FAD85207EC
:1001100001D330C830C101D504680C6070470000BD
:100120000023002400250026103A01D378C1FBD813
:10013000520700D330C100D50B60704710B5642959
:1001400002D100F08FF810BD782902D100F0C0F87C
:1001500010BD002010BD1FB51FBD10B510BD00F0B3
:10016000CCFA1146FFF7F7FF01F052FA00F0E4FA7B
:1001700003B4FFF7F2FF03BC00F0E6FA0420714677
:10018000084202D0EFF3098001E0EFF308807146E6
:10019000004A10471D0D000070B505460C46164676
:1001A00002E00FCC0FC5103E102EFAD2082E02D35B
:1001B00003CC03C5083E042E07D301CC01C5361F6E
:1001C00003E021782970641C6D1C761EF9D270BD85
:1001D0000F48104901601049016010490160104A40
:1001E00010491160104A11491160114880470848B0
:1001F000002101600F480047FEE7FEE7FEE7FEE74B
:10020000FEE7FEE70C480D490D4A0E4B7047000013
:100210000001005059000000160000008800000096
:1002200060000050A55A000014000050C0000000FB
:100230007D120000C10000003010002030160020A8
:1002400030120020301200200FB4054910B503AA67
:10025000029800F00DFA10BC08BC04B0184700006A
:100260000C000020F7B5002575291068009914A628
:1002700011D0C046C046002802DA404211A608E06C
:10028000009909688A0701D50FA602E0490704D53D
:100290000EA6012501E0C046C046009F0024243779
:1002A00004E000F0F9F930313955641C0028F8D128
:1002B0002B4632462146009800F082F9FEBD000030
:1002C000000000002D0000002B00000020000000B6
:1002D00070B504460D4621461068C046C0462188C8
:1002E000090502D50F4A7A4402E00E4A7A440E32DA
:1002F00023460021243305E006070009360F965DEA
:100300005E54491C0028F7D120780023000705D54A
:10031000702D03D0002901D002231132204600F0B5
:100320004FF970BDDE150000F3B50446002081B022
:1003300020622046E168884700287DD0252802D029
:100340006268A16883E0454F00257F442046E1684C
:1003500088472028064608DB312E06D2B8192038F7
:100360000078002801D00543F0E7A80701D5042054
:1003700085430020E0610746A0612A2E0AD030465E
:1003800001F036F9002827D0B8000019303E00905F
:10039000866119E00298BA00121902C891610290B0
:1003A0002046E1688847012F064617D1E0690028FA
:1003B0001FDA202085431CE000980A218069484309
:1003C00000998019303888612046E16888470646E0
:1003D00001F00EF90028EFD1012F0AD02E2E08D1FE
:1003E0002046E16888470646202005437F1C022FEF
:1003F000C3DBA069002803DA4042A0610120054365
:10040000E80701D010208543002E24D03046413823
:10041000192803D80120C002054320362046256054
:100420003146029A1546FFF789FE00280CD00128B4
:1004300007D0ED1DE80800E00DE0C0000830029094
:1004400077E72D1D029574E762683046A1689047F2
:10045000206A401C6CE7206AFEBD0000A215000067
:10046000002203098B422CD3030A8B4211D30023B1
:100470009C464EE003460B433CD4002243088B428B
:1004800031D303098B421CD3030A8B4201D3944618
:100490003FE0C3098B4201D3CB01C01A524183090B
:1004A0008B4201D38B01C01A524143098B4201D3C5
:1004B0004B01C01A524103098B4201D30B01C01AF0
:1004C0005241C3088B4201D3CB00C01A524183086A
:1004D0008B4201D38B00C01A524143088B4201D397
:1004E0004B00C01A5241411A00D2014652411046F7
:1004F00070475DE0CA0F00D04942031000D340426C
:10050000534000229C4603098B422DD3030A8B42A1
:1005100012D3FC22890112BA030A8B420CD389013F
:1005200092118B4208D3890192118B4204D3890125
:100530003AD0921100E08909C3098B4201D3CB0163
:10054000C01A524183098B4201D38B01C01A524118
:1005500043098B4201D34B01C01A524103098B421C
:1005600001D30B01C01A5241C3088B4201D3CB0007
:10057000C01A524183088B4201D38B00C01A5241EA
:10058000D9D243088B4201D34B00C01A5241411AC1
:1005900000D20146634652415B10104601D34042EF
:1005A000002B00D54942704763465B1000D34042A0
:1005B00001B50020C046C04602BD70477047704775
:1005C000FFB504460D4681B02430009021688806AE
:1005D00004D51022E0699143216000E00120A84287
:1005E00001DD471B00E000270498A1697A19101863
:1005F000081AA0612078C00602D42046C046C04632
:10060000002608E003986268A168805D9047206A30
:10061000401C761C206204988642F3DB2078C006DA
:100620000AD52046C046C04606E06268A168302070
:100630009047206A401C206238467F1E0028F4DC68
:1006400007E000986268A168405D9047206A401CFE
:10065000206228466D1E0028F3DC2046C046C046B6
:100660002078000602D5022005B0F0BD0120FBE78E
:10067000084B70B50D467B4400F02BF80446284625
:1006800000F0BDFF002802D00020C04370BD20460E
:1006900070BD00008B0F000001468008081A020997
:1006A0001018020A1018020C1018C0088200121844
:1006B0005200891A01E0401C0A390A29FBD270470E
:1006C00000487047D00F002001694A1C0261087879
:1006D000704700B58FB00291002105910549019343
:1006E00079440391114604906846FFF71DFE0FB050
:1006F00000BD0000E5FFFFFF70477546FFF7E0FF14
:10070000AE46050069465346C008C000854618B08D
:1007100020B5FFF777FD60BC00274908B6460026E4
:10072000C0C5C0C5C0C5C0C5C0C5C0C5C0C5C0C5A1
:10073000403D49008D46704710B50446C046C0464E
:100740002046FFF715FD10BD01491820ABBEFEE79E
:1007500026000200C10F8A00044951184A68C306E6
:10076000DB0E0120984002434A60704700020050AF
:1007700002490A6802430A60704700000002005004
:1007800010B500F06BFD0148006810BD04000020AA
:1007900010B500F063FD0148006810BD04000020A2
:1007A00002480068C00700D00148704700020050AE
:1007B00000366E0104480068800702D50120C0039E
:1007C00070470020704700000002005010B588B04C
:1007D000202209496846FFF7DFFC0848406B4407C0
:1007E000640F00F03BFDA00069460958044800680A
:1007F000FFF736FE08B010BD881800000002005058
:100800000400002010B588B0202209496846FFF78F
:10081000C3FC0848446B7020044000F01FFDA0009A
:100820006946095804480068FFF71AFE08B010BD71
:10083000A8180000000200500400002010B5124962
:100840004A6AD00301D5002010BD5003830F0CD09D
:10085000800F01280BD00D4891049206890E920E4C
:100860005043491CFFF7FCFD10BD0948F4E7086937
:10087000000701D50748EFE70868800401D506485E
:10088000EAE70648E8E700000002005000093D00E2
:1008900000366E01005125020024F400001BB70051
:1008A00010B5074AD3691B091B010B43D3611169BA
:1008B000090909010143116100F0D0FC10BD0000DD
:1008C0000002005070B5840A23061B0E0CD00303EF
:1008D0009B0F0F4D9B005B191D688605E4B2F60E59
:1008E000B440A54315431D60420E12070ED04200CE
:1008F000074B920F92000C3BD2181368C400240FD0
:10090000C001C00E8440A3430B43136070BD0000C0
:100910001C02005006490968484306494861002204
:100920008A61052008610869C003FCD50A61704727
:100930000800002000E000E010B504460749084B1D
:1009400005E00A46491E002A01DC002010BDDA68D5
:1009500020469043F5D1012010BD000080F5200015
:10096000000200507D2110B5C900484300F066F830
:1009700010BD000070B5044601460122054800F094
:1009800017FD0546044821460068006900F072F82A
:10099000284670BD000015401C0000200A4610B516
:1009A0000146024800F024FD10BD00000000154083
:1009B00010B50220FFF7DCFE0220FFF7BDFF002884
:1009C000FAD00120FFF7D4FE0120FFF7B5FF002881
:1009D000FAD00820FFF7CCFE0820FFF7ADFF002873
:1009E000FAD000210846FFF75BFF002211460E48AF
:1009F000FFF768FF002211460C48FFF763FF012153
:100A0000002249060A48FFF75DFF01210022C906BE
:100A10000848FFF757FF0F22FF2112020131064855
:100A2000FFF750FF10BD0000103D00AE913D00CE1D
:100A30000C008CA70F00ACC7023D84AE70B5044615
:100A4000FFF79EFE0A49FFF70BFD01460120000655
:100A5000FFF706FD0546AC4205D92846FFF75AFFC9
:100A6000641BF8D170BD2046FFF754FF70BD000035
:100A700040420F00C36802689A4211D2436802697B
:100A80000978D1540168491C0160C2684168521E4E
:100A9000914201D2491C00E00021416001207047D1
:100AA00000207047FFB5274883B00C9E0768039865
:100AB0000599C068884243D3401A984200D2034641
:100AC0000693B3423CD388190090039800990068BC
:100AD000884227D3401A0699891B814200D80846CC
:100AE000002502901BE005980024401901900EE0BB
:100AF00001980119039800F051F80499095D8842A2
:100B000004D00E98002804D0002902D1641CB442FD
:100B1000EED3B44202D1012007B0F0BD6D1C0298A3
:100B20008542E0D90748016800688F4202D9C01B9E
:100B3000401E00E0C01B0D99884201D80029C4D195
:100B40000020E9E71000002070B50C0005460CD02D
:100B5000142000F027FE00280AD000210160416027
:100B6000C5608160002C08D009E028461430F0E709
:100B700004A0FFF769FB002070BD04461434046133
:100B800070BD00004572726F7220416C6C6F632003
:100B90006D656D65727921210A00000010B50A4665
:100BA0000446C16880688018FFF75AFC2069405CE1
:100BB00010BD0021416001608160704730B50A4D71
:100BC0002B682C68A3422C6802D9E41A641E00E04A
:100BD000E41A944206D804688C4201D3012030BD47
:100BE000002AEED1002030BD100000200D48016A1F
:100BF0004A070121002A03DA0B4A1170042202621B
:100C0000026A520404D5094A117001229203026259
:100C100004484030026A120703D5054A11700821C2
:100C200001627047004000501400002015000020B1
:100C30001600002010B58369140E8C402343836195
:100C4000C3691202120A8A401343C36110BDF0B592
:100C5000002301273C469C400C4208D005685C00FC
:100C60000326A640B5431646A640354305605B1CE7
:100C7000102BEFD3F0BD0000F8B5264C0122114631
:100C80002046FFF7E4FF002204212046FFF7DFFFA4
:100C90000127BF03002239462046FFF7D8FF012273
:100CA000D1032046FFF7D3FF1A4D0122403504211E
:100CB0002846FFF7CCFF002208212846FFF7C7FF90
:100CC000606A042630436062606A38436062686A22
:100CD000082108436862012202212046FFF7AAFF8B
:100CE00001220E212046FFF7A5FF012203212846FD
:100CF000FFF7A0FF0848332101606069304360615D
:100D000005490120803108600022CA630249C031D0
:100D10008860F8BD0040005080410050044603A0A8
:100D2000FFF792FA204600F0E9FCFEE7496E204802
:100D3000617264204661756C742048616E646C65F4
:100D4000720A000003481021016009010160490195
:100D50000160704700E100E0FEB50446174638A088
:100D600005C8002501920090002C37D06A46117109
:100D7000080A50712069FFF71CFF626A0621684665
:100D80009047FA2204212069FFF718FF00284FD06E
:100D900000212069FFF702FF69460979884247D19F
:100DA00001212069FFF7FAFE6946497988423FD15F
:100DB00002212069FFF7F2FE064603212069FFF7B2
:100DC000EDFE00020643204AB11D2069FFF7F6FE42
:100DD00000282DD00020311D226907E00020FEBD33
:100DE00013691B5C5B19401C9DB280B28842F7D32B
:100DF000311D1046FFF7D2FEE9B2884218D1711DAD
:100E00002069FFF7CBFE290A884211D1002505E0B1
:100E1000291DFFF7C3FE78556D1CADB22069B542A0
:100E2000F6D3FFF7C6FEE16A012088473046FEBDD3
:100E30002069FFF7BEFEE16A01208847CEE7000087
:100E4000AA0E000000000000B80B0000F0B504007E
:100E50000D462DA003C887B0059006912CA003C8AD
:100E6000049103904ED0684685752069FFF7A1FE76
:100E7000626A062105A89047FF2606270020F5365E
:100E80000097019602903B46002203A92069FFF7D4
:100E900009FE002834D00A2069464873E07E887332
:100EA000012000970196029006231A4603A92069A3
:100EB000FFF7F8FD06001CD0E57609212069FFF751
:100EC0006DFE05460A212069FFF768FE0002054312
:100ED0000B212069FFF762FE00040543E5612189CB
:100EE0002846891FFFF7BCFA2062002901D0401C68
:100EF00020622069FFF75DFEE16A012088473046E5
:100F000007B0F0BD0020FBE7AA04000000000000CD
:100F1000AA0E040000000000FFB504000F4619A04F
:100F200003C887B00390049118A003C81646069121
:100F3000059025D06946CF730E740A9848742069CD
:100F4000FFF737FE626A062103A89047FF210022BF
:100F5000F53106206B4607C3062305A92069FFF774
:100F6000A1FD050003D0A770E6700A9820712069E2
:100F7000FFF71FFEE16A0120884728460BB0F0BD4D
:100F80000020FBE7AA01000000000000AA0E0100FB
:100F900000000000F8B507461C4615460E463020F6
:100FA00000F000FC002805D00780066145628462DD
:100FB0000699C162F8BD000030B5040015A003C851
:100FC00087B00390049115A003C8069105901FD027
:100FD0002069FFF7EEFD626A062103A89047626A66
:100FE000062103A89047FF210022F53106206B4619
:100FF00007C30C2305A92069FFF754FD05462069A6
:10100000FFF7D7FDE16A01208847284607B030BDC9
:101010000020FBE7AA0D000000000000AA0E0D0052
:101020000000000070B504000D4618A003C888B089
:101030000390049117A003C80691059023D0694638
:10104000CD73280A08742069FFF7B3FD626A062190
:1010500003A89047FF210022F53106206B4607C305
:10106000062305A92069FFF71DFD060000D0258194
:101070002069FFF79EFDE16A01208847002E02D01B
:10108000012008B070BD0020FBE70000AA060800A0
:1010900000000000AA0E060000000000F0B50400E9
:1010A0000F4619A003C887B00390049118A003C885
:1010B00015460691059025D069468F73CD73280A91
:1010C00008742069FFF775FD626A062103A890473E
:1010D000FF210022F53106206B4607C3062305A930
:1010E0002069FFF7DFFC060001D06771E580206909
:1010F000FFF75FFDE16A01208847002E02D0012042
:1011000007B0F0BD0020FBE7AA05000000000000CA
:10111000AA0E0500000000000E4988690E4A10431F
:10112000886105200007826B11231A438263826B5A
:101130001B041A4382630A68084B1A430A60016B56
:10114000074A11430163016B0163416B4163816B8A
:101150008163704740000050007700771111000054
:101160000060660606498A695205FCD408600A28B0
:1011700004D188694005FCD40D2008607047000048
:101180000000054010B5154C20694007400F0FD0F6
:1011900001280FD0022810D0032811D0042811D024
:1011A0000F48E1690907090F491CFFF759F910BDFC
:1011B0000C48F6E70120C003F3E700F01DF8F0E764
:1011C0000948EEE72069000701D50848E9E72068EB
:1011D000800401D50648E4E70648E2E70002005033
:1011E00000093D0000366E01102700000051250265
:1011F0000024F400001BB70010B512494A6AD0035E
:1012000001D5002010BD5003830F0CD0800F0128A2
:101210000BD00D4891049206890E920E5043491C42
:10122000FFF71EF910BD0948F4E70869000701D56A
:101230000748EFE70868800401D50648EAE7064852
:10124000E8E700000002005000093D0000366E0192
:10125000005125020024F400001BB70010B5FFF771
:1012600091FF044C044920604A108018FFF7F8F8F9
:10127000606010BD0400002040420F000A488268F0
:1012800002210A4382600A4B084A5A60094A126ADC
:10129000FF231B049A43084B1A43084B1A638268C6
:1012A0008A438260704700000002005065A9000078
:1012B00000800040000100500030B000C0810040BC
:1012C00001490120086170470000014038B5104D08
:1012D0002869104CC10605D409E020680121826A02
:1012E00068469047A8698007F7D510210BE0C00732
:1012F00005D138BD20680121826A68469047A869F7
:101300008007F7D50121284600F006F838BD000017
:10131000000015401C0000204A0703D5702282619E
:10132000012242610A0704D5C26901239B041A43C2
:10133000C2618A0602D5FF22023282614A0601D5C5
:10134000402202610A0601D506224261C90501D583
:10135000382141617047C2680A43C260704700008B
:1013600070B50E46044600F0F9F8054660680C2199
:10137000884360600020A0630320A060002E13D08B
:10138000700840193146FFF76BF80849401E884243
:1013900009D9F00040193146FFF762F80121000930
:1013A000C907401E0843606270BD0000FFFF0000D7
:1013B00070B5044600200125AD070CE0002304E0D1
:1013C0005B1CAB4201D3002070BDA669B607F7D401
:1013D00023680B54401C9042F0D370BD026A520A3D
:1013E00052020A430262C16810221143C160704771
:1013F00070B5044600200125AD070CE0002304E091
:101400005B1CAB4201D3002070BDA669B605F7D5C1
:101410000B5C2360401C9042F0D170BD70B5284831
:10142000FFF798F92748FFF795F9E125264C6D025B
:1014300029462046FFF794FF2946244D2846FFF70A
:101440008FFFA168032000020143A160A968014346
:10145000A960FF212046FFF7C1FFFF212846FFF7C3
:10146000BDFF11212846FFF776FFFFF789F90146F6
:1014700017A0FEF7E9FEFFF78BF9014619A0FEF76A
:10148000E3FEFFF78DF901461BA0FEF7DDFEFFF737
:1014900091F901461DA0FEF7D7FEFFF797F9014627
:1014A0001FA0FEF7D1FEFFF7ADF9014621A0FEF720
:1014B000CBFEFFF7C3F9014623A0FEF7C5FE70BDC2
:1014C000103D00AE913D00CE0000054000001540EB
:1014D00043505520467265712020203A20256448EB
:1014E0007A0A000048434C4B204672657120203A2E
:1014F000202564487A0A00004858542046726571D5
:101500002020203A202564487A0A00004C585420B4
:10151000467265712020203A202564487A0A00002E
:1015200050434C4B302046726571203A2025644868
:101530007A0A000050434C4B312046726571203AC4
:10154000202564487A0A0000504C4C204672657190
:101550002020203A202564487A0A000010B51C4B50
:10156000002201241B49984206D148694207C869F4
:10157000520F0005040F08E0174B984206D1886906
:101580004207C869520F0004040F641C002A0AD0E5
:10159000012A0AD0022A0BD0032A0CD00F48214678
:1015A000FEF75EFF10BD0E48F9E70120C003F6E725
:1015B000FFF722FEF3E70869000701D50948EEE7C7
:1015C0000868800401D50848E9E70848E7E7000013
:1015D00000000540000200500000154000093D00D9
:1015E00000366E01005125020024F400001BB700F4
:1015F00030380A2801D201207047002070470020AF
:10160000C043704700B50346FFF7ACFD184600BD68
:1016100008B5592116232E48882202E00160036094
:1016200002600468012CF9D1FFF776FDFFF7C0F9DD
:10163000FFF7F4FEFFF720FB0021A002FFF784FA7A
:101640002449264B0860244900910146244A012080
:10165000FFF7A0FC234D244C28600120A060234EFE
:101660003046FFF7EBF90020A0603046FFF7E6F9BF
:10167000FFF768FB2868FFF79FFC07230322194642
:101680002868FFF749FC3046FFF7D8F900221146D9
:101690002868FFF703FD7D21C9002868FFF7C2FC19
:1016A00001212868FFF7D2FB0024114E114F0AE0F8
:1016B000A1B2114AFFF750FB308002460E4938466E
:1016C000FFF796FE641C2868016AA142F0D8FEE785
:1016D0000001005018000020650900007509000095
:1016E0009D0900001C0000204042005040420F00B5
:1016F00000000020000005403000002010B5044626
:10170000016810A0FEF7A0FD11A06168FEF79CFD26
:1017100012A0A168FEF798FD13A0E168FEF794FD02
:1017200014A02169FEF790FD15A06169FEF78CFDFC
:1017300016A0A169FEF788FD17A0E169FEF784FDF8
:1017400010BD0000723020203D20307825780A003E
:10175000723120203D20307825780A007232202016
:101760003D20307825780A00723320203D203078E3
:1017700025780A00723132203D20307825780A0021
:101780006C7220203D20307825780A00706320207C
:101790003D20307825780A00707372203D20307823
:1017A00025780A00F8B50024234F05460094786890
:1017B0002646002801D100F041F8680702D0ED1D4F
:1017C000ED08ED001C4A28460832083084461A48C5
:1017D0001168476817E04868A84209D116480368AD
:1017E0005B1B083B03600846096808301160F8BDC0
:1017F000604506D3002C02D06368984201D20C46A3
:1018000016460A460968B942E5D1002C11D00A48AB
:101810000168491B083901602046083000906019B2
:10182000216881606168491B0839C16008306560C2
:1018300030600098F8BD000020000020104810B56E
:101840000E49420705D0C01DC0080D4AC000821ACB
:10185000891A0C4A002413461160083311C3083951
:101860004018506004605068083B44601868516834
:101870000160091A0839416010BD0000B80B000072
:1018800018040020200000200100000002000000D9
:10189000040000000800000010000000010000002B
:1018A0000100000001000000010000000200000033
:1018B000040000000800000010000000010000000B
:1018C000010000000100000030313233343536377A
:1018D0003839414243444546403058003031323374
:1018E0003435363738396162636465664030780074
:1018F00004000008000000000000000200010000D9
:10190000100000002419000000000020300000003A
:1019100004010000541900003000002000160000EF
:101920002001000000000000001BB7000C000000B8
:1019300000000000000000000000000000000000A7
:101940000000000000000000000000000000000097
:041950000000000093
:04000005000001D125
:00000001FF
