:020000040000FA
:1000000068230020D1010000F90100007D010000FB
:1000100000000000000000000000000000000000E0
:10002000000000000000000000000000FD010000D2
:100030000000000000000000FF01000001020000BD
:10004000030200000302000003020000030200009C
:10005000D1090000030200000302000000000000BC
:10006000E90B00000302000003020000030200008D
:1000700003020000F50B0000030200000302000071
:10008000030200000302000003020000030200005C
:10009000030200000302000003020000030200004C
:1000A000030200000302000003020000030200003C
:1000B000030200000302000003020000030200002C
:1000C00000F002F800F04BF80CA030C808382418F3
:1000D0002D18A246671EAB4654465D46AC4201D180
:1000E00000F03DF87E460F3E0FCCB6460126334267
:1000F00000D0FB1AA246AB4633431847AC120000AF
:10010000CC120000103A02D378C878C1FAD852074E
:1001100001D330C830C101D504680C6070470000BD
:100120000023002400250026103A01D378C1FBD813
:10013000520700D330C100D50B60704710B5642959
:1001400002D100F08FF810BD782902D100F0C0F87C
:1001500010BD002010BD1FB51FBD10B510BD00F0B3
:10016000B8FA1146FFF7F7FF00F0D6FE00F0D0FA1C
:1001700003B4FFF7F2FF03BC00F0D2FA042071468B
:10018000084202D0EFF3098001E0EFF308807146E6
:10019000004A1047190A000070B505460C4616467D
:1001A00002E00FCC0FC5103E102EFAD2082E02D35B
:1001B00003CC03C5083E042E07D301CC01C5361F6E
:1001C00003E021782970641C6D1C761EF9D270BD85
:1001D0000F48104901601049016010490160104A40
:1001E00010491160104A11491160114880470848B0
:1001F000002101600F480047FEE7FEE7FEE7FEE74B
:10020000FEE7FEE70C480D490D4A0E4B7047000013
:100210000001005059000000160000008800000096
:1002200060000050A55A000014000050C0000000FB
:10023000A50B0000C1000000680300206823002017
:1002400068130020681300200FB4054910B503AAF5
:10025000029800F0F9F910BC08BC04B0184700007F
:1002600008000020F7B5002575291068009914A62C
:1002700011D0C046C046002802DA404211A608E06C
:10028000009909688A0701D50FA602E0490704D53D
:100290000EA6012501E0C046C046009F0024243779
:1002A00004E000F0E5F930313955641C0028F8D13C
:1002B0002B4632462146009800F06DF9FEBD000045
:1002C000000000002D0000002B00000020000000B6
:1002D00070B504460D4621461068C046C0462188C8
:1002E000090502D50F4A7A4402E00E4A7A440E32DA
:1002F00023460021243305E006070009360F965DEA
:100300005E54491C0028F7D120780023000705D54A
:10031000702D03D0002901D002231132204600F0B5
:100320003AF970BD96100000F3B50446002081B084
:1003300020622046E168884700287AD0252802D02C
:100340006268A16871E0E16820460025884706469A
:100350000020E0610746A0612A2E0AD0304600F056
:10036000CBFD002827D0B8000019303E00908661F0
:1003700019E00298BA00121902C891610290204651
:10038000E1688847012F064617D1E06900281FDA87
:10039000202085431CE000980A2180694843009989
:1003A0008019303888612046E1688847064600F0A9
:1003B000A3FD0028EFD1012F0AD02E2E08D1204610
:1003C000E16888470646202005437F1C022FC3DBD7
:1003D000A069002803DA4042A06101200543E80734
:1003E00001D010208543002E23D0304641381928F3
:1003F00003D80120C002054320362046256031463F
:10040000029A1546FFF79AFE00280BD0012806D065
:10041000ED1DE808C000083002908AE709E02D1DB4
:10042000029586E762683046A1689047206A401CC2
:100430007EE7206AFEBD002203098B422CD3030A0B
:100440008B4211D300239C464EE003460B433CD421
:10045000002243088B4231D303098B421CD3030A89
:100460008B4201D394463FE0C3098B4201D3CB01B9
:10047000C01A524183098B4201D38B01C01A5241E9
:1004800043098B4201D34B01C01A524103098B42ED
:1004900001D30B01C01A5241C3088B4201D3CB00D8
:1004A000C01A524183088B4201D38B00C01A5241BB
:1004B00043088B4201D34B00C01A5241411A00D26B
:1004C00001465241104670475DE0CA0F00D04942D4
:1004D000031000D34042534000229C4603098B4244
:1004E0002DD3030A8B4212D3FC22890112BA030ACC
:1004F0008B420CD3890192118B4208D3890192114E
:100500008B4204D389013AD0921100E08909C309D2
:100510008B4201D3CB01C01A524183098B4201D3D4
:100520008B01C01A524143098B4201D34B01C01ABF
:10053000524103098B4201D30B01C01A5241C30837
:100540008B4201D3CB00C01A524183088B4201D3A6
:100550008B00C01A5241D9D243088B4201D34B00C1
:10056000C01A5241411A00D20146634652415B1003
:10057000104601D34042002B00D5494270476346E4
:100580005B1000D3404201B50020C046C04602BD0A
:10059000704770477047FFB504460D4681B0243060
:1005A00000902168880604D51022E06991432160FB
:1005B00000E00120A84201DD471B00E0002704986D
:1005C000A1697A191018081AA0612078C00602D40F
:1005D0002046C046C046002608E003986268A1682D
:1005E000805D9047206A401C761C206204988642F9
:1005F000F3DB2078C0060AD52046C046C04606E098
:100600006268A16830209047206A401C206238460A
:100610007F1E0028F4DC07E000986268A168405D56
:100620009047206A401C206228466D1E0028F3DC9B
:100630002046C046C0462078000602D5022005B0FC
:10064000F0BD0120FBE70000084B70B50D467B4470
:1006500000F02BF80446284600F055FC002802D094
:100660000020C04370BD204670BD0000BB080000E4
:1006700001468008081A02091018020A1018020C14
:100680001018C008820012185200891A01E0401C9C
:100690000A390A29FBD2704700487047040300203A
:1006A00001694A1C02610878704700B58FB0029159
:1006B0000021059105490193794403911146049065
:1006C0006846FFF731FE0FB000BD0000E5FFFFFFF9
:1006D00070477546FFF7E0FFAE4605006946534692
:1006E000C008C000854618B020B5FFF78BFD60BC80
:1006F00000274908B6460026C0C5C0C5C0C5C0C54C
:10070000C0C5C0C5C0C5C0C5403D49008D46704785
:1007100010B50446C046C0462046FFF729FD10BD6F
:1007200001491820ABBEFEE726000200C10F8A0077
:10073000044951184A68C306DB0E01209840024361
:100740004A6070470002005002490A6802430A608A
:10075000704700000002005010B500F013FA014885
:10076000006810BD0000002010B500F00BFA014831
:10077000006810BD0000002002480068C00700D0DB
:10078000014870470002005000366E0104480068BE
:10079000800702D50120C003704700207047000089
:1007A0000002005010B588B0202209496846FFF7C2
:1007B000F3FC0848406B4407640F00F0E3F9A00025
:1007C0006946095804480068FFF735FE08B010BDB7
:1007D00040130000000200500000002010B588B057
:1007E000202209496846FFF7D7FC0848446B70206F
:1007F000044000F0C7F9A0006946095804480068A1
:10080000FFF719FE08B010BD601300000002005091
:100810000000002010B512494A6AD00301D500201B
:1008200010BD5003830F0CD0800F01280BD00D4852
:1008300091049206890E920E5043491CFFF7FBFD6E
:1008400010BD0948F4E70869000701D50748EFE73C
:100850000868800401D50648EAE70648E8E7000092
:100860000002005000093D0000366E0100512502D3
:100870000024F400001BB70010B5074AD3691B0918
:100880001B010B43D361116909090901014311617E
:1008900000F078F910BD00000002005070B5840A25
:1008A00023061B0E0CD003039B0F0F4D9B005B19FF
:1008B0001D688605E4B2F60EB440A54315431D60DD
:1008C000420E12070ED04200074B920F92000C3BD3
:1008D000D2181368C400240FC001C00E8440A34383
:1008E0000B43136070BD00001C02005010B504469D
:1008F0000749084B05E00A46491E002A01DC002092
:1009000010BDDA6820469043F5D1012010BD0000EB
:1009100080F520000002005010B50220FFF714FF00
:100920000220FFF7E3FF0028FAD00120FFF70CFFB9
:100930000120FFF7DBFF0028FAD00820FFF704FFB3
:100940000820FFF7D3FF0028FAD000210846FFF760
:1009500093FF002211460E48FFF7A0FF0022114628
:100960000C48FFF79BFF0121002249060A48FFF7C8
:1009700095FF01210022C9060848FFF78FFF0F22CB
:10098000FF21120201310648FFF788FF10BD000069
:10099000103D00AE913D00CE0C008CA70F00ACC7FF
:1009A000023D84AE036942689A420FD283680268AE
:1009B0000978D1544168491C416002698168521E1E
:1009C000914201D2491C00E0002181607047000083
:1009D0000D48016A4A070121002A03DA0B4A117007
:1009E00004220262026A520404D5094A11700122EB
:1009F0009203026204484030026A120703D5054A96
:100A0000117008210162704700400050380000203A
:100A1000390000203A000020044603A0FFF714FC30
:100A2000204600F0BDFAFEE7496E2048617264205E
:100A30004661756C742048616E646C65720A0000D2
:100A40000E4988690E4A1043886105200007826BB1
:100A500011231A438263826B1B041A4382630A6860
:100A6000084B1A430A60016B074A11430163016B8B
:100A70000163416B4163816B8163704740000050AB
:100A800000770077111100000060660606498A6948
:100A90005205FCD408600A2804D188694005FCD4BA
:100AA0000D200860704700000000054010B5154C8F
:100AB00020694007400F0FD001280FD0022810D026
:100AC000032811D0042811D00F48E1690907090F44
:100AD000491CFFF7B0FC10BD0C48F6E70120C0032D
:100AE000F3E700F01DF8F0E70948EEE7206900079A
:100AF00001D50848E9E72068800401D50648E4E705
:100B00000648E2E70002005000093D0000366E0191
:100B100010270000005125020024F400001BB7003C
:100B200010B512494A6AD00301D5002010BD500308
:100B3000830F0CD0800F01280BD00D489104920632
:100B4000890E920E5043491CFFF775FC10BD0948F1
:100B5000F4E70869000701D50748EFE70868800453
:100B600001D50648EAE70648E8E700000002005021
:100B700000093D0000366E01005125020024F400FA
:100B8000001BB70010B5FFF791FF044C044920602B
:100B90004A108018FFF74FFC606010BD0000002075
:100BA00040420F000A48826802210A4382600A4BD1
:100BB000084A5A60094A126AFF231B049A43084BE9
:100BC0001A43084B1A6382688A43826070470000A8
:100BD0000002005065A900000080004000010050A4
:100BE0000030B000C0810040014901200861704719
:100BF0000000014038B5134D2869134CC10608D4D4
:100C00000DE00122694600F06DF869462068FFF7A3
:100C1000C9FEA96928468907F3D510210FE0C0074E
:100C200008D138BD0122694600F05CF869462068A9
:100C3000FFF7B8FEA96928468907F3D5012100F01E
:100C400005F838BD000015400C0000204A0703D508
:100C500070228261012242610A0704D5C269012320
:100C60009B041A43C2618A0602D5FF2202328261C6
:100C70004A0601D5402202610A0601D506224261D8
:100C8000C90501D5382141617047C2680A43C26075
:100C90007047000070B50E46044600F0E3F80546C4
:100CA00060680C21884360600020A0630320A0607E
:100CB000002E13D0700840193146FFF7BCFB0849DD
:100CC000401E884209D9F00040193146FFF7B3FBB6
:100CD00001210009C907401E0843606270BD000081
:100CE000FFFF000070B5044600200125AD070CE0B1
:100CF000002304E05B1CAB4201D3002070BDA66959
:100D0000B607F7D423680B54401C9042F0D370BD53
:100D1000026A520A52020A430262C1681022114357
:100D2000C160704770B52848FFF700FD2748FFF7FE
:100D3000FDFCE125264C6D0229462046FFF7AAFF5F
:100D40002946244D2846FFF7A5FFA168032000028D
:100D50000143A160A9680143A960FF212046FFF774
:100D6000D7FFFF212846FFF7D3FF11212846FFF7C1
:100D70008CFFFFF7F1FC014617A0FFF765FAFFF7BC
:100D8000F3FC014619A0FFF75FFAFFF7F5FC0146F7
:100D90001BA0FFF759FAFFF7F9FC01461DA0FFF76A
:100DA00053FAFFF7FFFC01461FA0FFF74DFAFFF7CC
:100DB00015FD014621A0FFF747FAFFF72BFD01467D
:100DC00023A0FFF741FA70BD103D00AE913D00CE6B
:100DD00000000540000015404350552046726571E3
:100DE0002020203A202564487A0A000048434C4BD2
:100DF000204672657120203A202564487A0A000056
:100E000048585420467265712020203A20256448B5
:100E10007A0A00004C585420467265712020203A0E
:100E2000202564487A0A000050434C4B302046721B
:100E30006571203A202564487A0A000050434C4BE3
:100E4000312046726571203A202564487A0A0000F4
:100E5000504C4C20467265712020203A2025644871
:100E60007A0A000010B51C4B002201241B4998424D
:100E700006D148694207C869520F0005040F08E00F
:100E8000174B984206D188694207C869520F00047F
:100E9000040F641C002A0AD0012A0AD0022A0BD0AF
:100EA000032A0CD00F482146FFF7C5FA10BD0E48A3
:100EB000F9E70120C003F6E7FFF732FEF3E7086920
:100EC000000701D50948EEE70868800401D5084805
:100ED000E9E70848E7E7000000000540000200508D
:100EE0000000154000093D0000366E01005125024A
:100EF0000024F400001BB70030380A2801D201207A
:100F00007047002070470020C043704700B503467B
:100F1000FFF7BCFD184600BD592116221E48882344
:100F200002E00160026003600468012CF9D1FFF760
:100F300087FDFFF7F1FCFFF7F5FE0A2000F084F8CB
:100F4000164C206000F0E2F8142000F07DF860609C
:100F500000F0DCF81E2000F077F8A06000F0D6F872
:100F6000282000F071F8E06000F0D0F8322000F0A6
:100F70006BF8206100F0CAF8606800F09BF800F0A0
:100F8000C5F8E06800F096F800F0C0F8A06800F03E
:100F900091F800F0BBF8FEE7000100504800002087
:100FA00010B50446016810A0FFF74EF911A0616862
:100FB000FFF74AF912A0A168FFF746F913A0E1680C
:100FC000FFF742F914A02169FFF73EF915A0616906
:100FD000FFF73AF916A0A169FFF736F917A0E16902
:100FE000FFF732F910BD0000723020203D2030782C
:100FF00025780A00723120203D20307825780A00BB
:10100000723220203D20307825780A00723320206B
:101010003D20307825780A00723132203D2030782A
:1010200025780A006C7220203D20307825780A004F
:10103000706320203D20307825780A00707372207C
:101040003D20307825780A00F8B50024184F054671
:101050000094386808352646002801D100F04EF982
:10106000680702D0ED1DED08ED0011493B68091D30
:1010700008680BE04268AA4206D3002C02D06768D9
:10108000BA4201D204460E46014600689842F1D1A8
:10109000002C0BD0204608300090601921680160B8
:1010A0006168491B083D4160656030600098F8BD8B
:1010B0003C00002010B5144A0838116820E0814235
:1010C0001CD90446436808341C198C4206D10C68AC
:1010D0000460496859180831416000E00160134616
:1010E00051680833CB18834206D103681360406807
:1010F00008180830506010BD106010BD0A4609681D
:101100000029DCD110BD00004000002070B5314C3A
:101110002F4E600702D0E41DE408E4002EA0FFF784
:1011200093F8FF222D3213462A4939A0FFF78CF895
:10113000284944A0FFF788F825494BA0FFF784F819
:10114000234D50A02D1F2968FFF77EF821482968FC
:10115000091A0A4652A0FFF777F81FA0FFF774F8A4
:10116000356810E0294648A0FFF76EF8696852A07C
:101170000A46FFF769F856A02968FFF765F81CA032
:10118000FFF762F82D6828680028EBD1356818E071
:1011900057A0FFF759F8641CAC42F9D3002655A0BC
:1011A000FFF752F8641C761C082EF8D3002604E0E2
:1011B00051A0FFF749F8641C761C6868B042F7D864
:1011C0002D6828680028E7D126A0FFF73DF870BDFC
:1011D00040000020D80100202D2D2D2D2D2D2D2D4E
:1011E0002D2D2D2D2D2D2D2D2D2D2D2D2D2D2D2D2F
:1011F0002D2D2D2D2D2D2D2D2D2D2D2D2D2D2D2D1F
:101200002D2D2D2D2D2D2D2D2D2D2D0A00000000E5
:101210004F726967696E204D656D72617279204108
:10122000646472657373203A2030782558203B201F
:1012300053697A65203A2030782558282564290A90
:1012400000000000416C69676E6D656E74204D652D
:101250006D726172792041646472657373203A2003
:10126000307825580A000000537461727420426C73
:101270006F636B2041646472657373203A20307829
:1012800025580A00456E6420426C6F636B204164F0
:101290006472657373203A20307825580A00000084
:1012A000546F74616C2053697A65203A2030782538
:1012B00058282564290A0000426C6F636B2053692B
:1012C0007A65203A2030782558282564290A0000BC
:1012D000426C6F636B204E657874204C696E6B2096
:1012E00041646472657373203A20307825580A008F
:1012F00023000000400000003A000000FF210E48DB
:101300002D31420705D0C01DC0080B4AC000821A0B
:10131000891A0A4A002309C20839401811460C39B3
:10132000086003600868083A436010680968016053
:10133000091A083941607047D80100204000002098
:10134000010000000200000004000000080000008E
:10135000100000000100000001000000010000007A
:10136000010000000200000004000000080000006E
:10137000100000000100000001000000010000005A
:1013800030313233343536373839414243444546BB
:1013900040305800303132333435363738396162B5
:1013A0006364656640307800C813000000000020C8
:1013B0004800000004010000101400004800002054
:1013C0002023000020010000001BB7000C000000DB
:1013D000000000000000000000000000E407000022
:1013E00001000000010000000000000000000000FB
:1013F00000000000000000000100000000000000EC
:1014000000000000000000000000000000000000DC
:04000005000001D125
:00000001FF
