:020000040000FA
:10000000A01A0020D1010000F90100007D010000CC
:1000100000000000000000000000000000000000E0
:10002000000000000000000000000000FD010000D2
:100030000000000000000000FF01000001020000BD
:10004000030200000302000003020000030200009C
:10005000C10E0000030200000302000000000000C7
:10006000451D00000302000003020000030200001F
:10007000791D0000F91D00000302000003020000CA
:10008000030200000302000003020000030200005C
:10009000030200000302000003020000030200004C
:1000A000030200000302000003020000030200003C
:1000B0000302000003020000030200008917000091
:1000C00000F002F800F04BF80CA030C808382418F3
:1000D0002D18A246671EAB4654465D46AC4201D180
:1000E00000F03DF87E460F3E0FCCB6460126334267
:1000F00000D0FB1AA246AB4633431847C825000080
:10010000E8250000103A02D378C878C1FAD852071F
:1001100001D330C830C101D504680C6070470000BD
:100120000023002400250026103A01D378C1FBD813
:10013000520700D330C100D50B60704710B5642959
:1001400002D100F08FF810BD782902D100F0C0F87C
:1001500010BD002010BD1FB51FBD10B510BD00F0B3
:100160000DFB1146FFF7F7FF01F09CFF00F025FBA8
:1001700003B4FFF7F2FF03BC00F028FB0420714634
:10018000084202D0EFF3098001E0EFF308807146E6
:10019000004A10474910000070B505460C46164647
:1001A00002E00FCC0FC5103E102EFAD2082E02D35B
:1001B00003CC03C5083E042E07D301CC01C5361F6E
:1001C00003E021782970641C6D1C761EF9D270BD85
:1001D0000F48104901601049016010490160104A40
:1001E00010491160104A11491160114880470848B0
:1001F000002101600F480047FEE7FEE7FEE7FEE74B
:10020000FEE7FEE70C480D490D4A0E4B7047000013
:100210000001005059000000160000008800000096
:1002200060000050A55A000014000050C0000000FB
:10023000011C0000C1000000A0140020A01A002032
:10024000A0160020A01600200FB4054910B503AA7F
:10025000029800F04FFA10BC08BC04B01847000028
:1002600080000020F7B5002575291068009914A6B4
:1002700011D0C046C046002802DA404211A608E06C
:10028000009909688A0701D50FA602E0490704D53D
:100290000EA6012501E0C046C046009F0024243779
:1002A00004E000F03BFA30313955641C0028F8D1E5
:1002B0002B4632462146009800F0C3F9FEBD0000EF
:1002C000000000002D0000002B00000020000000B6
:1002D00070B504460D4621461068C046C0462188C8
:1002E000090502D50F4A7A4402E00E4A7A440E32DA
:1002F00023460021243305E006070009360F965DEA
:100300005E54491C0028F7D120780023000705D54A
:10031000702D03D0002901D002231132204600F0B5
:1003200090F970BD9E230000F3B50446002081B013
:1003300020622046E168884700287DD0252802D029
:100340006268A16883E0454F00257F442046E1684C
:1003500088472028064608DB312E06D2B8192038F7
:100360000078002801D00543F0E7A80701D5042054
:1003700085430020E0610746A0612A2E0AD030465E
:1003800001F080FE002827D0B8000019303E009010
:10039000866119E00298BA00121902C891610290B0
:1003A0002046E1688847012F064617D1E0690028FA
:1003B0001FDA202085431CE000980A218069484309
:1003C00000998019303888612046E16888470646E0
:1003D00001F058FE0028EFD1012F0AD02E2E08D1AF
:1003E0002046E16888470646202005437F1C022FEF
:1003F000C3DBA069002803DA4042A0610120054365
:10040000E80701D010208543002E24D03046413823
:10041000192803D80120C002054320362046256054
:100420003146029A1546FFF789FE00280CD00128B4
:1004300007D0ED1DE80800E00DE0C0000830029094
:1004400077E72D1D029574E762683046A1689047F2
:10045000206A401C6CE7206AFEBD00006223000099
:10046000F8B5042A2CD3830712D00B78491C0370EB
:10047000401C521E83070BD00B78491C0370401C94
:10048000521E830704D00B78491C0370401C521E77
:100490008B079B0F05D0C91ADF002023DE1B08C97C
:1004A0000AE0FFF779FEF8BD1D4608C9FD401C466D
:1004B000B4402C4310C0121F042AF5D2F308C91A05
:1004C000521EF0D40B78491C0370401C521EEAD413
:1004D0000B78491C0370401C012AE4D40978017090
:1004E000F8BD002203098B422CD3030A8B4211D39F
:1004F00000239C464EE003460B433CD400224308B5
:100500008B4231D303098B421CD3030A8B4201D3A4
:1005100094463FE0C3098B4201D3CB01C01A52413C
:1005200083098B4201D38B01C01A524143098B428C
:1005300001D34B01C01A524103098B4201D30B0175
:10054000C01A5241C3088B4201D3CB00C01A52419A
:1005500083088B4201D38B00C01A524143088B425F
:1005600001D34B00C01A5241411A00D201465241F8
:10057000104670475DE0CA0F00D04942031000D317
:100580004042534000229C4603098B422DD3030A6C
:100590008B4212D3FC22890112BA030A8B420CD37C
:1005A000890192118B4208D3890192118B4204D3A5
:1005B00089013AD0921100E08909C3098B4201D325
:1005C000CB01C01A524183098B4201D38B01C01A5F
:1005D000524143098B4201D34B01C01A52410309D6
:1005E0008B4201D30B01C01A5241C3088B4201D385
:1005F000CB00C01A524183088B4201D38B00C01A32
:100600005241D9D243088B4201D34B00C01A524108
:10061000411A00D20146634652415B10104601D395
:100620004042002B00D54942704763465B1000D31F
:10063000404201B50020C046C04602BD7047704729
:100640007047FFB504460D4681B024300090216804
:10065000880604D51022E0699143216000E0012062
:10066000A84201DD471B00E000270498A1697A1920
:100670001018081AA0612078C00602D42046C0468F
:10068000C046002608E003986268A168805D904734
:10069000206A401C761C206204988642F3DB207896
:1006A000C0060AD52046C046C04606E06268A1687A
:1006B00030209047206A401C206238467F1E002868
:1006C000F4DC07E000986268A168405D9047206A0A
:1006D000401C206228466D1E0028F3DC2046C046E0
:1006E000C0462078000602D5022005B0F0BD0120EA
:1006F000FBE70000084B70B50D467B4400F027F87F
:100700000446284601F0C5FC002802D00020C04362
:1007100070BD204670BD00009B1900000146800896
:10072000081A02091018020A1018020C1018C00842
:10073000820012185200891A01E0401C0A390A2965
:10074000FBD2704701694A1C02610878704700B506
:100750008FB00291002105910549019379440391DD
:10076000114604906846FFF7DFFD0FB000BD0000A2
:10077000E5FFFFFF00487047401400207546FFF773
:10078000F9FFAE46050069465346C008C0008546DD
:1007900018B020B5FFF736FD60BC00274908B64603
:1007A0000026C0C5C0C5C0C5C0C5C0C5C0C5C0C580
:1007B000C0C5403D49008D46704710B50446C0464F
:1007C000C0462046FFF7D4FC10BD000001491820A8
:1007D000ABBEFEE72600020070470000C10F8A0092
:1007E000044951184A68C306DB0E012098400243B1
:1007F0004A6070470002005002490A6802430A60DA
:10080000704700000002005010B501F0E9F90148FE
:10081000006810BD7800002010B501F0E1F9014832
:10082000006810BD7800002002480068C00700D0B2
:10083000014870470002005000366E01044800680D
:10084000800702D50120C0037047002070470000D8
:100850000002005010B588B0202209496846FFF711
:100860009BFC0848406B4407640F01F0B9F9A000F5
:100870006946095804480068FFF733FE08B010BD08
:1008800038260000000200507800002010B588B023
:10089000202209496846FFF77FFC0848446B702016
:1008A000044001F09DF9A000694609580448006819
:1008B000FFF717FE08B010BD5826000000020050D8
:1008C0007800002010B512494A6AD00301D50020F3
:1008D00010BD5003830F0CD0800F01280BD00D48A2
:1008E00091049206890E920E5043491CFFF7F9FDC0
:1008F00010BD0948F4E70869000701D50748EFE78C
:100900000868800401D50648EAE70648E8E70000E1
:100910000002005000093D0000366E010051250222
:100920000024F400001BB70010B5074AD3691B0967
:100930001B010B43D36111690909090101431161CD
:1009400001F04EF910BD00000002005070B5840A9D
:1009500023061B0E0CD003039B0F0F4D9B005B194E
:100960001D688605E4B2F60EB440A54315431D602C
:10097000420E12070ED04200074B920F92000C3B22
:10098000D2181368C400240FC001C00E8440A343D2
:100990000B43136070BD00001C020050064909683B
:1009A00048430649486100228A61052008610869B8
:1009B000C003FCD50A6170477C00002000E000E025
:1009C00010B504460749084B05E00A46491E002AAF
:1009D00001DC002010BDDA6820469043F5D10120EB
:1009E00010BD000080F52000000200507D2110B5F0
:1009F000C900484300F084F910BD0000F0B5344D43
:100A00008DB0A86800F0CEFBA86800F03FFB31482D
:100A1000002686606868416A7D2000018847686812
:100A2000006900F030FA686800F0C8FD072303226F
:100A30001946686800F06CFD00221146686800F0F5
:100A400031FE2621686800F0F1FD0121686800F0A0
:100A5000F7FC002418E0A1B26A4600F077FC0746D4
:100A6000C3B26A461C49A86801F0C0FC020005D167
:100A7000FF212D31A86801F0E3FC02463B462146E8
:100A800016A0FFF7E1FB641C6868C169A142E2D8C7
:100A90006878012808D168690168006900F0FEFBE8
:100AA000686900F0F0F96E700A4801218160686899
:100AB000416A7D2000018847A86800F049FBA868CA
:100AC00000F0D6FA286900F0DEF92E700DB0F0BD06
:100AD00030000020404200503126000069203D20B7
:100AE0002564202025640925640A000010B5084B00
:100AF000084A3221012000F04BFD0749074A4860AF
:100B000001219160416A7D200001884710BD0000ED
:100B1000ED09000028000020300000204042005075
:100B200010B50220FFF768FE0220FFF749FF0028FA
:100B3000FAD00120FFF760FE0120FFF741FF0028F7
:100B4000FAD00820FFF758FE0820FFF739FF0028E9
:100B5000FAD000210846FFF7E7FE002211460E48B2
:100B6000FFF7F4FE002211460C48FFF7EFFE0121CB
:100B7000002249060A48FFF7E9FE01210022C906C2
:100B80000848FFF7E3FE0F22FF2112020131064859
:100B9000FFF7DCFE10BD0000103D00AE913D00CE21
:100BA0000C008CA70F00ACC7023D84AEFEB5474DCC
:100BB000286800F02BF900287ED10024264678E032
:100BC00004270196009702963B46002240A1286820
:100BD00000F0CAF8002868D0019600970296082312
:100BE00004223DA1286800F0BFF8002815D003209A
:100BF0000196029600900B23082239A1286800F084
:100C0000B3F8002809D000220B21286800F040F931
:100C1000002802D0334901200870019600970296FF
:100C20000823042230A1286800F09EF800283CD058
:100C30000196009702960C2308222DA1286800F047
:100C400093F8002831D000221021286800F020F904
:100C500000282AD00C21286800F00AF97D21C9005B
:100C60003038254F484338600D21286800F000F9DE
:100C700064214843396840184B218901401A386083
:100C80000E21286800F0F4F80A214843396840181A
:100C9000FF38E13838600F21286800F0E9F839683A
:100CA000401830383860154806607D20C00000F0DC
:100CB00027F82046641C00E007E0FF21F531884258
:100CC00000D27DE7286800F0DEF8FEBD400000207D
:100CD000434D443A000000004745543A00000000EC
:100CE000494D4700300000205345543A00000000B1
:100CF0004359433A000000007000002074000020B7
:100D000070B50446FFF780FD0A49FFF7EAFB01468C
:100D100001200006FFF7E5FB0546AC4205D9284651
:100D2000FFF73CFE641BF8D170BD2046FFF736FE8E
:100D300070BD000040420F00C36802689A4211D2A1
:100D4000436802690978D1540168491C0160C2688E
:100D50004168521E914201D2491C00E000214160CD
:100D60000120704700207047FFB5274883B00C9ED4
:100D7000076803980599C068884243D3401A98428F
:100D800000D203460693B3423CD3881900900398DF
:100D900000990068884227D3401A0699891B81422E
:100DA00000D80846002502901BE005980024401951
:100DB00001900EE001980119039800F059F8049988
:100DC000095D884204D00E98002804D0002902D181
:100DD000641CB442EED3B44202D1012007B0F0BD8E
:100DE0006D1C02988542E0D90748016800688F426F
:100DF00002D9C01B401E00E0C01B0D99884201D8DB
:100E00000029C4D10020E9E7000000200068002884
:100E100001D00020704701207047000070B50C0021
:100E200005460CD0142001F08FFB00280AD00021C9
:100E300001604160C5608160002C08D009E028464F
:100E40001430F0E704A0FFF7FFF9002070BD04465E
:100E50001434046170BD00004572726F7220416CE1
:100E60006C6F63206D656D65727921210A00000049
:100E700010B50A460446C16880688018FFF731FB48
:100E80002069405C10BD00214160016081607047B5
:100E900030B50A4D2B682C68A3422C6802D9E41A9D
:100EA000641E00E0E41A944206D804688C4201D320
:100EB000012030BD002AEED1002030BD000000200E
:100EC000F0B51E4889B0016A490701D504210162C5
:100ED000016A490404D51A4A01211170890301628B
:100EE000164F4037386A000725D5164E306800F097
:100EF000ECF83068017C490618D500F009F9054680
:100F000002466946306800F035F9002407E068467B
:100F100001190D480068FFF70FFF641CE4B2AC42F2
:100F2000F5D33068027C072100F07FF93068017C3E
:100F3000007C0820386209B0F0BD0000004000507D
:100F400030000020380000204000002010B58369E8
:100F5000140E8C4023438361C3691202120A8A4033
:100F60001343C36110BDF0B5002301273C469C40EC
:100F70000C4208D005685C000326A640B54316461F
:100F8000A640354305605B1C102BEFD3F0BD00007D
:100F9000F8B5264C012211462046FFF7E4FF002257
:100FA00004212046FFF7DFFF0127BF030022394657
:100FB0002046FFF7D8FF0122D1032046FFF7D3FFD9
:100FC0001A4D0122403504212846FFF7CCFF0022AC
:100FD00008212846FFF7C7FF606A04263043606295
:100FE000606A38436062686A0821084368620122C7
:100FF00002212046FFF7AAFF01220E212046FFF71B
:10100000A5FF012203212846FFF7A0FF084833214E
:1010100001606069304360610549012080310860EA
:101020000022CA630249C0318860F8BD0040005008
:101030008041005010B50021C820FFF7EFFE0149A4
:10104000486110BD30000020044603A0FFF7FCF803
:10105000204601F025FAFEE7496E204861726420BF
:101060004661756C742048616E646C65720A00009C
:1010700010B5044600688068804720680168E22057
:10108000884720742068C068804710BD10B50446AA
:1010900000688068804720680168E12088472074E4
:1010A0002068C068804710BDF8B507461C46154645
:1010B0000E46142001F048FA002805D0076046606B
:1010C00085600021C4600174F8BD10B50446006855
:1010D0008068804720680168FF2088472074206866
:1010E000C0688047207C10BD70B5044600680D467E
:1010F00080688047206802682846904720742068EE
:101100004068804705462068C0688047284670BD13
:1011100070B50446006880688047206801686020D8
:101120008847207420684068804705462068C0686A
:101130008047284670BD10B5044600688068804727
:1011400020680168E32088472068C068804710BD98
:1011500010B504468068804700212046FFF7C4FF91
:101160000121084302460021204600F05EF8606835
:10117000804710BDF8B505460068164680680F46E2
:10118000804728680168612088472874002403E0AC
:10119000406880473855641C2868B442F8D3C0685A
:1011A0008047F8BD10B5044680688047002120467E
:1011B000FFF79AFF420852000021204600F035F860
:1011C00010BDF8B505460068164680680F46804792
:1011D00028680168A02088472874002404E0296852
:1011E000385D09688847641CB442F8D32868C06831
:1011F0008047F8BDF8B5054600681E46806817466A
:101200000C468047296820200968204388472874B5
:10121000002404E02968385D09688847641CB442EA
:10122000F8D32868C0688047F8BD70B504460068E8
:10123000154680680E4680472168202009683043A3
:101240008847207420680168284688472068C0685D
:10125000804770BDC106C90E012088400149086061
:101260007047000000E100E010B50420FFF7F2FF36
:101270001F20FFF7EFFF0C20FFF7ECFF0D20FFF71B
:10128000E9FF03490868FF2212029043086010BD7D
:101290000CE400E010B5FFF733FD10BDF3B581B0ED
:1012A0000C4600250D4F15E0202C01D9202000E030
:1012B0002046C6B20198334642190949B86801F080
:1012C00095F8002804D1FF212D31B86801F0B8F855
:1012D000AD19A41B002CE7D1FEBD0000300000209A
:1012E0003126000038B5012000218002FFF796FD6D
:1012F000104C114B2061114A11491248FFF7D4FEDE
:101300005021A06000F0CEFF01200346014600906E
:101310000D4AA06801F010F8E060A06800F0A9FF95
:101320000949A068491D00F087FFA068FFF710FF7A
:1013300038BD00003000002095120000D9180000D0
:10134000B11A0000140000202C260000FEB504464F
:10135000174638A005C8002501920090002C38D00F
:101360006A461171080A50712069FFF78CFD206AE6
:101370000621026868469047FA2204212069FFF797
:1013800087FD00284FD000212069FFF771FD6946D5
:101390000979884247D101212069FFF769FD694633
:1013A000497988423FD102212069FFF761FD064655
:1013B00003212069FFF75CFD000206431F4AB11DAF
:1013C0002069FFF765FD00282DD00020311D22691E
:1013D00007E00020FEBD13691B5C5B19401C9DB239
:1013E00080B28842F7D3311D1046FFF741FDE9B2C4
:1013F000884218D1711D2069FFF73AFD290A8842F9
:1014000011D1002505E0291DFFF732FD78556D1C2F
:10141000ADB22069B542F6D3FFF735FD616A012010
:1014200088473046FEBD2069FFF72DFD616A012027
:101430008847CEE7AA0E000000000000B80B0000AD
:10144000F0B504000D462EA003C887B005900691A4
:101450002DA003C8049103904FD06846857520697C
:10146000FFF711FD206A0621026805A89047FF26B4
:1014700006270020F5360097019602903B46002291
:1014800003A92069FFF770FC002834D00A206946C0
:101490004873207D887301200097019602900623EF
:1014A0001A4603A92069FFF75FFC06001CD02575CA
:1014B00009212069FFF7DCFC05460A212069FFF7B6
:1014C000D7FC000205430B212069FFF7D1FC000483
:1014D0000543A56121892846891FFFF702F8E061CD
:1014E000002901D0401CE0612069FFF7CCFC616A53
:1014F00001208847304607B0F0BD0020FBE7000020
:10150000AA04000000000000AA0E04000000000071
:10151000FFB504000F461AA003C887B003900491DA
:1015200019A003C816460691059026D06946CF73C8
:101530000E740A9848742069FFF7A5FC206A0621FA
:10154000026803A89047FF210022F53106206B4670
:1015500007C3062305A92069FFF706FC050003D091
:10156000A770E6700A9820712069FFF78CFC616A09
:101570000120884728460BB0F0BD0020FBE70000A3
:10158000AA01000000000000AA0E010000000000F7
:10159000FFB5074681B01D461646282000F0D4FF4F
:1015A000040007D0278000210298FFF737FC26624D
:1015B00065622061204605B0F0BD000030B5040032
:1015C00016A003C887B00390049116A003C8069123
:1015D000059021D02069FFF756FC206A0621026899
:1015E00003A89047206A0621026803A89047FF21BC
:1015F0000022F53106206B4607C30C2305A920699C
:10160000FFF7B2FB05462069FFF73DFC616A012048
:101610008847284607B030BD0020FBE7AA0D000030
:1016200000000000AA0E0D000000000070B50400CC
:101630000D4618A003C888B00390049117A003C8F2
:101640000691059024D06946CD73280A0874206954
:10165000FFF719FC206A0621026803A89047FF21C2
:101660000022F53106206B4607C3062305A9206931
:10167000FFF77AFB060000D025812069FFF703FC05
:10168000616A01208847002E02D0012008B070BD99
:101690000020FBE7AA06080000000000AA0E0600D2
:1016A00000000000F0B504000F461AA003C887B080
:1016B0000390049119A003C815460691059026D001
:1016C00069468F73CD73280A08742069FFF7DBFB26
:1016D000206A0621026803A89047FF210022F53105
:1016E00006206B4607C3062305A92069FFF73CFBCC
:1016F000060001D06771E5802069FFF7C4FB616ACD
:1017000001208847002E02D0012007B0F0BD002044
:10171000FBE70000AA05000000000000AA0E05007B
:10172000000000000E4988690E4A104388610520B8
:101730000007826B11231A438263826B1B041A43D6
:1017400082630A68084B1A430A60016B074A114317
:101750000163016B0163416B4163816B816370477E
:10176000400000500077007711110000006066060D
:1017700000B5034600F094F802498A6A1A438A6267
:1017800000BD00000080004010B50B4A1068012326
:1017900000280AD009490868441C0C60126890426D
:1017A00003D3074803700020086006480370064909
:1017B0000220C86210BD00007000002074000020EC
:1017C000300000206C00002000800040F8B5044686
:1017D000314D304828602968012903D028602868E5
:1017E0000128FCD1002C46D0E069002844D000F04C
:1017F00057F868690121084368617D20216800016C
:10180000081A0A21FEF76DFE0E04000506430A21A0
:101810006068FEF766FE000330430E0206430A21AD
:10182000A068FEF75EFE000130431C4E01433160AC
:1018300000F036F8306828610A212069FEF751FE71
:101840000F04000507430A216069FEF74AFE000302
:1018500038430F0207430A21A069FEF742FE000148
:1018600038430143316000F01BF83068E86000F055
:1018700017F8E068A861F8BD00F012F86869400840
:1018800040006861206A0228B7D1206914302061C5
:10189000B3E700005713EBA5008000408400002050
:1018A0000449054841604268D203FBD54168C9013B
:1018B000FCD4704765A900000080004000B50346D5
:1018C000FFF7EEFF03490A6BD208D2001A430A63FE
:1018D00000BD00000080004001490020C86370473F
:1018E0000042005010B50648FEF778FF0548FFF7A4
:1018F0006DFF0020FFF7E2FF0220FFF739FF10BD68
:1019000001000CE0480000200248C1680D2291430C
:10191000C160704700000340044801680122114380
:1019200001600168C943C907FBD07047000003404C
:10193000054801680122114301600168C943C907D4
:10194000FBD00069C0B27047000003400349C8687B
:101950000D229043401CC860704700000000034007
:101960000649086208680122104308600868C043FD
:10197000C007FBD00869C0B27047000000000340F8
:1019800010B5029C202B00D10023DB000B43134336
:101990000360214600F002F810BD0000F8B5364C97
:1019A0000E460546334F3549354A63103548BD422A
:1019B00016D14769BF01BF0F012F05D04769BF018D
:1019C000BF0F04D0476918E0FEF726FF01E0FEF7DD
:1019D00079FF044635E00068400731D5144630E011
:1019E000294FBD4212D18769BF01BF0F012FEBD034
:1019F0008769BF01BF0FEAD08769BF01BF0F022F00
:101A00001FD004692407E6D50C461AE01F4FBD42DB
:101A10000AD147693F01BF0F012FD5D047693F0168
:101A2000BF0FD4D0476909E087693F01BF0F012F7D
:101A3000CAD087693F01BF0FC9D087693F01DDE781
:101A40001C46A64200D92646002E11D0314620461B
:101A5000FEF747FD401EFF2800D9FF20A968090AAC
:101A600009020143A960411C2046FEF73AFDF8BD7A
:101A70000020F8BD0000034000366E010051250231
:101A80000024F400000200500000134000000D404C
:101A900006498A695205FCD408600A2804D188697D
:101AA0004005FCD40D200860704700000000054090
:101AB00010B503490120C8630F20FFF721F910BDBD
:101AC0000042005038B50B48FEF788FE0A48FEF782
:101AD00085FE0A4C08230422002109480094FFF7E0
:101AE0004FFF08230422002106480094FFF748FF17
:101AF00038BD00000C008CA70F00ACC740420F009F
:101B00000000034000001E4010B5154C206940073E
:101B1000400F0FD001280FD0022810D0032811D079
:101B2000042811D00F48E1690907090F491CFEF785
:101B3000D8FC10BD0C48F6E70120C003F3E700F025
:101B40001DF8F0E70948EEE72069000701D50848CD
:101B5000E9E72068800401D50648E4E70648E2E7A3
:101B60000002005000093D0000366E011027000001
:101B7000005125020024F400001BB70010B51249E3
:101B80004A6AD00301D5002010BD5003830F0CD04A
:101B9000800F01280BD00D4891049206890E920EF9
:101BA0005043491CFEF79DFC10BD0948F4E7086945
:101BB000000701D50748EFE70868800401D506480B
:101BC000EAE70648E8E700000002005000093D008F
:101BD00000366E01005125020024F400001BB700FE
:101BE00010B5FFF791FF044C044920604A1080189B
:101BF000FEF777FC606010BD7800002040420F00C7
:101C00000A48826802210A4382600A4B084A5A60E5
:101C1000094A126AFF231B049A43084B1A43084BD4
:101C20001A6382688A438260704700000002005095
:101C300065A9000000800040000100500030B000A5
:101C4000C08100401FB525491EC903946C460EC4CF
:101C5000234A2449904205D148690A6A4005400F49
:101C6000120A16E0204A904206D148690A6A4004E6
:101C7000400F1204140F0EE01C4A9042886904D1F0
:101C800040050A6A400F120C03E040040A6A400F44
:101C9000120D1407240F641C042803D28100684627
:101CA000405805E0042808D0052814D0FEF7B4FDFC
:101CB0002146FEF716FC04B010BD0869000702D5E6
:101CC00021460B48F5E708682146800401D50948FC
:101CD000EFE70948EDE721460848EAE778260000E3
:101CE00000000140000200500001014000001140CE
:101CF000005125020024F400001BB70000093D003C
:101D0000F7B517460646FFF79DFF04460025400835
:101D1000B84201D2022008E009498C4201D90125CC
:101D2000044639462046FEF7DCFBB0607560019939
:101D300031606D1C684301462046FEF7D2FBFEBDB4
:101D4000FFFFFF00014901200861704700000140CA
:101D500010B50748FEF742FD064C08221021204628
:101D6000FFF7CEFFE16801221143E16010BD0000E2
:101D7000023D84AE0000014038B51C4C20691C4D6A
:101D8000C10610D417E068460178242902D12868DA
:101D9000FFF779F801226946204600F0BFF869464E
:101DA0002868FEF7C9FFA0698007ECD5114901201A
:101DB0000870102116E0C00710D138BD68460178C0
:101DC000242902D12868FFF75EF8012269462046DF
:101DD00000F0A4F869462868FEF7AEFFA069800706
:101DE000ECD50121204600F04DF838BD000005403B
:101DF000440000203100002038B5114D2869114CF5
:101E0000C10606D40AE020680121006A42686846DB
:101E10009047A8698007F6D510210CE0C00706D1CD
:101E200038BD20680121006A426868469047A86969
:101E30008007F6D50121284600F024F838BD0000BF
:101E4000000015403400002070B504460146012210
:101E5000054800F063F8054604482146006800691B
:101E6000FEF76AFF284670BD0000154034000020D0
:101E70000A4610B50146024800F070F810BD000097
:101E8000000015404A0703D5702282610122426199
:101E90000A0704D5C26901239B041A43C2618A065A
:101EA00002D5FF22023282614A0601D54022026138
:101EB0000A0601D506224261C90501D538214161D2
:101EC0007047C2680A43C2607047000070B50E4692
:101ED000044600F08DF8054660680C218843606078
:101EE0000020A0630320A060002E13D070084019CA
:101EF0003146FEF7F6FA0849401E884209D9F0003B
:101F000040193146FEF7EDFA01210009C907401ECC
:101F10000843606270BD0000FFFF000070B504461A
:101F200000200125AD070CE0002304E05B1CAB4260
:101F300001D3002070BDA669B607F7D423680B54FF
:101F4000401C9042F0D370BD026A520A52020A430A
:101F50000262C16810221143C160704770B5044627
:101F600000200125AD070CE0002304E05B1CAB4220
:101F700001D3002070BDA669B605F7D50B5C2360C0
:101F8000401C9042F0D170BD70B51548FEF726FC9C
:101F90001448FEF723FCE125134C6D022946204628
:101FA000FFF794FF2946114D2846FFF78FFFA168E0
:101FB000032000020143A160A9680143A960FF2139
:101FC0002046FFF7C1FFFF212846FFF7BDFF112183
:101FD0002046FFF776FF11212846FFF772FF70BDFC
:101FE000103D00AE913D00CE0000054000001540C0
:101FF00010B51C4B002201241B49984206D14869A8
:102000004207C869520F0005040F08E0174B9842B9
:1020100006D188694207C869520F0004040F641C86
:10202000002A0AD0012A0AD0022A0BD0032A0CD097
:102030000F482146FEF755FA10BD0E48F9E701207A
:10204000C003F6E7FFF79AFDF3E70869000701D53B
:102050000948EEE70868800401D50848E9E7084820
:10206000E7E70000000005400002005000001540B6
:1020700000093D0000366E01005125020024F400E5
:10208000001BB70030380A2801D201207047002019
:1020900070470020C043704700B50346FFF7F8FCC7
:1020A000184600BD08B559201621324C882202E09E
:1020B0002060216022602368012BF9D1FFF732FBF9
:1020C000FEF72EFDFFF760FFFEF79EFB01462AA0FC
:1020D000FEF7BAF8FEF7A0FB01462CA0FEF7B4F815
:1020E000FEF7A2FB01462EA0FEF7AEF8FEF7A6FB18
:1020F000014630A0FEF7A8F8FEF7ACFB014632A07F
:10210000FEF7A2F8FEF7C2FB014634A0FEF79CF8EA
:10211000FEF7D8FB014636A0FEF796F8FFF7E2FB84
:10212000FFF716FEFEF734FFFFF7CCFCFFF79CF835
:10213000FFF7D8F8FEF77EFFFEF7D8FC00262660F2
:10214000304C314D314F2078012801D1FEF756FC3B
:10215000FEF72CFD28780128F5D1207800903B6807
:102160002B4802782B4801682BA0FEF76DF82E70E3
:10217000E9E70000000100504350552046726571A8
:102180002020203A202564487A0A000048434C4B1E
:10219000204672657120203A202564487A0A0000A2
:1021A00048585420467265712020203A2025644802
:1021B0007A0A00004C585420467265712020203A5B
:1021C000202564487A0A000050434C4B3020467268
:1021D0006571203A202564487A0A000050434C4B30
:1021E000312046726571203A202564487A0A000041
:1021F000504C4C20467265712020203A20256448BE
:102200007A0A0000300000206C00002070000020DE
:102210003100002074000020434E543A25642047CA
:1022200050533A2564204359433A2564204750527D
:102230003A25640A0000000070B50A4605460523E9
:102240000A21FEF7D7FF01212846FEF74DFF0124A2
:102250002043024621462846FEF7E7FF0221284692
:10226000FEF742FF2043024602212846FEF7DDFF2B
:1022700070BD10B504461D21FEF736FF042108434A
:1022800002461D212046FEF7D0FF1C212046FEF706
:102290002BFF0121084302461C212046FEF7C5FF03
:1022A00010BD000070B50D460446FEF70EFFFF2876
:1022B0003FD0A06880470B2200212046FEF7B5FFE3
:1022C000002201212046FEF7B0FF00220221204615
:1022D000FEF7ABFF032211462046FEF7A6FFFF22C2
:1022E00004212046FEF7A1FF2A4605212046FEF7DD
:1022F0009CFF0F2206212046FEF797FF7022072140
:102300002046FEF792FF00221C212046FEF78DFF9B
:1023100000221D212046FEF788FF064D2868FEF7A3
:10232000A7FE2868FEF7B2FE227C07212046FEF7B2
:102330007CFF70BD38000020FFB5074683B00C4617
:10234000082000F001F9076006460471B86880476C
:1023500002213846FEF7C8FE0125A5402843C2B237
:1023600002213846FEF761FF0698002809D00121B6
:102370003846FEF7B9FE2843C2B201213846FEF7BF
:1023800054FF0C9800280FD0EAB21C213846FEF703
:102390004CFF1D213846FEF7A7FE042108430246E4
:1023A0001D213846FEF741FF25460A35012C14D978
:1023B000052268460599FEF753F80598E9B20278B8
:1023C0003846FEF732FF0B213846FEF78DFE694690
:1023D000087005236A460B2102E0059AE9B205233D
:1023E0003846FEF707FF304607B0F0BD70B5164619
:1023F0001D460A46044605231021FEF7FBFE2A4629
:1024000031462046FEF7DDFE60688047207C80066E
:10241000800FFBD0A068804707212046FEF764FEAE
:1024200004460246054807210068FEF7FEFEA006A6
:1024300001D5012070BD002070BD000038000020D3
:10244000F3B5164E81B0054600243068FEF73DFE18
:102450002846FEF770FE68688047287C8006800F5B
:10246000FBD0A868804707212846FEF73DFE0746B7
:10247000024607213068FEF7D8FEF80604D520464C
:102480000299641C8842E0D32846FEF7FFFDF80657
:1024900001D50020FEBD0120FEBD00003800002057
:1024A00010B50446016810A0FDF7CEFE11A06168CA
:1024B000FDF7CAFE12A0A168FDF7C6FE13A0E168F1
:1024C000FDF7C2FE14A02169FDF7BEFE15A06169EB
:1024D000FDF7BAFE16A0A169FDF7B6FE17A0E169E7
:1024E000FDF7B2FE10BD0000723020203D20307894
:1024F00025780A00723120203D20307825780A00A6
:10250000723220203D20307825780A007233202056
:102510003D20307825780A00723132203D20307815
:1025200025780A006C7220203D20307825780A003A
:10253000706320203D20307825780A007073722067
:102540003D20307825780A00F8B50024234F054651
:10255000009478682646002801D100F041F8680709
:1025600002D0ED1DED08ED001C4A28460832083067
:1025700084461A481168476817E04868A84209D19C
:10258000164803685B1B083B03600846096808306F
:102590001160F8BD604506D3002C02D063689842F4
:1025A00001D20C4616460A460968B942E5D1002C0C
:1025B00011D00A480168491B0839016020460830DB
:1025C00000906019216881606168491B0839C16009
:1025D0000830656030600098F8BD000004000020FD
:1025E000104810B50E49420705D0C01DC0080D4A5D
:1025F000C000821A891A0C4A00241346116008335D
:1026000011C308394018506004605068083B4460AA
:10261000186851680160091A0839416010BD00004E
:1026200088130000B800002004000020017902088F
:1026300011007902081100000100000002000000F2
:10264000040000000800000010000000010000006D
:102650000100000001000000010000000200000075
:10266000040000000800000010000000010000004D
:10267000010000000100000000366E010080000033
:102680001027000000000000303132333435363777
:1026900038394142434445464030580030313233A6
:1026A00034353637383961626364656640307800A6
:1026B000040000080000000000000002000100000B
:1026C00010000000E426000000000020B800000018
:1026D000040100009C270000B8000020E819000059
:1026E00020010000000000000000000000000000C9
:1026F0000000000000000000611900003119000016
:102700004D1900000919000019190000711E000080
:10271000491E000000000000000000000000000052
:10272000000000000000000000000000E4070000BE
:102730000100000001000000000000000000000097
:102740000000000000000000010000000000000088
:10275000000000001E00000000000000001BB70089
:102760000C0000000000000000000000000000005D
:102770000000000000000000000000000000000059
:102780000000000000000000000000000000000049
:0C2790000000000000000000000000003D
:04000005000001D125
:00000001FF
