:020000040000FA
:1000000088120020D1010000F90100007D010000EC
:1000100000000000000000000000000000000000E0
:10002000000000000000000000000000FD010000D2
:100030000000000000000000FF01000001020000BD
:10004000030200000302000003020000030200009C
:100050004D0C00000302000003020000000000003D
:1000600089150000030200000302000003020000E3
:1000700003020000951500000302000003020000C7
:10008000030200000302000003020000030200005C
:10009000030200000302000003020000030200004C
:1000A000030200000302000003020000030200003C
:1000B000030200000302000003020000030200002C
:1000C00000F002F800F04BF80CA030C808382418F3
:1000D0002D18A246671EAB4654465D46AC4201D180
:1000E00000F03DF87E460F3E0FCCB6460126334267
:1000F00000D0FB1AA246AB4633431847281B00002A
:10010000481B0000103A02D378C878C1FAD85207C9
:1001100001D330C830C101D504680C6070470000BD
:100120000023002400250026103A01D378C1FBD813
:10013000520700D330C100D50B60704710B5642959
:1001400002D100F08FF810BD782902D100F0C0F87C
:1001500010BD002010BD1FB51FBD10B510BD00F0B3
:10016000CBFA1146FFF7F7FF01F0D6FB00F0E3FAF8
:1001700003B4FFF7F2FF03BC00F0E6FA0420714677
:10018000084202D0EFF3098001E0EFF308807146E6
:10019000004A10477D0D000070B505460C46164616
:1001A00002E00FCC0FC5103E102EFAD2082E02D35B
:1001B00003CC03C5083E042E07D301CC01C5361F6E
:1001C00003E021782970641C6D1C761EF9D270BD85
:1001D0000F48104901601049016010490160104A40
:1001E00010491160104A11491160114880470848B0
:1001F000002101600F480047FEE7FEE7FEE7FEE74B
:10020000FEE7FEE70C480D490D4A0E4B7047000013
:100210000001005059000000160000008800000096
:1002200060000050A55A000014000050C0000000FB
:1002300045150000C1000000880C00208812002035
:10024000880E0020880E00200FB4054910B503AABF
:10025000029800F00DFA10BC08BC04B0184700006A
:1002600068000020F7B5002575291068009914A6CC
:1002700011D0C046C046002802DA404211A608E06C
:10028000009909688A0701D50FA602E0490704D53D
:100290000EA6012501E0C046C046009F0024243779
:1002A00004E000F0F9F930313955641C0028F8D128
:1002B0002B4632462146009800F082F9FEBD000030
:1002C000000000002D0000002B00000020000000B6
:1002D00070B504460D4621461068C046C0462188C8
:1002E000090502D50F4A7A4402E00E4A7A440E32DA
:1002F00023460021243305E006070009360F965DEA
:100300005E54491C0028F7D120780023000705D54A
:10031000702D03D0002901D002231132204600F0B5
:100320004FF970BDFE180000F3B50446002081B0FF
:1003300020622046E168884700287DD0252802D029
:100340006268A16883E0454F00257F442046E1684C
:1003500088472028064608DB312E06D2B8192038F7
:100360000078002801D00543F0E7A80701D5042054
:1003700085430020E0610746A0612A2E0AD030465E
:1003800001F0BAFA002827D0B8000019303E0090DA
:10039000866119E00298BA00121902C891610290B0
:1003A0002046E1688847012F064617D1E0690028FA
:1003B0001FDA202085431CE000980A218069484309
:1003C00000998019303888612046E16888470646E0
:1003D00001F092FA0028EFD1012F0AD02E2E08D179
:1003E0002046E16888470646202005437F1C022FEF
:1003F000C3DBA069002803DA4042A0610120054365
:10040000E80701D010208543002E24D03046413823
:10041000192803D80120C002054320362046256054
:100420003146029A1546FFF789FE00280CD00128B4
:1004300007D0ED1DE80800E00DE0C0000830029094
:1004400077E72D1D029574E762683046A1689047F2
:10045000206A401C6CE7206AFEBD0000C218000044
:10046000002203098B422CD3030A8B4211D30023B1
:100470009C464EE003460B433CD4002243088B428B
:1004800031D303098B421CD3030A8B4201D3944618
:100490003FE0C3098B4201D3CB01C01A524183090B
:1004A0008B4201D38B01C01A524143098B4201D3C5
:1004B0004B01C01A524103098B4201D30B01C01AF0
:1004C0005241C3088B4201D3CB00C01A524183086A
:1004D0008B4201D38B00C01A524143088B4201D397
:1004E0004B00C01A5241411A00D2014652411046F7
:1004F00070475DE0CA0F00D04942031000D340426C
:10050000534000229C4603098B422DD3030A8B42A1
:1005100012D3FC22890112BA030A8B420CD389013F
:1005200092118B4208D3890192118B4204D3890125
:100530003AD0921100E08909C3098B4201D3CB0163
:10054000C01A524183098B4201D38B01C01A524118
:1005500043098B4201D34B01C01A524103098B421C
:1005600001D30B01C01A5241C3088B4201D3CB0007
:10057000C01A524183088B4201D38B00C01A5241EA
:10058000D9D243088B4201D34B00C01A5241411AC1
:1005900000D20146634652415B10104601D34042EF
:1005A000002B00D54942704763465B1000D34042A0
:1005B00001B50020C046C04602BD70477047704775
:1005C000FFB504460D4681B02430009021688806AE
:1005D00004D51022E0699143216000E00120A84287
:1005E00001DD471B00E000270498A1697A19101863
:1005F000081AA0612078C00602D42046C046C04632
:10060000002608E003986268A168805D9047206A30
:10061000401C761C206204988642F3DB2078C006DA
:100620000AD52046C046C04606E06268A168302070
:100630009047206A401C206238467F1E0028F4DC68
:1006400007E000986268A168405D9047206A401CFE
:10065000206228466D1E0028F3DC2046C046C046B6
:100660002078000602D5022005B0F0BD0120FBE78E
:10067000084B70B50D467B4400F027F80446284629
:1006800001F041F9002802D00020C04370BD20468F
:1006900070BD00009312000001468008081A02098C
:1006A0001018020A1018020C1018C0088200121844
:1006B0005200891A01E0401C0A390A29FBD270470E
:1006C00001694A1C02610878704700B58FB0029139
:1006D0000021059105490193794403911146049045
:1006E0006846FFF721FE0FB000BD0000E5FFFFFFE9
:1006F00000487047240C00207546FFF7F9FFAE460E
:10070000050069465346C008C000854618B020B5AC
:10071000FFF778FD60BC00274908B6460026C0C533
:10072000C0C5C0C5C0C5C0C5C0C5C0C5C0C5403DA9
:1007300049008D46704710B50446C046C046204665
:10074000FFF716FD10BD000001491820ABBEFEE703
:100750002600020070470000C10F8A0004495118AA
:100760004A68C306DB0E0120984002434A60704786
:100770000002005002490A6802430A607047000004
:100780000002005010B500F0CDFE0148006810BD19
:100790006000002010B500F0C5FE0148006810BDE3
:1007A0006000002002480068C00700D00148704780
:1007B0000002005000366E0104480068800702D530
:1007C0000120C00370470020704700000002005065
:1007D00010B588B0202209496846FFF7DDFC0848BB
:1007E000406B4407640F00F09DFEA0006946095865
:1007F00004480068FFF734FE08B010BDA81B0000D5
:10080000000200506000002010B588B02022094985
:100810006846FFF7C1FC0848446B7020044000F0B4
:1008200081FEA0006946095804480068FFF718FED9
:1008300008B010BDC81B000000020050600000207E
:1008400010B512494A6AD00301D5002010BD5003EB
:10085000830F0CD0800F01280BD00D489104920615
:10086000890E920E5043491CFFF7FAFD10BD09484E
:10087000F4E70869000701D50748EFE70868800436
:1008800001D50648EAE70648E8E700000002005004
:1008900000093D0000366E01005125020024F400DD
:1008A000001BB70010B5074AD3691B091B010B4396
:1008B000D3611169090909010143116100F032FE98
:1008C00010BD00000002005070B5840A23061B0E04
:1008D0000CD003039B0F0F4D9B005B191D68860511
:1008E000E4B2F60EB440A54315431D60420E120754
:1008F0000ED04200074B920F92000C3BD2181368A7
:10090000C400240FC001C00E8440A3430B431360F6
:1009100070BD00001C0200500649096848430649A2
:10092000486100228A61052008610869C003FCD57E
:100930000A6170476400002000E000E010B5044642
:100940000749084B05E00A46491E002A01DC002041
:1009500010BDDA6820469043F5D1012010BD00009B
:1009600080F52000000200507D2110B5C9004843E9
:1009700000F094F810BD000070B501219AB01F4B33
:100980001F4A8902012000F07BFB1E4D1E4C0121F5
:100990002860A1607D26F600416A30468847002025
:1009A000A0602868416A30468847286800F07EFBCE
:1009B000072303221946286800F022FB0022114673
:1009C000286800F0E7FB6421286800F0A7FB0121FC
:1009D000286800F0ADFA00240C4E09E0A1B26A4686
:1009E00000F02CFA02466946304600F085FE641C91
:1009F0002868C169A142F1D81AB070BD6909000028
:100A00002800002030000020404200500000054037
:100A100010B50220FFF7AEFE0220FFF78FFF00287F
:100A2000FAD00120FFF7A6FE0120FFF787FF00287C
:100A3000FAD00820FFF79EFE0820FFF77FFF00286E
:100A4000FAD000210846FFF72DFF002211460E487C
:100A5000FFF73AFF002211460C48FFF735FF01214E
:100A6000002249060A48FFF72FFF01210022C9068C
:100A70000848FFF729FF0F22FF2112020131064823
:100A8000FFF722FF10BD0000103D00AE913D00CEEB
:100A90000C008CA70F00ACC7023D84AE70B50446B5
:100AA000FFF770FE0A49FFF7DBFC01460120000654
:100AB000FFF7D6FC0546AC4205D92846FFF72CFFC8
:100AC000641BF8D170BD2046FFF726FF70BD000003
:100AD00040420F00C36802689A4211D2436802691B
:100AE0000978D1540168491C0160C2684168521EEE
:100AF000914201D2491C00E0002141600120704771
:100B000000207047FFB5274883B00C9E0768039804
:100B10000599C068884243D3401A984200D20346E0
:100B20000693B3423CD3881900900398009900685B
:100B3000884227D3401A0699891B814200D808466B
:100B4000002502901BE005980024401901900EE05A
:100B500001980119039800F051F80499095D884241
:100B600004D00E98002804D0002902D1641CB4429D
:100B7000EED3B44202D1012007B0F0BD6D1C029843
:100B80008542E0D90748016800688F4202D9C01B3E
:100B9000401E00E0C01B0D99884201D80029C4D135
:100BA0000020E9E70000002070B50C0005460CD0DD
:100BB000142000F087FF00280AD000210160416066
:100BC000C5608160002C08D009E028461430F0E7A9
:100BD00004A0FFF739FB002070BD04461434046103
:100BE00070BD00004572726F7220416C6C6F6320A3
:100BF0006D656D65727921210A00000010B50A4605
:100C00000446C16880688018FFF72AFC2069405CB0
:100C100010BD0021416001608160704730B50A4D10
:100C20002B682C68A3422C6802D9E41A641E00E0E9
:100C3000E41A944206D804688C4201D3012030BDE6
:100C4000002AEED1002030BD000000200D48016ACE
:100C50004A070121002A03DA0B4A117004220262BA
:100C6000026A520404D5094A1170012292030262F9
:100C700004484030026A120703D5054A1170082162
:100C800001627047004000505800002059000020C9
:100C90005A00002010B58369140E8C4023438361F1
:100CA000C3691202120A8A401343C36110BDF0B532
:100CB000002301273C469C400C4208D005685C009C
:100CC0000326A640B5431646A640354305605B1C87
:100CD000102BEFD3F0BD0000F8B5264C01221146D1
:100CE0002046FFF7E4FF002204212046FFF7DFFF44
:100CF0000127BF03002239462046FFF7D8FF012213
:100D0000D1032046FFF7D3FF1A4D012240350421BD
:100D10002846FFF7CCFF002208212846FFF7C7FF2F
:100D2000606A042630436062606A38436062686AC1
:100D3000082108436862012202212046FFF7AAFF2A
:100D400001220E212046FFF7A5FF0122032128469C
:100D5000FFF7A0FF084833210160606930436061FC
:100D600005490120803108600022CA630249C03170
:100D70008860F8BD0040005080410050044603A048
:100D8000FFF762FA204600F049FEFEE7496E204870
:100D9000617264204661756C742048616E646C6594
:100DA000720A000010B50446202000F08BFE0028D7
:100DB00000D0046010BD10B504460068806880470C
:100DC00020680168FF20884720712068C06880473C
:100DD000207910BD70B5044600680D4680688047D4
:100DE0002068026828469047207120684068804744
:100DF00005462068C0688047284670BD70B5044627
:100E00000068154680680E468047216820200968E2
:100E10003043884720712068016828468847206849
:100E2000C068804770BD00000348102101600901BF
:100E3000016049010160704700E100E0FEB5044631
:100E4000174638A005C8002501920090002C38D024
:100E50006A461171080A50712069FFF7DAFE206AAC
:100E60000621026868469047FA2204212069FFF7AC
:100E7000D5FE00284FD000212069FFF7BFFE69464C
:100E80000979884247D101212069FFF7B7FE6946F9
:100E9000497988423FD102212069FFF7AFFE06461B
:100EA00003212069FFF7AAFE000206431F4AB11D75
:100EB0002069FFF7B3FE00282DD00020311D2269E4
:100EC00007E00020FEBD13691B5C5B19401C9DB24E
:100ED00080B28842F7D3311D1046FFF78FFEE9B28A
:100EE000884218D1711D2069FFF788FE290A8842BF
:100EF00011D1002505E0291DFFF780FE78556D1CF6
:100F0000ADB22069B542F6D3FFF783FE616A0120D6
:100F100088473046FEBD2069FFF77BFE616A0120ED
:100F20008847CEE7AA0E000000000000B80B0000C2
:100F3000F0B504000D462EA003C887B005900691B9
:100F40002DA003C8049103904FD068468575206991
:100F5000FFF75FFE206A0621026805A89047FF267A
:100F600006270020F5360097019602903B460022A6
:100F700003A92069FFF7C6FD002834D00A2069467E
:100F80004873207D88730120009701960290062304
:100F90001A4603A92069FFF7B5FD06001CD0257588
:100FA00009212069FFF72AFE05460A212069FFF77B
:100FB00025FE000205430B212069FFF71FFE0004F8
:100FC0000543A56121892846891FFFF749FAE06199
:100FD000002901D0401CE0612069FFF71AFE616A18
:100FE00001208847304607B0F0BD0020FBE7000035
:100FF000AA04000000000000AA0E04000000000087
:10100000FFB504000F461AA003C887B003900491EF
:1010100019A003C816460691059026D06946CF73DD
:101020000E740A9848742069FFF7F3FD206A0621C0
:10103000026803A89047FF210022F53106206B4685
:1010400007C3062305A92069FFF75CFD050003D04F
:10105000A770E6700A9820712069FFF7DAFD616ACF
:101060000120884728460BB0F0BD0020FBE70000B8
:10107000AA01000000000000AA0E0100000000000C
:10108000FFB5074681B01D461646282000F01AFD20
:10109000040007D0278000210298FFF785FD266213
:1010A00065622061204605B0F0BD000030B5040047
:1010B00016A003C887B00390049116A003C8069138
:1010C000059021D02069FFF7A4FD206A062102685F
:1010D00003A89047206A0621026803A89047FF21D1
:1010E0000022F53106206B4607C30C2305A92069B1
:1010F000FFF708FD05462069FFF78BFD616A0120B7
:101100008847284607B030BD0020FBE7AA0D000045
:1011100000000000AA0E0D000000000070B50400E1
:101120000D4618A003C888B00390049117A003C807
:101130000691059024D06946CD73280A0874206969
:10114000FFF767FD206A0621026803A89047FF2188
:101150000022F53106206B4607C3062305A9206946
:10116000FFF7D0FC060000D025812069FFF751FD74
:10117000616A01208847002E02D0012008B070BDAE
:101180000020FBE7AA06080000000000AA0E0600E7
:1011900000000000F0B504000F461AA003C887B095
:1011A0000390049119A003C815460691059026D016
:1011B00069468F73CD73280A08742069FFF729FDEB
:1011C000206A0621026803A89047FF210022F5311A
:1011D00006206B4607C3062305A92069FFF792FC8A
:1011E000060001D06771E5802069FFF712FD616A92
:1011F00001208847002E02D0012007B0F0BD00205A
:10120000FBE70000AA05000000000000AA0E050090
:10121000000000000E4988690E4A104388610520CD
:101220000007826B11231A438263826B1B041A43EB
:1012300082630A68084B1A430A60016B074A11432C
:101240000163016B0163416B4163816B8163704793
:101250004000005000770077111100000060660622
:101260000248C1680D229143C160704700000340ED
:10127000044801680122114301600168C943C9079C
:10128000FBD070470000034005480168012211436C
:1012900001600168C943C907FBD00069C0B270474B
:1012A000000003400349C8680D229043401CC860F9
:1012B00070470000000003400649086208680122E8
:1012C000104308600868C043C007FBD00869C0B27B
:1012D000704700000000034010B5029C202B00D195
:1012E0000023DB000B4313430360214600F002F8A8
:1012F00010BD0000F8B5364C0E460546334F354953
:10130000354A63103548BD4216D14769BF01BF0F4A
:10131000012F05D04769BF01BF0F04D0476918E00E
:10132000FFF738FA01E0FFF78BFA044635E0006872
:10133000400731D5144630E0294FBD4212D18769AC
:10134000BF01BF0F012FEBD08769BF01BF0FEAD0EC
:101350008769BF01BF0F022F1FD004692407E6D59C
:101360000C461AE01F4FBD420AD147693F01BF0F2B
:10137000012FD5D047693F01BF0FD4D0476909E09D
:1013800087693F01BF0F012FCAD087693F01BF0F97
:10139000C9D087693F01DDE71C46A64200D9264631
:1013A000002E11D031462046FFF75AF8401EFF2884
:1013B00000D9FF20A968090A09020143A960411C5C
:1013C0002046FFF74DF8F8BD0020F8BD00000340AF
:1013D00000366E01005125020024F4000002005086
:1013E0000000134000000D4006498A695205FCD4F4
:1013F00008600A2804D188694005FCD40D200860E3
:10140000704700000000054038B50B48FFF7A4F90D
:101410000A48FFF7A1F90A4C0823042200210948D1
:101420000094FFF759FF0823042200210648009486
:10143000FFF752FF38BD00000C008CA70F00ACC7AF
:1014400040420F000000034000001E4010B5154C44
:1014500020694007400F0FD001280FD0022810D07C
:10146000032811D0042811D00F48E1690907090F9A
:10147000491CFEF7F5FF10BD0C48F6E70120C0033C
:10148000F3E700F01DF8F0E70948EEE720690007F0
:1014900001D50848E9E72068800401D50648E4E75B
:1014A0000648E2E70002005000093D0000366E01E8
:1014B00010270000005125020024F400001BB70093
:1014C00010B512494A6AD00301D5002010BD50035F
:1014D000830F0CD0800F01280BD00D489104920689
:1014E000890E920E5043491CFEF7BAFF10BD094801
:1014F000F4E70869000701D50748EFE708688004AA
:1015000001D50648EAE70648E8E700000002005077
:1015100000093D0000366E01005125020024F40050
:10152000001BB70010B5FFF791FF044C0449206081
:101530004A108018FEF794FF606010BD6000002024
:1015400040420F000A48826802210A4382600A4B27
:10155000084A5A60094A126AFF231B049A43084B3F
:101560001A43084B1A6382688A43826070470000FE
:101570000002005065A900000080004000010050FA
:101580000030B000C081004001490120086170476F
:101590000000014038B5114D2869114CC10606D430
:1015A0000AE020680121006A426868469047A869FD
:1015B0008007F6D510210CE0C00706D138BD2068A1
:1015C0000121006A426868469047A8698007F6D5FD
:1015D0000121284600F024F838BD00000000154025
:1015E0003000002070B5044601460122054800F095
:1015F00063F805460448214600680069FFF76AFA67
:10160000284670BD00001540300000200A4610B585
:101610000146024800F070F810BD000000001540BF
:101620004A0703D570228261012242610A0704D56C
:10163000C26901239B041A43C2618A0602D5FF22B4
:10164000023282614A0601D5402202610A0601D5B2
:1016500006224261C90501D5382141617047C2683F
:101660000A43C2607047000070B50E46044600F0A1
:10167000F9F8054660680C21884360600020A0638B
:101680000320A060002E13D0700840193146FEF7E9
:10169000E7FE0849401E884209D9F000401931464A
:1016A000FEF7DEFE01210009C907401E0843606203
:1016B00070BD0000FFFF000070B50446002001254A
:1016C000AD070CE0002304E05B1CAB4201D300201B
:1016D00070BDA669B607F7D423680B54401C90422E
:1016E000F0D370BD026A520A52020A430262C16814
:1016F00010221143C160704770B5044600200125D7
:10170000AD070CE0002304E05B1CAB4201D30020DA
:1017100070BDA669B605F7D50B5C2360401C9042EE
:10172000F0D170BD70B52848FFF716F82748FFF7CD
:1017300013F8E125264C6D0229462046FFF794FF59
:101740002946244D2846FFF78FFFA1680320000299
:101750000143A160A9680143A960FF212046FFF76A
:10176000C1FFFF212846FFF7BDFF11212846FFF7E3
:1017700076FFFFF707F8014617A0FEF765FDFFF7B4
:1017800009F8014619A0FEF75FFDFFF70BF80146C7
:101790001BA0FEF759FDFFF70FF801461DA0FEF74D
:1017A00053FDFFF715F801461FA0FEF74DFDFFF7AB
:1017B0002BF8014621A0FEF747FDFFF741F801464F
:1017C00023A0FEF741FD70BD103D00AE913D00CE5F
:1017D00000000540000015404350552046726571D9
:1017E0002020203A202564487A0A000048434C4BC8
:1017F000204672657120203A202564487A0A00004C
:1018000048585420467265712020203A20256448AB
:101810007A0A00004C585420467265712020203A04
:10182000202564487A0A000050434C4B3020467211
:101830006571203A202564487A0A000050434C4BD9
:10184000312046726571203A202564487A0A0000EA
:10185000504C4C20467265712020203A2025644867
:101860007A0A000010B51C4B002201241B49984243
:1018700006D148694207C869520F0005040F08E005
:10188000174B984206D188694207C869520F000475
:10189000040F641C002A0AD0012A0AD0022A0BD0A5
:1018A000032A0CD00F482146FEF7DAFD10BD0E4882
:1018B000F9E70120C003F6E7FFF702FEF3E7086946
:1018C000000701D50948EEE70868800401D50848FB
:1018D000E9E70848E7E70000000005400002005083
:1018E0000000154000093D0000366E010051250240
:1018F0000024F400001BB70030380A2801D2012070
:101900007047002070470020C043704700B5034671
:10191000FFF76AFD184600BD204C59201621882289
:1019200002E02060216022602368012BF9D1FFF7DB
:1019300071FCFFF76DF8FFF7F5FEFFF7CDF9FFF744
:1019400063FDFFF771FAFFF717F8002020601449D4
:101950000120C8631348FFF725FA134D00242860BF
:10196000E1B22868FFF736FA024621460FA0FEF7DB
:101970006BFC641C122CF3D31121286800F01EF8B4
:101980000024E1B22868FFF725FA0246214607A0A5
:10199000FEF75AFC641C122CF3D3FEE70001005042
:1019A00000420050140000205C0000207265672097
:1019B0002564203A20307825580A000070B50C467E
:1019C0000546FFF7F8F9FF2827D00B22002128460B
:1019D000FFF714FA002201212846FFF70FFA002230
:1019E00002212846FFF70AFA032211462846FFF78C
:1019F00005FA0F2204212846FFF700FA22460521A6
:101A00002846FFF7FBF90F2206212846FFF7F6F9D3
:101A1000702207212846FFF7F1F970BD10B5044682
:101A2000016810A0FEF710FC11A06168FEF70CFC25
:101A300012A0A168FEF708FC13A0E168FEF704FC01
:101A400014A02169FEF700FC15A06169FEF7FCFBFC
:101A500016A0A169FEF7F8FB17A0E169FEF7F4FBF9
:101A600010BD0000723020203D20307825780A001B
:101A7000723120203D20307825780A0072322020F3
:101A80003D20307825780A00723320203D203078C0
:101A900025780A00723132203D20307825780A00FE
:101AA0006C7220203D20307825780A007063202059
:101AB0003D20307825780A00707372203D20307800
:101AC00025780A00F8B50024234F0546009478686D
:101AD0002646002801D100F041F8680702D0ED1D2C
:101AE000ED08ED001C4A28460832083084461A48A2
:101AF0001168476817E04868A84209D1164803688A
:101B00005B1B083B03600846096808301160F8BD9C
:101B1000604506D3002C02D06368984201D20C467F
:101B200016460A460968B942E5D1002C11D00A4888
:101B30000168491B0839016020460830009060198F
:101B4000216881606168491B0839C160083065609F
:101B500030600098F8BD000004000020104810B567
:101B60000E49420705D0C01DC0080D4AC000821AA8
:101B7000891A0C4A002413461160083311C308392E
:101B80004018506004605068083B44601868516811
:101B90000160091A0839416010BD0000B80B00004F
:101BA0006C00002004000020010000000200000082
:101BB0000400000008000000100000000100000008
:101BC0000100000001000000010000000200000010
:101BD00004000000080000001000000001000000E8
:101BE0000100000001000000303132333435363757
:101BF0003839414243444546403058003031323351
:101C00003435363738396162636465664030780050
:101C100004000008000000000000000200010000B5
:101C200010000000441C0000000000206C000000B8
:101C300004010000B01C00006C0000201C12000019
:101C40002001000000000000000000000000000073
:101C50000000000000000000B9120000891200001E
:101C6000A512000061120000711200000D160000A4
:101C7000E515000000000000E4070000010000007E
:101C80000100000000000000000000000000000053
:101C90000000000001000000000000000000000043
:101CA00000000000001BB7000C0000000000000056
:04000005000001D125
:00000001FF
