:020000040000FA
:10000000681C0020D1010000F90100007D01000002
:1000100000000000000000000000000000000000E0
:10002000000000000000000000000000FD010000D2
:100030000000000000000000FF01000001020000BD
:100040000302000031270000030200000302000049
:10005000050F000003020000030200000000000082
:10006000030200000302000003020000030200007C
:1000700021250000A125000003020000030200006A
:1000800003020000F1100000030200000302000060
:10009000030200000302000003020000030200004C
:1000A0002D0800000302000003020000030200000C
:1000B000F51E000003020000030200003D1F0000C7
:1000C00000F002F800F04BF80CA030C808382418F3
:1000D0002D18A246671EAB4654465D46AC4201D180
:1000E00000F03DF87E460F3E0FCCB6460126334267
:1000F00000D0FB1AA246AB46334318474C2C0000F5
:100100006C2C0000103A02D378C878C1FAD8520794
:1001100001D330C830C101D504680C6070470000BD
:100120000023002400250026103A01D378C1FBD813
:10013000520700D330C100D50B60704710B5642959
:1001400002D100F0B7F810BD782902D100F0E8F82C
:1001500010BD002010BD1FB51FBD10B510BD00F0B3
:1001600035FB1146FFF7F7FF02F084FB00F04DFB73
:1001700003B4FFF7F2FF03BC00F050FB042071460C
:10018000084202D0EFF3098001E0EFF308807146E6
:10019000004A10474111000070B505460C4616464E
:1001A00002E00FCC0FC5103E102EFAD2082E02D35B
:1001B00003CC03C5083E042E07D301CC01C5361F6E
:1001C00003E021782970641C6D1C761EF9D270BD85
:1001D0000F48104901601049016010490160104A40
:1001E00010491160104A11491160114880470848B0
:1001F000002101600F480047FEE7FEE7FEE7FEE74B
:10020000FEE7FEE70C480D490D4A0E4B7047000013
:100210000001005059000000160000008800000096
:1002200060000050A55A000014000050C0000000FB
:10023000DD240000C100000068150020681C0020BB
:1002400068170020681700200FB4054910B503AAED
:10025000029800F077FA10BC08BC04B01847000000
:10026000A400002070B5044685690068C10601D568
:10027000302600E02026C00707D070BD62683046F7
:10028000A1689047206A401C20626D1EF6D570BDA3
:1002900070B5044685690078C00707D170BD6268F3
:1002A000A16820209047206A401C20626D1EF6D570
:1002B00070BD0000F7B5002575291068009914A6D7
:1002C00011D0C046C046002802DA404211A608E01C
:1002D000009909688A0701D50FA602E0490704D5ED
:1002E0000EA6012501E0C046C046009F0024243729
:1002F00004E000F03BFA30313955641C0028F8D195
:100300002B4632462146009800F0C3F9FEBD00009E
:10031000000000002D0000002B0000002000000065
:1003200070B504460D4621461068C046C046218877
:10033000090502D50F4A7A4402E00E4A7A440E3289
:1003400023460021243305E006070009360F965D99
:100350005E54491C0028F7D120780023000705D5FA
:10036000702D03D0002901D002231132204600F065
:1003700090F970BDD4290000F3B50446002081B087
:1003800020622046E168884700287DD0252802D0D9
:100390006268A16883E0454F00257F442046E168FC
:1003A00088472028064608DB312E06D2B8192038A7
:1003B0000078002801D00543F0E7A80701D5042004
:1003C00085430020E0610746A0612A2E0AD030460E
:1003D00002F040FA002827D0B8000019303E009003
:1003E000866119E00298BA00121902C89161029060
:1003F0002046E1688847012F064617D1E0690028AA
:100400001FDA202085431CE000980A2180694843B8
:1004100000998019303888612046E168884706468F
:1004200002F018FA0028EFD1012F0AD02E2E08D1A1
:100430002046E16888470646202005437F1C022F9E
:10044000C3DBA069002803DA4042A0610120054314
:10045000E80701D010208543002E24D030464138D3
:10046000192803D80120C002054320362046256004
:100470003146029A1546FFF761FE00280CD001288C
:1004800007D0ED1DE80800E00DE0C0000830029044
:1004900077E72D1D029574E762683046A1689047A2
:1004A000206A401C6CE7206AFEBD0000982900000D
:1004B000F8B5042A2CD3830712D00B78491C03709B
:1004C000401C521E83070BD00B78491C0370401C44
:1004D000521E830704D00B78491C0370401C521E27
:1004E0008B079B0F05D0C91ADF002023DE1B08C92C
:1004F0000AE0FFF751FEF8BD1D4608C9FD401C4645
:10050000B4402C4310C0121F042AF5D2F308C91AB4
:10051000521EF0D40B78491C0370401C521EEAD4C2
:100520000B78491C0370401C012AE4D4097801703F
:10053000F8BD002203098B422CD3030A8B4211D34E
:1005400000239C464EE003460B433CD40022430864
:100550008B4231D303098B421CD3030A8B4201D354
:1005600094463FE0C3098B4201D3CB01C01A5241EC
:1005700083098B4201D38B01C01A524143098B423C
:1005800001D34B01C01A524103098B4201D30B0125
:10059000C01A5241C3088B4201D3CB00C01A52414A
:1005A00083088B4201D38B00C01A524143088B420F
:1005B00001D34B00C01A5241411A00D201465241A8
:1005C000104670475DE0CA0F00D04942031000D3C7
:1005D0004042534000229C4603098B422DD3030A1C
:1005E0008B4212D3FC22890112BA030A8B420CD32C
:1005F000890192118B4208D3890192118B4204D355
:1006000089013AD0921100E08909C3098B4201D3D4
:10061000CB01C01A524183098B4201D38B01C01A0E
:10062000524143098B4201D34B01C01A5241030985
:100630008B4201D30B01C01A5241C3088B4201D334
:10064000CB00C01A524183088B4201D38B00C01AE1
:100650005241D9D243088B4201D34B00C01A5241B8
:10066000411A00D20146634652415B10104601D345
:100670004042002B00D54942704763465B1000D3CF
:10068000404201B50020C046C04602BD70477047D9
:100690007047FFB504460D4681B0243000902168B4
:1006A000880604D51022E0699143216000E0012012
:1006B000A84201DD471B00E000270498A1697A19D0
:1006C0001018081AA0612078C00602D42046FFF74F
:1006D000C9FD002608E003986268A168805D904724
:1006E000206A401C761C206204988642F3DB207846
:1006F000C0060AD52046FFF7B5FD06E06268A1688E
:1007000030209047206A401C206238467F1E002817
:10071000F4DC07E000986268A168405D9047206AB9
:10072000401C206228466D1E0028F3DC2046FFF79F
:10073000AFFD2078000602D5022005B0F0BD0120F3
:10074000FBE70000084B70B50D467B4400F027F82E
:100750000446284602F085F8002802D00020C04355
:1007600070BD204670BD00001B21000001468008BE
:10077000081A02091018020A1018020C1018C008F2
:10078000820012185200891A01E0401C0A390A2915
:10079000FBD2704701694A1C02610878704700B5B6
:1007A0008FB002910021059105490193794403918D
:1007B000114604906846FFF7DFFD0FB000BD000052
:1007C000E5FFFFFF00487047081500207546FFF75A
:1007D000F9FFAE46050069465346C008C00085468D
:1007E00018B020B5FFF70EFD60BC00274908B646DB
:1007F0000026C0C5C0C5C0C5C0C5C0C5C0C5C0C530
:10080000C0C5403D49008D46704710B50446C046FE
:10081000C0462046FFF7ACFC10BD0000014918207F
:10082000ABBEFEE7260002007047000010B5054C85
:100830002068800704D504A0FFF706FD0220206091
:1008400010BD0000400200504C58542053746F708B
:1008500021210A00C10F8A00044951184A68C306C1
:10086000DB0E0120984002434A60704700020050AE
:1008700002490A6802430A60704700000002005003
:1008800010B501F01BFE0148006810BD9C0000205F
:1008900010B512494A6AD00301D5002010BD50039B
:1008A000830F0CD0800F01280BD00D4891049206C5
:1008B000890E920E5043491CFFF73BFE10BD0948BC
:1008C000F4E70869000701D50748EFE708688004E6
:1008D00001D50648EAE70648E8E7000000020050B4
:1008E00000093D0000366E01005125020024F4008D
:1008F000001BB70010B5074AD3691B091B010B4346
:10090000D3611169090909010143116101F0D6FDA3
:1009100010BD00000002005070B5840A23061B0EB3
:100920000CD003039B0F0F4D9B005B191D688605C0
:10093000E4B2F60EB440A54315431D60420E120703
:100940000ED04200074B920F92000C3BD218136856
:10095000C400240FC001C00E8440A3430B431360A6
:1009600070BD00001C02005003494A6BD208D2003F
:1009700002434A637047000000020050034A516B73
:1009800070239943014351637047000000020050F7
:100990000649096848430649486100228A610520E2
:1009A00008610869C003FCD50A617047A0000020F7
:1009B00000E000E010B504460749084B05E00A4690
:1009C000491E002A01DC002010BDDA682046904351
:1009D000F5D1012010BD000080F52000000200507C
:1009E0007D2110B5C900484300F0B4F910BD0000E6
:1009F000F0B53FA003C88FB03F4C01910090206933
:100A000000F0F9FF206900F043FF3C4E0025B5607F
:100A1000E068416A7D200001884739A0FFF714FC97
:100A2000E068006900F051FAE06801F0AFF90723CF
:100A300003221946E06801F053F900221146E068EC
:100A400001F018FA2621E06801F0D8F90121E068E8
:100A500001F0DEF8E06881692EA0FFF7F5FBE168A0
:100A600000206A460B1817181B7E401CBB70042818
:100A7000F8D32078002800D00120E178490008430D
:100A80009179084390710821104601F01BF8E57038
:100A9000002817D000270AE0B9B202AA01F03EF8F8
:100AA000014602A801F00EF8002804D07F1CE0687F
:100AB000C169B942F0D82178002906D01A4801F05E
:100AC00001F802E019A0FFF7BFFB0120B060E06869
:100AD000416A7D2000018847206900F062FF20699B
:100AE00000F0C8FEA06900F0F0F965700FB0F0BD2D
:100AF0005EDB00000000000A300000204042005091
:100B00005374617274204765742050696374757200
:100B1000650A0000506963747572652073697A65AF
:100B20002069732025640A00A414002053656E64B4
:100B30002064617461206572720A0000FEB5744D14
:100B4000A86900F085F900287DD100240427D4E0AD
:100B50000026019600970296042332466DA1A869EB
:100B600000F024F900286FD06AA0FFF76DFB019612
:100B7000009702960823042268A1A86900F016F9DC
:100B8000002831D065A0FFF75FFB03200196029695
:100B900000900B23082263A1A86900F007F9002840
:100BA0000ED061A0FFF750FB00220B21A86900F0D6
:100BB00091F9002804D001206870A86900F085F937
:100BC00003200196029600900B23082258A1A869E1
:100BD00000F0ECF8002807D056A0FFF735FB012005
:100BE000A870A86900F071F9019600970296082391
:100BF000042252A1A86900F0D9F8002879D04FA0AA
:100C0000FFF722FB0196009702960C2308224DA1C4
:100C1000A86900F0CBF800286BD04AA0FFF714FBBE
:100C200000221021A86900F055F9002861D00C219C
:100C3000A86900F03FF97D21C90030384843686059
:100C40000D21A86901E062E053E000F033F964216E
:100C50004843696840184B218901401A68600E2199
:100C6000A86900F027F90A21484369684018FF384D
:100C7000E13868600F21A86900F01CF96968401824
:100C800030386860696831A0FFF7DEFAAE60A869A5
:100C900000F01BF96868002825D06E681C492422E2
:100CA00020318818FFF778FAE12109013046FFF773
:100CB00040FCC6B208463C21FFF73BFCC2B21448D8
:100CC000C9B2443003699B19036143699A184261B0
:100CD000826951188161243801F018FA0C484430B7
:100CE00001F0B8F905E0286900F00DFE28694068B8
:100CF00080477D20C00000F02DF82046FF21641CB5
:100D0000F531884200D223E7A86900F0DEF8FEBD85
:100D100030000020434D443A000000004745543A5B
:100D200000000000494D4700494D470A00000000FF
:100D3000475053004750530A000000005345543AAF
:100D4000000000004359433A00000000253034649D
:100D50000A000000F8B5012700243F040546060CF0
:100D600003E03846FFF714FE641CA642F9D82804B5
:100D7000000C02D1A8B2FFF70BFEF8BDC3680268F1
:100D80009A4211D2436802690978D1540168491C1A
:100D90000160C2684168521E914201D2491C00E0C4
:100DA000002141600120704700207047FFB52748AF
:100DB00083B00C9E076803980599C068884243D3A6
:100DC000401A984200D203460693B3423CD3881996
:100DD0000090039800990068884227D3401A06992A
:100DE000891B814200D80846002502901BE0059827
:100DF0000024401901900EE001980119039800F0B9
:100E000059F80499095D884204D00E98002804D04E
:100E1000002902D1641CB442EED3B44202D10120B5
:100E200007B0F0BD6D1C02988542E0D90748016803
:100E300000688F4202D9C01B401E00E0C01B0D9904
:100E4000884201D80029C4D10020E9E70000002031
:100E50000068002801D00020704701207047000082
:100E600070B50C0005460CD0142001F0D9FE002806
:100E70000AD0002101604160C5608160002C08D06B
:100E800009E028461430F0E704A0FFF7DDF9002060
:100E900070BD04461434046170BD00004572726F69
:100EA0007220416C6C6F63206D656D6572792121D4
:100EB0000A00000010B50A460446C1688068801820
:100EC000FFF737FB2069405C10BD002141600160E5
:100ED0008160704730B50A4D2B682C68A3422C689E
:100EE00002D9E41A641E00E0E41A944206D80468A9
:100EF0008C4201D3012030BD002AEED1002030BD4C
:100F000000000020F0B51C4889B0016A490406D5EC
:100F10001A4A012111701A4A117089030162164F91
:100F20004037386A000725D5164E306800F0CFFCF0
:100F30003068017C490618D500F006FD05460246DA
:100F40006946306800F03FFD002407E0684601195B
:100F50000D480068FFF712FF641CE4B2AC42F5D301
:100F60003068027C072100F089FD3068017C007C3C
:100F70000820386209B0F0BD004000503100002068
:100F800033000020400000204800002010B5836995
:100F9000140E8C4023438361C3691202120A8A40F3
:100FA0001343C36110BDF0B5002301273C469C40AC
:100FB0000C4208D005685C000326A640B5431646DF
:100FC000A640354305605B1C102BEFD3F0BD00003D
:100FD00010B50A4C206800F00EFD206800F058FCA7
:100FE0000748FFF7B7FE074800680168006900F08E
:100FF00069FD206800F0D5FC10BD00004000002015
:10100000102700004C000020F8B51E2622480024BE
:1010100004702248224F0470BC6022480068416A74
:101020002148884733E00024204825460470017891
:101030000029FCD0FFF7CCFF1D48006801690AE0D9
:10104000641C2C2A00D16D1C0268A24203D819A08E
:10105000FFF7FAF81DE00A5D022DF1D3562A11D0F0
:10106000134A12681269125D412AF0D102680B48D6
:1010700002701548FFF71CFA0120B86013A0FFF7B3
:10108000E3F8F8BD17A0FFF7DFF801F0A1F8761E2E
:10109000C9D20120B860F8BD320000203000002025
:1010A000404200503C000020B80B00009800002097
:1010B0004C000020475053205363616E20457272EC
:1010C0006F722E0A00000000A41400204750532025
:1010D0005363616E207375636365737366756C2EFD
:1010E0000A000000475053204E554C4C2E0A000079
:1010F00070B5074DAC69600703D506A0FFF7A4F8EB
:10110000AC61A00703D508A0FFF79EF8AC6170BDE5
:10111000800000504C585420436C6F636B20657204
:10112000726F722E0A0000004849524331203A2063
:101130005472696D204661696C7572652E0A0000F3
:10114000044603A0FFF780F8204601F015FDFEE7F6
:10115000496E2048617264204661756C7420486154
:101160006E646C65720A000010B50620FFF780FB04
:101170000220FFF71FFC04461020FFF71BFC04436E
:10118000F6D00420FFF774FB1020FFF713FC0028B3
:10119000FAD00820FFF76CFB0820FFF70BFC0028B3
:1011A000FAD0114C2068F02108432060062102206B
:1011B00001F0EEF8A068C007FCD000210420FFF782
:1011C00099FB0020FFF7D0FB0020FFF7D7FB074873
:1011D000826B02210A438263C26B0A43C26304A08A
:1011E000FFF732F810BD00008000005000020050F0
:1011F00053797374656D20636C6F636B20686173E2
:10120000206265656E20696E697469616C697A65D2
:10121000642E0A00F8B53F4C6068012109040843B8
:101220006060606889000843606060684A0010433D
:10123000606060688B00184360606068CB00184392
:10124000606060680E013043606060688D01284313
:1012500060606068CD012843606060684D0328438A
:1012600060602C4D403568684F103843686068688E
:10127000084368606868184368602648803043689F
:101280008F103B43436043681343436022484368E5
:101290000B43436041681143416041683143416001
:1012A0004168120111434160606A56123043606226
:1012B000686A082108436862022201212046FFF77C
:1012C00072FE002231462046FFF76DFE0122D10357
:1012D0002046FFF768FE012204212846FFF763FE3F
:1012E000002208212846FFF75EFE0122032128463E
:1012F000FFF74CFE01220E212046FFF747FE06496C
:101300000020C031C863054A9060086004A0FEF761
:101310009BFFF8BD0040005040410050404200504B
:101320004750494F20686173206265656E20696E81
:10133000697469616C697A65642E0A0010B51F20B2
:1013400000F0B2FB0C2000F0AFFB0D2000F0ACFB76
:10135000042000F0A9FB182000F0A6FB012000F0FB
:10136000A3FB1C2000F0A0FB01A0FEF76DFF10BD49
:101370004E56494320686173206265656E20696E30
:10138000697469616C697A65642E0A0010B505207C
:101390000007016B0163416B4163816B084A114394
:1013A000816308480168084A114301600021816196
:1013B0008169064A1143816105A0FEF745FF10BD12
:1013C000110011004000005011110000770000775B
:1013D00050696E2066756E6374696F6E2068617304
:1013E000206265656E20696E697469616C697A65F1
:1013F000642E0A00F8B500F0BFF8002005210907A7
:10140000086348638863C8631B4908604860886054
:10141000C8600861194A8A61194A0902516218496B
:10142000042340314B621649803148621449C0316F
:10143000486214494862134940314862124C012104
:1014400021600D4A5925C0321626882702E0156012
:101450001660176011680129F9D10C490A68202526
:101460002A430A600A4A13610A6840231A430A6041
:1014700030BF2060F8BD000040000050FF0000FFBA
:101480000040005000410050004200500002005057
:1014900000ED00E010B51C480268052109070A6349
:1014A00042684A6382688A63C268CA6302691749EC
:1014B0000A6042694A6082698A60C269CA60026AD7
:1014C0000A61406A8861104828300168104A5162F8
:1014D00041680F4A4032516281680D4A8032516240
:1014E000C1680B4AC032516201690A4A51624069BF
:1014F0000849403148620848016840229143016030
:1015000006A0FEF7A1FE10BD6414002040000050AC
:101510000040005000410050000200504D43552053
:1015200077616B652D7570210A00000010B50948C0
:10153000FFF790F9002000F015FD074800F0E6FDE8
:10154000002000F087FD012000F0ECFC03A0FEF776
:101550007BFE10BD01000CE05000002052544320DF
:10156000686173206265656E20696E697469616C7B
:10157000697A65642E0A000010B5052109070A6B17
:10158000194802604A6B42608A6B8260C96BC16015
:1015900016490A6802614A6842618A688261CA68BB
:1015A000C2610A690262896941621148416A0E4852
:1015B000283001600E494031496A41600C49803150
:1015C000496A81600A49C031496AC1600949496A6A
:1015D000016108494031496A416107A0FEF734FEC4
:1015E0000D48FFF7B7FB10BD641400204000005009
:1015F000004000500041005050696E2073657474C3
:10160000696E6720686173206265656E207361761C
:1016100065642E0A00000000A086010038B50B4C5E
:101620000321002209062046FFF776F92046FFF73E
:1016300011F907480090082304220021054800F012
:101640001FFE05A0FEF700FE38BD00000C008CA7B1
:1016500040420F000000034053504920686173204E
:101660006265656E20696E697469616C697A65642A
:101670002E0A000070B51D4C002203212046FFF702
:101680004BF91B4D002203212846FFF745F9204660
:10169000FFF7E0F82846FFF7DDF8164C4B21C901AB
:1016A000204600F0E7FF144DE1214902284600F0F2
:1016B000E1FFA168032000020143A160A968014382
:1016C000A960FF21204601F013F8FF21284601F010
:1016D0000FF81121204600F0C8FF1121284600F024
:1016E000C4FF06A0FEF7B0FD70BD0000103D00AEC7
:1016F000913D00CE00000540000015405541525478
:1017000020686173206265656E20696E6974696125
:101710006C697A65642E0A0010B50A4C012100221A
:10172000C9072046FFF7F8F82046FFF793F80F2087
:1017300001223E21000201F01BF803A0FEF784FD08
:1017400010BD00000000ECA7575744542068617397
:10175000206265656E20696E697469616C697A657D
:10176000642E0A0010B5074B074A3221012000F011
:10177000F7FA0649C86006490120886005A0FEF70F
:1017800063FD10BDE10900002800002030000020AA
:101790004042005043616D65726120686173206250
:1017A00065656E20696E697469616C697A65642E1D
:1017B0000A00000010B50021C820FFF751FB0349C3
:1017C000C86103A0FEF740FD10BD000030000020FE
:1017D00047505320686173206265656E20696E69A9
:1017E0007469616C697A65642E0A000038B501205D
:1017F00000218002FFF734FB114C124BA061124A0A
:101800001249134800F052F85021206101F0B8F855
:1018100001200346014600900E4A206901F0FAF8C3
:101820006061206901F093F80A492069491D01F0BF
:1018300071F8206900F0B5F807A0FEF705FD38BD86
:1018400030000020BD1A0000C5210000D123000097
:1018500014000020042D00006E52462068617320A1
:101860006265656E20696E697469616C697A656428
:101870002E0A000010B50446006880688047206882
:101880000168E220884720742068C068804710BD46
:1018900010B5044600688068804720680168E12030
:1018A000884720742068C068804710BDF8B5074697
:1018B0001C4615460E46142001F0B2F9002805D04A
:1018C0000760466085600021C4600174F8BD10B5F2
:1018D000044600688068804720680168FF208847C8
:1018E00020742068C0688047207C10BD10B5044675
:1018F000002100F015F8FD21084002460021204695
:1019000000F0BCF810BD10B50446002100F008F846
:101910000221084302460021204600F0AFF810BD26
:1019200070B5044600680D468068804720680268EC
:101930002846904720742068406880470546206804
:10194000C0688047284670BD70B50446006880684E
:1019500080472068016860208847207420684068BC
:10196000804705462068C0688047284670BD10B58E
:10197000044600688068804720680168E320884743
:101980002068C068804710BD70B505460721FFF785
:10199000C7FF044602460721284600F06FF820469C
:1019A00070BD10B504468068804700212046FFF7CF
:1019B000B7FF0121084302460021204600F05EF8EF
:1019C0006068804710BDF8B5054600681646806817
:1019D0000F468047286801686120884728740024E2
:1019E00003E0406880473855641C2868B442F8D347
:1019F000C0688047F8BD10B5044680688047002164
:101A00002046FFF78DFF420852000021204600F0DB
:101A100035F810BDF8B505460068164680680F46D3
:101A2000804728680168A02088472874002404E0C3
:101A30002968385D09688847641CB442F8D328686F
:101A4000C0688047F8BDF8B5054600681E46806846
:101A500017460C468047296820200968204388479C
:101A60002874002404E02968385D09688847641CEC
:101A7000B442F8D32868C0688047F8BD70B5044602
:101A80000068154680680E46804721682020096856
:101A900030438847207420680168284688472068BA
:101AA000C068804770BD0000C106C90E0120884093
:101AB000014908607047000000E100E010B5FFF741
:101AC00049F910BDF3B581B00C460025114F17E060
:101AD000202C01D9202000E02046C6B201983346D0
:101AE00042190D49386900F0EFFF002806D1FF21A7
:101AF0002D31386901F010F8002805D0AD19A41B6C
:101B0000002CE5D10120FEBD3869FFF73DFF002024
:101B1000FEBD000030000020092D0000FEB5044687
:101B2000174638A005C8002501920090002C38D037
:101B30006A461171080A50712069FFF7C6F9206AD8
:101B40000621026868469047FA2204212069FFF7BF
:101B5000C1F900284FD000212069FFF7ABF9694691
:101B60000979884247D101212069FFF7A3F9694625
:101B7000497988423FD102212069FFF79BF9064647
:101B800003212069FFF796F9000206431F4AB11DA1
:101B90002069FFF79FF900282DD00020311D226910
:101BA00007E00020FEBD13691B5C5B19401C9DB261
:101BB00080B28842F7D3311D1046FFF77BF9E9B2B6
:101BC000884218D1711D2069FFF774F9290A8842EB
:101BD00011D1002505E0291DFFF76CF978556D1C22
:101BE000ADB22069B542F6D3FFF76FF9616A012003
:101BF00088473046FEBD2069FFF767F9616A01201A
:101C00008847CEE7AA0E000000000000B80B0000D5
:101C1000F0B504000D462EA003C887B005900691CC
:101C20002DA003C8049103904FD0684685752069A4
:101C3000FFF74BF9206A0621026805A89047FF26A6
:101C400006270020F5360097019602903B460022B9
:101C500003A92069FFF7AAF8002834D00A206946B2
:101C60004873207D88730120009701960290062317
:101C70001A4603A92069FFF799F806001CD02575BC
:101C800009212069FFF716F905460A212069FFF7A7
:101C900011F9000205430B212069FFF70BF900043D
:101CA0000543A56121892846891FFEF742FCE061B2
:101CB000002901D0401CE0612069FFF706F9616A44
:101CC00001208847304607B0F0BD0020FBE7000048
:101CD000AA04000000000000AA0E0400000000009A
:101CE000FFB504000F461AA003C887B00390049103
:101CF00019A003C816460691059026D06946CF73F1
:101D00000E740A9848742069FFF7DFF8206A0621EC
:101D1000026803A89047FF210022F53106206B4698
:101D200007C3062305A92069FFF740F8050003D083
:101D3000A770E6700A9820712069FFF7C6F8616AFB
:101D40000120884728460BB0F0BD0020FBE70000CB
:101D5000AA01000000000000AA0E0100000000001F
:101D6000FFB5074681B01D461646282000F058FFF3
:101D7000040007D0278000210298FFF771F826623F
:101D800065622061204605B0F0BD000030B504005A
:101D900016A003C887B00390049116A003C806914B
:101DA000059021D02069FFF790F8206A062102688B
:101DB00003A89047206A0621026803A89047FF21E4
:101DC0000022F53106206B4607C30C2305A92069C4
:101DD000FEF7ECFF05462069FFF777F8616A0120FE
:101DE0008847284607B030BD0020FBE7AA0D000059
:101DF00000000000AA0E0D000000000070B50400F5
:101E00000D4618A003C888B00390049117A003C81A
:101E10000691059024D06946CD73280A087420697C
:101E2000FFF753F8206A0621026803A89047FF21B4
:101E30000022F53106206B4607C3062305A9206959
:101E4000FEF7B4FF060000D025812069FFF73DF8BA
:101E5000616A01208847002E02D0012008B070BDC1
:101E60000020FBE7AA06080000000000AA0E0600FA
:101E700000000000F0B504000F461AA003C887B0A8
:101E80000390049119A003C815460691059026D029
:101E900069468F73CD73280A08742069FFF715F817
:101EA000206A0621026803A89047FF210022F5312D
:101EB00006206B4607C3062305A92069FEF776FFB7
:101EC000060001D06771E5802069FEF7FEFF616AB8
:101ED00001208847002E02D0012007B0F0BD00206D
:101EE000FBE70000AA05000000000000AA0E0500A4
:101EF0000000000010B5FFF7CDFA05480068FFF7B5
:101F000002FD04A0FEF7A0F905490120086310BDF9
:101F100040000020706F776572206F6E0A0000002D
:101F20000002005000B5034600F086F802498A6AB4
:101F30001A438A6200BD00000080004010B5064CC4
:101F4000E06AC00706D0054800F0E0F80449012027
:101F50000870E06210BD00000080004050000020CA
:101F600031000020F8B50446314D3048286029681A
:101F7000012903D0286028680128FCD1002C46D014
:101F8000E069002844D000F057F86869012108434F
:101F900068617D2021680001081A0A21FEF7C9FA4C
:101FA0000E04000506430A216068FEF7C2FA00032A
:101FB00030430E0206430A21A068FEF7BAFA000178
:101FC00030431C4E0143316000F036F83068286120
:101FD0000A212069FEF7ADFA0F04000507430A2124
:101FE0006069FEF7A6FA000338430F0207430A218F
:101FF000A069FEF79EFA000138430143316000F00A
:102000001BF83068E86000F017F8E068A861F8BDD8
:1020100000F012F86869400840006861206A0228F0
:10202000B7D1206914302061B3E700005713EBA546
:1020300000800040A8000020044905484160426833
:10204000D203FBD54168C901FCD4704765A90000E3
:1020500000800040F8B50446FFF7EEFFE069294E26
:102060000028706943D0012108437061FFF7E4FF45
:10207000207B4007400FB0617D2021680001081AD5
:102080000A21FEF756FA0D04000505430A2160688F
:10209000FEF74FFA000328430D0205430A21A0680A
:1020A000FEF747FA00012843174D01432960FFF767
:1020B000C3FF286830620A212069FEF73AFA0F044C
:1020C000000507430A216069FEF733FA000338432D
:1020D0000F0207430A21A069FEF72BFA00013843DB
:1020E00001432960FFF7A8FF2868F061F8BD4008A8
:1020F00040007061206A0228B8D120691430206144
:10210000B4E7000000800040A8000020F8B50446B5
:10211000C0692A4E002846D0FFF78EFF7069012162
:1021200008437061FFF788FF207B4007400FB061D4
:102130007D2021680001081A0A21FEF7FAF90D0432
:10214000000505430A216068FEF7F3F90003284300
:102150000D0205430A21A068FEF7EBF900012843B0
:10216000174D01432960FFF767FF286830610A2196
:102170002069FEF7DEF90F04000507430A216069B4
:10218000FEF7D7F9000338430F0207430A21A0697D
:10219000FEF7CFF90001384301432960FFF74CFFF8
:1021A0002868F060F8BD7069400840007061206ADE
:1021B0000228B7D1206914302061B3E700800040C5
:1021C000A800002001490020C86370470042005069
:1021D00010B5064C20780028FCD006490448086059
:1021E00005A0FEF731F80020207010BD99000020F6
:1021F000A55A000000410040777764742072656C36
:102200006F61640A000000000248C1680D2291431A
:10221000C160704700000340044801680122114377
:1022200001600168C943C907FBD070470000034043
:10223000054801680122114301600168C943C907CB
:10224000FBD00069C0B27047000003400349C86872
:102250000D229043401CC8607047000000000340FE
:102260000649086208680122104308600868C043F4
:10227000C007FBD00869C0B27047000000000340EF
:1022800010B5029C202B00D10023DB000B4313432D
:102290000360214600F002F810BD0000F8B5364C8E
:1022A0000E460546334F3549354A63103548BD4221
:1022B00016D14769BF01BF0F012F05D04769BF0184
:1022C000BF0F04D0476918E0FEF7DAFA01E0FEF725
:1022D000DFFA044635E00068400731D5144630E0A7
:1022E000294FBD4212D18769BF01BF0F012FEBD02B
:1022F0008769BF01BF0FEAD08769BF01BF0F022FF7
:102300001FD004692407E6D50C461AE01F4FBD42D2
:102310000AD147693F01BF0F012FD5D047693F015F
:10232000BF0FD4D0476909E087693F01BF0F012F74
:10233000CAD087693F01BF0FC9D087693F01DDE778
:102340001C46A64200D92646002E11D03146204612
:10235000FEF7EFF8401EFF2800D9FF20A968090A00
:1023600009020143A960411C2046FEF7E2F8F8BDCE
:102370000020F8BD0000034000366E010051250228
:102380000024F400000200500000134000000D4043
:1023900010B5064A53680624A3430B4353601168E3
:1023A000C908C9000143116010BD00008000005041
:1023B00006498A695205FCD408600A2804D1886954
:1023C0004005FCD40D200860704700000000054067
:1023D00010B503490120C8630F20FEF7BBFC10BDF8
:1023E0000042005010B5154C20694007400F0FD037
:1023F00001280FD0022810D0032811D0042811D0B2
:102400000F48E1690907090F491CFEF792F810BD52
:102410000C48F6E70120C003F3E700F01DF8F0E7F1
:102420000948EEE72069000701D50848E9E7206878
:10243000800401D50648E4E70648E2E700020050C0
:1024400000093D0000366E011027000000512502F2
:102450000024F400001BB70010B512494A6AD003EB
:1024600001D5002010BD5003830F0CD0800F012830
:102470000BD00D4891049206890E920E5043491CD0
:10248000FEF757F810BD0948F4E70869000701D5C1
:102490000748EFE70868800401D50648EAE70648E0
:1024A000E8E700000002005000093D0000366E0120
:1024B000005125020024F400001BB70010B5FFF7FF
:1024C00091FF044C044920604A108018FEF731F84F
:1024D000606010BD9C00002040420F000A488268E6
:1024E00002210A4382600A4B084A5A60094A126A6A
:1024F000FF231B049A43084B1A43084B1A63826854
:102500008A438260704700000002005065A9000005
:1025100000800040000100500030B000C081004049
:1025200038B51C4C20691C4DC10610D417E0684614
:102530000178242902D12868FEF7C7FC01226946E8
:10254000204600F0BFF869462868FEF717FCA0692E
:102550008007ECD5114901200870102116E0C00752
:1025600010D138BD68460178242902D12868FEF7C9
:10257000ACFC01226946204600F0A4F869462868B0
:10258000FEF7FCFBA0698007ECD50121204600F096
:102590004DF838BD000005404C0000209800002098
:1025A00038B5114D2869114CC10606D40AE02068DF
:1025B0000121006A426868469047A8698007F6D5FD
:1025C00010210CE0C00706D138BD20680121006A47
:1025D000426868469047A8698007F6D501212846D9
:1025E00000F024F838BD0000000015403C00002039
:1025F00070B5044601460122054800F063F805461F
:102600000448214600680069FEF7B8FB284670BD03
:10261000000015403C0000200A4610B50146024863
:1026200000F070F810BD0000000015404A0703D507
:1026300070228261012242610A0704D5C269012326
:102640009B041A43C2618A0602D5FF2202328261CC
:102650004A0601D5402202610A0601D506224261DE
:10266000C90501D5382141617047C2680A43C2607B
:102670007047000070B50E46044600F08BF8054622
:1026800060680C21884360600020A0630320A06084
:10269000002E13D0700840193146FDF74AFF084953
:1026A000401E884209D9F00040193146FDF741FF2C
:1026B00001210009C907401E0843606270BD000087
:1026C000FFFF000070B5044600200125AD070CE0B7
:1026D000002304E05B1CAB4201D3002070BDA6695F
:1026E000B607F7D423680B54401C9042F0D370BD5A
:1026F000026A520A52020A430262C168102211435E
:10270000C160704770B5044600200125AD070CE09C
:10271000002304E05B1CAB4201D3002070BDA6691E
:10272000B605F7D50B5C2360401C9042F0D170BD1C
:1027300010B5094CE068C00703D0084901200870B3
:10274000E060E068800706D50548206005A0FDF739
:102750007BFD0220E06010BD004100409900002098
:10276000A55A0000575744542072740A0000000014
:102770003E2901D93E2102E0022900D20221044B68
:102780009A60090401430120014359607047000029
:102790000041004010B5244B0022012423499842F7
:1027A00006D148694207C869520F0005040F08E0C6
:1027B0001F4B984206D188694207C869520F00042E
:1027C000040F641C002A0AD0012A0AD0022A0BD066
:1027D000032A0CD017482146FDF7ABFE10BD164862
:1027E000F9E70120C003F6E7FFF736FEF3E70869D3
:1027F000000701D51148EEE711480268D20701D061
:102800001048E8E7026893070F4A0BD403689B0758
:1028100001D00E48DFE7006843070D48DBD40968A4
:102820008904D8D41046D6E70000054000020050C5
:102830000000154000093D0000366E0100512502E0
:102840008000005000C0A800001BB7000080BB0043
:102850000024F40030380A2801D2012070470020FB
:1028600070470020C043704700B50346FFF7A0FD46
:10287000184600BD592316221F48882102E0036034
:10288000026001600468012CF9D1FEF757FDFEF7E4
:102890007DFDFEF769FCFEF73FFFFEF747FEFEF702
:1028A000B9FCFEF7E7FEFEF7B9FEFEF75BFFFEF7A9
:1028B0009DFFFEF77FFF11A0FDF7C6FC114D124EE4
:1028C000124F134CFFF784FC2878012801D1FEF742
:1028D0009BFB3078012801D1FEF78AF8FEF72EF92C
:1028E00038680028EED02068FFF700F8206880687C
:1028F0008047FEF77FFDE5E70001005053746172E9
:10290000740A000032000020310000203400002052
:102910004000002070B50A46054605230A21FFF74E
:1029200092F801212846FEF7FBFF012420430246CE
:1029300021462846FFF7A2F802212846FEF7F0FFBD
:102940002043024602212846FFF798F870BD10B5D3
:1029500004461D21FEF7E4FF0421084302461D2121
:102960002046FFF78BF81C212046FEF7D9FF0121F6
:10297000084302461C212046FFF780F810BD0000E6
:1029800070B50D460446FEF7A2FFFF283FD0A068B1
:1029900080470B2200212046FFF770F8002201211A
:1029A0002046FFF76BF8002202212046FFF766F869
:1029B000032211462046FFF761F8FF22042120463A
:1029C000FFF75CF82A4605212046FFF757F80F224B
:1029D00006212046FFF752F8702207212046FFF714
:1029E0004DF800221C212046FFF748F800221D2147
:1029F0002046FFF743F8064D2868FEF73BFF28689E
:102A0000FEF746FF227C07212046FFF737F870BD0E
:102A100040000020FFB5074683B00C46082000F0B8
:102A2000FFF8076006460471B868804702213846FF
:102A3000FEF776FF0125A5402843C2B202213846A1
:102A4000FFF71CF80698002809D001213846FEF748
:102A500067FF2843C2B201213846FFF70FF80C98F0
:102A600000280FD0EAB21C213846FFF707F81D21D5
:102A70003846FEF755FF0421084302461D2138461B
:102A8000FEF7FCFF25460A35012C14D905226846BD
:102A90000599FDF70DFD0598E9B202783846FEF775
:102AA000EDFF0B213846FEF73BFF69460870052312
:102AB0006A460B2102E0059AE9B205233846FEF783
:102AC000C2FF304607B0F0BD70B516461D460A4637
:102AD000044605231021FEF7B6FF2A46314620465C
:102AE000FEF798FF60688047207C8006800FFBD04F
:102AF00007212046FEF714FF044602460548072139
:102B00000068FEF7BBFFA00601D5012070BD0020C4
:102B100070BD000040000020F3B5164E81B00546A0
:102B200000243068FEF7D3FE2846FEF720FF6868D1
:102B30008047287C8006800FFBD0A868804707214B
:102B40002846FEF7EDFE0746024607213068FEF7ED
:102B500095FFF80604D520460299641C8842E0D30C
:102B60002846FEF795FEF80601D50020FEBD01209F
:102B7000FEBD00004000002010B50446016810A012
:102B8000FDF762FB11A06168FDF75EFB12A0A16872
:102B9000FDF75AFB13A0E168FDF756FB14A021696D
:102BA000FDF752FB15A06169FDF74EFB16A0A16968
:102BB000FDF74AFB17A0E169FDF746FB10BD0000D9
:102BC000723020203D20307825780A007231202094
:102BD0003D20307825780A00723220203D20307860
:102BE00025780A00723320203D20307825780A00AD
:102BF000723132203D20307825780A006C72202016
:102C00003D20307825780A00706320203D20307800
:102C100025780A00707372203D20307825780A00EC
:102C2000F8B50024234F054600947868264600280E
:102C300001D100F041F8680702D0ED1DED08ED006C
:102C40001C4A28460832083084461A4811684768EA
:102C500017E04868A84209D1164803685B1B083B87
:102C600003600846096808301160F8BD604506D366
:102C7000002C02D06368984201D20C4616460A46E0
:102C80000968B942E5D1002C11D00A480168491BF6
:102C90000839016020460830009060192168816081
:102CA0006168491B0839C160083065603060009870
:102CB000F8BD000004000020104810B50E4942077E
:102CC00005D0C01DC0080D4AC000821A891A0C4ADE
:102CD000002413461160083311C3083940185060AE
:102CE00004605068083B4460186851680160091A24
:102CF0000839416010BD000088130000DC0000208E
:102D00000400002001790208110079020811303115
:102D10003233343536373839414243444546403002
:102D200058003031323334353637383961626364B4
:102D300065664030780004000008000000000000D4
:102D40000002000100001000682D000000000020BB
:102D5000DC00000004010000442E0000DC00002024
:102D60008C1B00002001000000000000000000009B
:102D700000000000000000000000000061220000D0
:102D8000312200004D22000009220000192200001B
:102D900019260000F12500000000000000000000DE
:102DA0000000000000000000000000000000000023
:102DB0000000000000000000E40700000100000027
:102DC0000100000000000000000000000000000002
:102DD000000000000100000000000000E407000007
:102DE00001000000010000000000000000000000E1
:102DF00000000000000000000100000000000000D2
:102E000000000000001BB7000C00000000000000E4
:102E100000000000000000000000000000000000B2
:102E200000000000000000000000000000000000A2
:102E30000000000000000000000000000000000092
:042E4000000000008E
:04000005000001D125
:00000001FF
