:020000040000FA
:10000000A01B0020D1010000F90100007D010000CB
:1000100000000000000000000000000000000000E0
:10002000000000000000000000000000FD010000D2
:100030000000000000000000FF01000001020000BD
:100040000302000049240000030200000302000034
:1000500095120000030200000302000000000000EF
:10006000030200000302000003020000030200007C
:100070009121000011220000030200000302000091
:10008000030200007D1400000302000003020000D0
:10009000030200000302000003020000030200004C
:1000A000DD0700000302000003020000030200005D
:1000B000030200000302000003020000451C0000D0
:1000C00000F002F800F04BF80CA030C808382418F3
:1000D0002D18A246671EAB4654465D46AC4201D180
:1000E00000F03DF87E460F3E0FCCB6460126334267
:1000F00000D0FB1AA246AB46334318473C2A000007
:100100005C2A0000103A02D378C878C1FAD85207A6
:1001100001D330C830C101D504680C6070470000BD
:100120000023002400250026103A01D378C1FBD813
:10013000520700D330C100D50B60704710B5642959
:1001400002D100F08FF810BD782902D100F0C0F87C
:1001500010BD002010BD1FB51FBD10B510BD00F0B3
:100160000DFB1146FFF7F7FF02F046FA00F025FB02
:1001700003B4FFF7F2FF03BC00F028FB0420714634
:10018000084202D0EFF3098001E0EFF308807146E6
:10019000004A1047CD14000070B505460C461646BF
:1001A00002E00FCC0FC5103E102EFAD2082E02D35B
:1001B00003CC03C5083E042E07D301CC01C5361F6E
:1001C00003E021782970641C6D1C761EF9D270BD85
:1001D0000F48104901601049016010490160104A40
:1001E00010491160104A11491160114880470848B0
:1001F000002101600F480047FEE7FEE7FEE7FEE74B
:10020000FEE7FEE70C480D490D4A0E4B7047000013
:100210000001005059000000160000008800000096
:1002200060000050A55A000014000050C0000000FB
:100230004D210000C1000000A0140020A01B0020E0
:10024000A0160020A01600200FB4054910B503AA7F
:10025000029800F04FFA10BC08BC04B01847000028
:1002600080000020F7B5002575291068009914A6B4
:1002700011D0C046C046002802DA404211A608E06C
:10028000009909688A0701D50FA602E0490704D53D
:100290000EA6012501E0C046C046009F0024243779
:1002A00004E000F03BFA30313955641C0028F8D1E5
:1002B0002B4632462146009800F0C3F9FEBD0000EF
:1002C000000000002D0000002B00000020000000B6
:1002D00070B504460D4621461068C046C0462188C8
:1002E000090502D50F4A7A4402E00E4A7A440E32DA
:1002F00023460021243305E006070009360F965DEA
:100300005E54491C0028F7D120780023000705D54A
:10031000702D03D0002901D002231132204600F0B5
:1003200090F970BD12280000F3B50446002081B09A
:1003300020622046E168884700287DD0252802D029
:100340006268A16883E0454F00257F442046E1684C
:1003500088472028064608DB312E06D2B8192038F7
:100360000078002801D00543F0E7A80701D5042054
:1003700085430020E0610746A0612A2E0AD030465E
:1003800002F02AF9002827D0B8000019303E00906A
:10039000866119E00298BA00121902C891610290B0
:1003A0002046E1688847012F064617D1E0690028FA
:1003B0001FDA202085431CE000980A218069484309
:1003C00000998019303888612046E16888470646E0
:1003D00002F002F90028EFD1012F0AD02E2E08D109
:1003E0002046E16888470646202005437F1C022FEF
:1003F000C3DBA069002803DA4042A0610120054365
:10040000E80701D010208543002E24D03046413823
:10041000192803D80120C002054320362046256054
:100420003146029A1546FFF789FE00280CD00128B4
:1004300007D0ED1DE80800E00DE0C0000830029094
:1004400077E72D1D029574E762683046A1689047F2
:10045000206A401C6CE7206AFEBD0000D627000021
:10046000F8B5042A2CD3830712D00B78491C0370EB
:10047000401C521E83070BD00B78491C0370401C94
:10048000521E830704D00B78491C0370401C521E77
:100490008B079B0F05D0C91ADF002023DE1B08C97C
:1004A0000AE0FFF779FEF8BD1D4608C9FD401C466D
:1004B000B4402C4310C0121F042AF5D2F308C91A05
:1004C000521EF0D40B78491C0370401C521EEAD413
:1004D0000B78491C0370401C012AE4D40978017090
:1004E000F8BD002203098B422CD3030A8B4211D39F
:1004F00000239C464EE003460B433CD400224308B5
:100500008B4231D303098B421CD3030A8B4201D3A4
:1005100094463FE0C3098B4201D3CB01C01A52413C
:1005200083098B4201D38B01C01A524143098B428C
:1005300001D34B01C01A524103098B4201D30B0175
:10054000C01A5241C3088B4201D3CB00C01A52419A
:1005500083088B4201D38B00C01A524143088B425F
:1005600001D34B00C01A5241411A00D201465241F8
:10057000104670475DE0CA0F00D04942031000D317
:100580004042534000229C4603098B422DD3030A6C
:100590008B4212D3FC22890112BA030A8B420CD37C
:1005A000890192118B4208D3890192118B4204D3A5
:1005B00089013AD0921100E08909C3098B4201D325
:1005C000CB01C01A524183098B4201D38B01C01A5F
:1005D000524143098B4201D34B01C01A52410309D6
:1005E0008B4201D30B01C01A5241C3088B4201D385
:1005F000CB00C01A524183088B4201D38B00C01A32
:100600005241D9D243088B4201D34B00C01A524108
:10061000411A00D20146634652415B10104601D395
:100620004042002B00D54942704763465B1000D31F
:10063000404201B50020C046C04602BD7047704729
:100640007047FFB504460D4681B024300090216804
:10065000880604D51022E0699143216000E0012062
:10066000A84201DD471B00E000270498A1697A1920
:100670001018081AA0612078C00602D42046C0468F
:10068000C046002608E003986268A168805D904734
:10069000206A401C761C206204988642F3DB207896
:1006A000C0060AD52046C046C04606E06268A1687A
:1006B00030209047206A401C206238467F1E002868
:1006C000F4DC07E000986268A168405D9047206A0A
:1006D000401C206228466D1E0028F3DC2046C046E0
:1006E000C0462078000602D5022005B0F0BD0120EA
:1006F000FBE70000084B70B50D467B4400F027F87F
:100700000446284601F06FFF002802D00020C043B5
:1007100070BD204670BD0000EF1E0000014680083D
:10072000081A02091018020A1018020C1018C00842
:10073000820012185200891A01E0401C0A390A2965
:10074000FBD2704701694A1C02610878704700B506
:100750008FB00291002105910549019379440391DD
:10076000114604906846FFF7DFFD0FB000BD0000A2
:10077000E5FFFFFF00487047401400207546FFF773
:10078000F9FFAE46050069465346C008C0008546DD
:1007900018B020B5FFF736FD60BC00274908B64603
:1007A0000026C0C5C0C5C0C5C0C5C0C5C0C5C0C580
:1007B000C0C5403D49008D46704710B50446C0464F
:1007C000C0462046FFF7D4FC10BD000001491820A8
:1007D000ABBEFEE7260002007047000010B5054CD6
:1007E0002068800704D504A0FFF72EFD02202060BA
:1007F00010BD0000400200504C58542053746F70DC
:1008000021210A0002490A6882430A6070470000F9
:1008100000020050C10F8A00044951184A68C306FB
:10082000DB0E0120984002434A60704700020050EE
:1008300002490A6802430A60704700000002005043
:1008400010B501F073FC0148006810BD780000206D
:1008500010B501F06BFC0148006810BD7800002065
:100860000E4A00201168490704D50D480168C907E0
:1008700001D00C48704701688B070B4901D5084629
:10088000704703689B0701D008487047006843071A
:100890000748FAD412689204F1D57047000200505C
:1008A0008000005000C0A800001BB7000080BB0003
:1008B0000024F400034900200968C90100D502485A
:1008C00070470000000200500051250200B50548A5
:1008D0000069000702D5FFF7EDFF00BDFFF7C0FF7D
:1008E00000BD00000002005002480068C00700D0B0
:1008F000014870470002005000366E010349002095
:100900000968090700D5024870470000000200503E
:100910001027000004480068800702D50120C003AA
:10092000704700207047000000020050034900207B
:100930000968890100D50248704700000002005094
:1009400000093D0010B588B0202209496846FFF72C
:1009500023FC0848406B4407640F01F0E7FBA0004C
:100960006946095804480068FFF7BBFD08B010BD90
:10097000BC2A0000000200507800002010B588B0AA
:10098000202209496846FFF707FC0848446B70209D
:10099000044001F0CBFBA0006946095804480068F8
:1009A000FFF79FFD08B010BDDC2A000000020050D8
:1009B0007800002010B512494A6AD00301D5002002
:1009C00010BD5003830F0CD0800F01280BD00D48B1
:1009D00091049206890E920E5043491CFFF781FD47
:1009E00010BD0948F4E70869000701D50748EFE79B
:1009F0000868800401D50648EAE70648E8E70000F1
:100A00000002005000093D0000366E010051250231
:100A10000024F400001BB70010B5074AD3691B0976
:100A20001B010B43D36111690909090101431161DC
:100A300001F07CFB10BD00000002005070B5840A7C
:100A400023061B0E0CD003039B0F0F4D9B005B195D
:100A50001D688605E4B2F60EB440A54315431D603B
:100A6000420E12070ED04200074B920F92000C3B31
:100A7000D2181368C400240FC001C00E8440A343E1
:100A80000B43136070BD00001C02005003494A6B09
:100A9000D208D20002434A637047000000020050AF
:100AA000034A516B7023994301435163704700001F
:100AB000000200500649096848430649486100227F
:100AC0008A61052008610869C003FCD50A61704786
:100AD0007C00002000E000E010B504460749084B08
:100AE00005E00A46491E002A01DC002010BDDA6834
:100AF00020469043F5D1012010BD000080F5200074
:100B0000000200507D2110B5C900484300F0EAFA08
:100B100010BD0000F0B544A003C891B0444D019150
:100B20000090286900F08DFD286900F0F1FC414833
:100B300000268660E868416A7D2000018847E868F1
:100B4000006900F08AFBE86800F088FF07230322B1
:100B50001946E86800F02CFF00221146E86800F012
:100B6000F1FF2621E86800F0B1FF0121E86800F0FC
:100B7000B7FEEA680020694613180C181B7E401C5B
:100B8000A3700428F8D38879A9786A7849001143BA
:100B90000843694688710821684600F0B9FD0700DE
:100BA000AE7027D0002411E0A1B202AA00F01EFE10
:100BB00001460F9002A800F0ABFD07001CD00246D2
:100BC00021461DA00F9BFFF73FFB641CE868C1692D
:100BD000A142E9D8002F0DD068782C4601280ED10B
:100BE000E0690168006900F093FD0746E06900F0E4
:100BF00034FB6670002F02D113A0FFF725FB0D48D0
:100C000001218160E868416A7D20000188472869E8
:100C100000F0EDFC286900F06DFCA86900F01DFBF8
:100C20002E7011B0F0BD00005EDB00000000000A75
:100C3000300000204042005069203D2025642020E3
:100C400025640925640A000053656E64206461749C
:100C500061206572720A000010B5074B074A322105
:100C6000012000F0E5FE0649C860064901208860C1
:100C700005A0FFF7E9FA10BD050B000028000020D1
:100C800030000020404200504F5635323820536526
:100C90007474696E67206F6B0A00000010B54948D4
:100CA000FFF708FF0220FFF7C3FD0220FFF714FF44
:100CB0000028FAD001200006FFF7BAFD2020FFF738
:100CC0000BFF0028FAD0404C2069F0210843206136
:100CD0000621022001F05AF9A069C007FCD03B4C64
:100CE000206908210843206100210C20FFF794FEB1
:100CF0000020FFF7CBFE0020FFF7D2FE0420FFF715
:100D000081FD4B214902324801F0ECFAA06B02212F
:100D10000843A063E06B0843E063182000F0EAFC9E
:100D2000112000F0E7FC2BA0FFF78EFA32A0FFF7AE
:100D30008BFAFFF7D9FD014634A0FFF785FAFFF7DC
:100D4000E9FD014635A0FFF77FFAFFF789FD01466F
:100D500036A0FFF779FAFFF7ADFD014637A0FFF7A0
:100D600073FAFFF7B3FD014638A0FFF76DFAFFF7FE
:100D7000DDFD014639A0FFF767FAFFF7BFFD014629
:100D80003AA0FFF761FAFFF75BFD01463BA0FFF7D2
:100D90005BFAFFF75DFD01463CA0FFF755FAFFF750
:100DA000D1FD01463DA0FFF74FFAFFF7E7FD0146F1
:100DB0003EA0FFF749FAFFF7FDFD01463FA0FFF710
:100DC00043FA10BD102700008000005000020050C0
:100DD000000005402D2D2D2D2D2D2D2D2D2D2D2DB2
:100DE0002D2D2D2D2D2D2D2D2D2D2D2D2D2D2D2D33
:100DF0002D2D2D2D0A000000436C6F636B20636F57
:100E00006E666967203A200A0000000048585420A6
:100E10003A20256420487A0A000000004C585420EB
:100E20003A20256420487A0A0000000048495243CD
:100E300030203A20256420487A0A0000484952436D
:100E400031203A20256420487A0A0000484952435C
:100E5000203A20256420487A0A0000004D49524378
:100E6000203A20256420487A0A0000004C49524369
:100E7000203A20256420487A0A000000435055207B
:100E80003A20256420487A0A0000000048434C4B71
:100E9000203A20256420487A0A00000050434C4B39
:100EA00030203A20256420487A0A000050434C4BF9
:100EB00031203A20256420487A0A0000504C4C200A
:100EC0003A20256420487A0A00000000FEB55B4DF8
:100ED000A86900F085F900287DD100240427264662
:100EE000A0E00196009702960423002254A1A8696D
:100EF00000F024F900286FD001960097029608238D
:100F0000042251A1A86900F019F900283AD0032061
:100F10000196029600900B2308224DA1A86900F0CB
:100F20000DF900280BD000220B21A86900F09AF9D6
:100F3000002804D001202870A86900F08EF9032051
:100F40000196029600900B23082242A1A86900F0A6
:100F5000F5F8002816D06878012813D1286900F028
:100F600070FB286900F0D4FA3B4800F0BBF8E86950
:100F70000168006900F0CCFB286900F038FBA86923
:100F800000F06BF90196009702960823042233A122
:100F9000A86900F0D3F8002840D001960097029687
:100FA0000C2308222FA1A86900F0C8F8002835D02A
:100FB00000221021A86900F055F900282ED00C213C
:100FC000A86900F03FF97D21C900303848436860C6
:100FD0000D21A86901E02FE020E000F033F9642141
:100FE0004843696840184B218901401A68600E2106
:100FF000A86900F027F90A21484369684018FF38BA
:10100000E13868600F21A86900F01CF96968401890
:1010100030386860AE60A86900F01FF97D20C0001C
:1010200000F060F82046FF21641CF531884200D2B0
:1010300057E7A86900F011F9FEBD0000300000205C
:10104000434D443A000000004745543A0000000078
:10105000494D470047505300102700005345543A6C
:10106000000000004359433A0000000010B505217C
:101070000907886B1122104388630420FFF7D8FB0F
:101080001020FFF729FD0028FAD00C4C2046FFF76E
:10109000C1FB002203212046FFF7D0FC4B2149026F
:1010A000074801F01FF907A0FFF7CEF8FFF7D0FBC4
:1010B000014608A0FFF7C8F810BD0000103D00AEC3
:1010C00000000540446562756720456E61626C658D
:1010D000210A000048495243203A20256420487ADA
:1010E0000A000000F8B5012700243F040546060C5D
:1010F00003E03846FFF7DEFC641CA642F9D828045A
:10110000000C02D1A8B2FFF7D5FCF8BDC368026895
:101110009A4211D2436802690978D1540168491C86
:101120000160C2684168521E914201D2491C00E030
:10113000002141600120704700207047FFB527481B
:1011400083B00C9E076803980599C068884243D312
:10115000401A984200D203460693B3423CD3881902
:101160000090039800990068884227D3401A069996
:10117000891B814200D80846002502901BE0059893
:101180000024401901900EE001980119039800F025
:1011900059F80499095D884204D00E98002804D0BB
:1011A000002902D1641CB442EED3B44202D1012022
:1011B00007B0F0BD6D1C02988542E0D90748016870
:1011C00000688F4202D9C01B401E00E0C01B0D9971
:1011D000884201D80029C4D10020E9E7000000209E
:1011E0000068002801D000207047012070470000EF
:1011F00070B50C0005460CD0142001F0E7FB002868
:101200000AD0002101604160C5608160002C08D0D7
:1012100009E028461430F0E704A0FFF715F8002095
:1012200070BD04461434046170BD00004572726FD5
:101230007220416C6C6F63206D656D657279212140
:101240000A00000010B50A460446C168806880188C
:10125000FFF747F92069405C10BD00214160016043
:101260008160704730B50A4D2B682C68A3422C680A
:1012700002D9E41A641E00E0E41A944206D8046815
:101280008C4201D3012030BD002AEED1002030BDB8
:1012900000000020F0B51F4889B0016A490701D558
:1012A00004210162016A490406D51B4A012111701B
:1012B0001A4A117089030162164F4037386A0007D5
:1012C00025D5174E306800F042F93068017C490698
:1012D00018D500F05FF9054602466946306800F00F
:1012E00098F9002407E0684601190E480068FFF7E6
:1012F0000DFF641CE4B2AC42F5D33068027C0721D8
:1013000000F0E2F93068017C007C0820386209B006
:10131000F0BD0000004000503000002032000020EE
:10132000400000204800002010B58369140E8C4056
:1013300023438361C3691202120A8A401343C361C3
:1013400010BDF0B5002301273C469C400C4208D05C
:1013500005685C000326A640B5431646A640354303
:1013600005605B1C102BEFD3F0BD0000F8B5314DCC
:10137000012211462846FFF7E4FF002204212846F7
:10138000FFF7DFFF0126B603002231462846FFF7AC
:10139000D8FF0122D1032846FFF7D3FF254C0122B5
:1013A000403404212046FFF7CCFF002208212046CC
:1013B000FFF7C7FF686A042738436862686A3043EA
:1013C0006862606A082108436062606A01263043EF
:1013D0006062606A022108436062606A102108430B
:1013E0006062606A2021084360623246022128461A
:1013F000FFF79AFF01220E212846FFF795FF0122F1
:1014000003212046FFF790FF042000F073F90A49FA
:101410002F2008606869384368610748803006609B
:101420000021C1630448C030866004A0FEF70CFFB1
:10143000F8BD000000400050804100504750494F27
:101440002053657474696E67206F6B0A000000009A
:1014500010B50021C820FFF7CBFE0349C86103A0E7
:10146000FEF7F2FE10BD0000300000204750532070
:1014700053657474696E67206F6B0A0070B5074D11
:10148000AC69600703D506A0FEF7DEFEAC61A007DD
:1014900003D508A0FEF7D8FEAC6170BD80000050F7
:1014A0004C585420436C6F636B206572726F722EC0
:1014B0000A0000004849524331203A205472696DB5
:1014C000204661696C7572652E0A0000044603A00F
:1014D000FEF7BAFE204601F025FAFEE7496E2048E5
:1014E000617264204661756C742048616E646C653D
:1014F000720A000010B504460068806880472068C2
:101500000168E220884720742068C068804710BDC9
:1015100010B5044600688068804720680168E120B3
:10152000884720742068C068804710BDF8B507461A
:101530001C4615460E46142001F048FA002805D036
:101540000760466085600021C4600174F8BD10B575
:10155000044600688068804720680168FF2088474B
:1015600020742068C0688047207C10BD70B5044698
:1015700000680D46806880472068026828469047CA
:10158000207420684068804705462068C06880470E
:10159000284670BD70B504460068806880472068A2
:1015A00001686020884720742068406880470546AD
:1015B0002068C0688047284670BD10B504460068A2
:1015C0008068804720680168E32088472068C068F9
:1015D000804710BD70B505460721FFF7C7FF0446D9
:1015E00002460721284600F06FF8204670BD10B56E
:1015F00004468068804700212046FFF7B7FF01219D
:10160000084302460021204600F05EF860688047EB
:1016100010BDF8B505460068164680680F4680473D
:1016200028680168612088472874002403E0406826
:1016300080473855641C2868B442F8D3C068804796
:10164000F8BD10B504468068804700212046FFF7AA
:101650008DFF420852000021204600F035F810BDF1
:10166000F8B505460068164680680F46804728682A
:101670000168A02088472874002404E02968385DA8
:1016800009688847641CB442F8D32868C06880475A
:10169000F8BDF8B5054600681E46806817460C463A
:1016A000804729682020096820438847287400243F
:1016B00004E02968385D09688847641CB442F8D39F
:1016C0002868C0688047F8BD70B5044600681546B4
:1016D00080680E468047216820200968304388478B
:1016E000207420680168284688472068C0688047C1
:1016F00070BD0000C106C90E012088400149086084
:101700007047000000E100E010B5FFF7EBFC10BDF2
:10171000F3B581B00C460025114F17E0202C01D9FC
:10172000202000E02046C6B20198334642190D49F8
:10173000386901F095F8002806D1FF212D3138696C
:1017400001F0BCF8002805D0AD19A41B002CE5D190
:101750000120FEBD3869FFF73DFF0020FEBD0000FF
:1017600030000020B52A000038B501200021800299
:10177000FFF73EFD114C124BA061124A124913486B
:10178000FFF7D4FE5021206100F0C6FF0120034680
:10179000014600900E4A206901F008F86061206956
:1017A00000F0A1FF0A492069491D00F07FFF206970
:1017B000FFF71DFF07A0FEF747FD38BD30000020F2
:1017C00009170000951D0000CD1F00001400002027
:1017D000B02A00006E524632344C303120536574CA
:1017E00074696E67206F6B0A00000000FEB5044646
:1017F000174638A005C8002501920090002C38D06B
:101800006A461171080A50712069FFF726FD206AA7
:101810000621026868469047FA2204212069FFF7F2
:1018200021FD00284FD000212069FFF70BFD6946FC
:101830000979884247D101212069FFF703FD6946F4
:10184000497988423FD102212069FFF7FBFC064617
:1018500003212069FFF7F6FC000206431F4AB11D71
:101860002069FFF7FFFC00282DD00020311D2269E0
:1018700007E00020FEBD13691B5C5B19401C9DB294
:1018800080B28842F7D3311D1046FFF7DBFCE9B286
:10189000884218D1711D2069FFF7D4FC290A8842BB
:1018A00011D1002505E0291DFFF7CCFC78556D1CF2
:1018B000ADB22069B542F6D3FFF7CFFC616A0120D3
:1018C00088473046FEBD2069FFF7C7FC616A0120EA
:1018D0008847CEE7AA0E000000000000B80B000009
:1018E000F0B504000D462EA003C887B00590069100
:1018F0002DA003C8049103904FD0684685752069D8
:10190000FFF7ABFC206A0621026805A89047FF2676
:1019100006270020F5360097019602903B460022EC
:1019200003A92069FFF70AFC002834D00A20694681
:101930004873207D8873012000970196029006234A
:101940001A4603A92069FFF7F9FB06001CD025758C
:1019500009212069FFF776FC05460A212069FFF777
:1019600071FC000205430B212069FFF76BFC0004AA
:101970000543A56121892846891FFEF7B2FDE06174
:10198000002901D0401CE0612069FFF766FC616A14
:1019900001208847304607B0F0BD0020FBE700007B
:1019A000AA04000000000000AA0E040000000000CD
:1019B000FFB504000F461AA003C887B00390049136
:1019C00019A003C816460691059026D06946CF7324
:1019D0000E740A9848742069FFF73FFC206A0621BC
:1019E000026803A89047FF210022F53106206B46CC
:1019F00007C3062305A92069FFF7A0FB050003D054
:101A0000A770E6700A9820712069FFF726FC616ACA
:101A10000120884728460BB0F0BD0020FBE70000FE
:101A2000AA01000000000000AA0E01000000000052
:101A3000FFB5074681B01D461646282000F0C6FFB8
:101A4000040007D0278000210298FFF7D1FB26620F
:101A500065622061204605B0F0BD000030B504008D
:101A600016A003C887B00390049116A003C806917E
:101A7000059021D02069FFF7F0FB206A062102685B
:101A800003A89047206A0621026803A89047FF2117
:101A90000022F53106206B4607C30C2305A92069F7
:101AA000FFF74CFB05462069FFF7D7FB616A012071
:101AB0008847284607B030BD0020FBE7AA0D00008C
:101AC00000000000AA0E0D000000000070B5040028
:101AD0000D4618A003C888B00390049117A003C84E
:101AE0000691059024D06946CD73280A08742069B0
:101AF000FFF7B3FB206A0621026803A89047FF2185
:101B00000022F53106206B4607C3062305A920698C
:101B1000FFF714FB060000D025812069FFF79DFB2D
:101B2000616A01208847002E02D0012008B070BDF4
:101B30000020FBE7AA06080000000000AA0E06002D
:101B400000000000F0B504000F461AA003C887B0DB
:101B50000390049119A003C815460691059026D05C
:101B600069468F73CD73280A08742069FFF775FBE7
:101B7000206A0621026803A89047FF210022F53160
:101B800006206B4607C3062305A92069FFF7D6FA8E
:101B9000060001D06771E5802069FFF75EFB616A8E
:101BA00001208847002E02D0012007B0F0BD0020A0
:101BB000FBE70000AA05000000000000AA0E0500D7
:101BC0000000000010B51149886977221206104301
:101BD000886105200007826B11231A438263826BA0
:101BE0001B041A4382630A68094B1A430A60016B9B
:101BF000084A11430163016B0163416B4163816BCF
:101C0000816305A0FEF720FB10BD000040000050DE
:101C1000111100000060660650696E2073657474CF
:101C2000696E67206F6B210A0000000000B5034653
:101C300000F094F802498A6A1A438A6200BD0000E3
:101C40000080004010B50B4A1068012300280AD01C
:101C500009490868441C0C601268904203D3074885
:101C60000370002008600648037006490220C8621D
:101C700010BD00003400002038000020300000209B
:101C80007400002000800040F8B50446314D304813
:101C900028602968012903D0286028680128FCD120
:101CA000002C46D0E069002844D000F057F868695D
:101CB0000121084368617D2021680001081A0A217A
:101CC000FEF70FFC0E04000506430A216068FEF7CC
:101CD00008FC000330430E0206430A21A068FEF709
:101CE00000FC000130431C4E0143316000F036F827
:101CF000306828610A212069FEF7F3FB0F04000514
:101D000007430A216069FEF7ECFB000338430F022A
:101D100007430A21A069FEF7E4FB000138430143B1
:101D2000316000F01BF83068E86000F017F8E068F8
:101D3000A861F8BD00F012F86869400840006861C9
:101D4000206A0228B7D1206914302061B3E700006F
:101D50005713EBA50080004084000020044905488B
:101D600041604268D203FBD54168C901FCD4704789
:101D700065A900000080004000B50346FFF7EEFFB4
:101D800003490A6BD208D2001A430A6300BD00005F
:101D90000080004001490020C863704700420050A5
:101DA00010B50948FEF736FD0848FFF76DFF002023
:101DB000FFF7E2FF0220FFF739FF1F20FFF79AFC31
:101DC00003A0FEF741FA10BD01000CE05000002016
:101DD0005254432053657474696E67206F6B0A0018
:101DE0000248C1680D229143C16070470000034062
:101DF00010B5074C2068012108432060002000F046
:101E000051FB2068C043C007FBD000F06FFB10BD42
:101E10000000034010B5084C2068012108432060F1
:101E2000002000F03FFB2068C043C007FBD000F05B
:101E30005DFB2069C0B210BD000003400349C868C3
:101E40000D229043401CC860704700000000034012
:101E500010B5094C20622068012108432060002051
:101E600000F020FB2068C043C007FBD000F03EFB21
:101E70002069C0B210BD00000000034010B5029CF4
:101E8000202B00D10023DB000B43134303602146CA
:101E900000F002F810BD0000F8B5364C0E460546BD
:101EA000334F3549354A63103548BD4216D147692D
:101EB000BF01BF0F012F05D04769BF01BF0F04D07D
:101EC000476918E0FEF7C4FC01E0FEF773FD044625
:101ED00035E00068400731D5144630E0294FBD4257
:101EE00012D18769BF01BF0F012FEBD08769BF01F6
:101EF000BF0FEAD08769BF01BF0F022F1FD004694F
:101F00002407E6D50C461AE01F4FBD420AD14769A7
:101F10003F01BF0F012FD5D047693F01BF0FD4D07C
:101F2000476909E087693F01BF0F012FCAD0876960
:101F30003F01BF0FC9D087693F01DDE71C46A642BC
:101F400000D92646002E11D031462046FEF7C9FAA8
:101F5000401EFF2800D9FF20A968090A0902014391
:101F6000A960411C2046FEF7BCFAF8BD0020F8BD70
:101F70000000034000366E01005125020024F400E9
:101F8000000200500000134000000D4010B5064A4A
:101F900053690624A3430B435361116989088900DF
:101FA0000143116110BD00008000005006498A699C
:101FB0005205FCD408600A2804D188694005FCD485
:101FC0000D200860704700000000054010B503496F
:101FD0000120C8630F20FFF785F810BD00420050B4
:101FE00038B5134C0321002209062046FEF726FDD2
:101FF000104D002221062846FEF720FD2046FEF760
:1020000009FC2846FEF706FC0B4C0823042200219D
:102010000A480094FFF732FF0823042200210848F1
:102020000094FFF72BFF07A0FEF70EF938BD000064
:102030000C008CA70F00ACC740420F00000003400B
:1020400000001E405350492053657474696E672028
:102050006F6B0A0010B5154C20694007400F0FD078
:1020600001280FD0022810D0032811D0042811D045
:102070000F48E1690907090F491CFEF732FA10BD44
:102080000C48F6E70120C003F3E700F01DF8F0E785
:102090000948EEE72069000701D50848E9E720680C
:1020A000800401D50648E4E70648E2E70002005054
:1020B00000093D0000366E01102700000051250286
:1020C0000024F400001BB70010B512494A6AD0037F
:1020D00001D5002010BD5003830F0CD0800F0128C4
:1020E0000BD00D4891049206890E920E5043491C64
:1020F000FEF7F7F910BD0948F4E70869000701D5B4
:102100000748EFE70868800401D50648EAE7064873
:10211000E8E700000002005000093D0000366E01B3
:10212000005125020024F400001BB70010B5FFF792
:1021300091FF044C044920604A108018FEF7D1F941
:10214000606010BD7800002040420F000A4882689D
:1021500002210A4382600A4B084A5A60094A126AFD
:10216000FF231B049A43084B1A43084B1A638268E7
:102170008A438260704700000002005065A9000099
:1021800000800040000100500030B000C0810040DD
:1021900038B51C4C20691C4DC10610D417E06846A8
:1021A0000178242902D12868FFF757F801226946EF
:1021B000204600F0BFF869462868FEF7A7FFA0692F
:1021C0008007ECD5114901200870102116E0C007E6
:1021D00010D138BD68460178242902D12868FFF75C
:1021E0003CF801226946204600F0A4F869462868B8
:1021F000FEF78CFFA0698007ECD50121204600F096
:102200004DF838BD000005404C0000203100002092
:1022100038B5114D2869114CC10606D40AE0206872
:102220000121006A426868469047A8698007F6D590
:1022300010210CE0C00706D138BD20680121006ADA
:10224000426868469047A8698007F6D5012128466C
:1022500000F024F838BD0000000015403C000020CC
:1022600070B5044601460122054800F063F80546B2
:102270000448214600680069FEF748FF284670BD03
:10228000000015403C0000200A4610B501460248F7
:1022900000F070F810BD0000000015404A0703D59B
:1022A00070228261012242610A0704D5C2690123BA
:1022B0009B041A43C2618A0602D5FF220232826160
:1022C0004A0601D5402202610A0601D50622426172
:1022D000C90501D5382141617047C2680A43C2600F
:1022E0007047000070B50E46044600F02BF9054615
:1022F00060680C21884360600020A0630320A06018
:10230000002E13D0700840193146FEF7EAF808494C
:10231000401E884209D9F00040193146FEF7E1F825
:1023200001210009C907401E0843606270BD00001A
:10233000FFFF000070B5044600200125AD070CE04A
:10234000002304E05B1CAB4201D3002070BDA669F2
:10235000B607F7D423680B54401C9042F0D370BDED
:10236000026A520A52020A430262C16810221143F1
:10237000C160704770B5044600200125AD070CE030
:10238000002304E05B1CAB4201D3002070BDA669B2
:10239000B605F7D50B5C2360401C9042F0D170BDB0
:1023A00070B5204C002203212046FEF747FB1E4D4E
:1023B000002203212846FEF741FB2046FEF72AFAB9
:1023C0002846FEF727FA194C4B2149022046FFF711
:1023D00089FF174DE12149022846FFF783FFA168D5
:1023E000032000020143A160A9680143A960FF2105
:1023F0002046FFF7B5FFFF212846FFF7B1FF112167
:102400002046FFF76AFF11212846FFF766FF0C20E0
:10241000FFF770F90D20FFF76DF906A0FDF714FF27
:1024200070BD0000103D00AE913D00CE00000540A3
:1024300000001540554152542053657474696E670D
:10244000206F6B0A0000000030B50D4B9868C10783
:102450000C4814D05922162188240568012D03D078
:10246000026001600460F8E7074909780122002949
:1024700002D01968114319609A600021016030BDD3
:10248000004000400001005033000020084351008C
:102490000843990008430821084301490860704730
:1024A0000040004070B50E490024CC70592516221A
:1024B0000C49882602E00D600A600E600B68012B53
:1024C000F9D1094A136801252B431360136870255D
:1024D0004007AB43400E034313600C6070BD000027
:1024E0003000002000010050004000400149012060
:1024F000C87070473000002010B50C4C2046FEF725
:1025000089F90121002209072046FEF797FA0123E5
:102510001A4600217020FFF7B9FF054901204860E5
:10252000FFF7E8F803A0FDF78FFE10BD0000CCA771
:10253000004000405744542053657474696E67200E
:102540006F6B0A0010B51C4B002201241B499842F6
:1025500006D148694207C869520F0005040F08E018
:10256000174B984206D188694207C869520F000488
:10257000040F641C002A0AD0012A0AD0022A0BD0B8
:10258000032A0CD00F482146FDF7ABFF10BD0E48C3
:10259000F9E70120C003F6E7FFF796FDF3E70869C6
:1025A000000701D50948EEE70868800401D508480E
:1025B000E9E70848E7E70000000005400002005096
:1025C0000000154000093D0000366E010051250253
:1025D0000024F400001BB70030380A2801D2012083
:1025E0007047002070470020C043704700B5034685
:1025F000FFF7DCFC184600BD08B5592116201D4C1C
:10260000882202E02160206022602368012BF9D13A
:10261000FEF72CFDFFF7D6FAFEF740FBFFF76CFF45
:10262000FEF7A4FEFFF7BCFBFFF7BAFEFFF7D8FCEE
:10263000FFF79AF8FEF70CFFFEF70EFB0026266068
:102640000D4C0E4D0E4F2078012801D1FEF762FA95
:10265000FEF73CFC28780128F5D1207800903B68F3
:10266000084802780848016808A0FDF7EDFD2E70C3
:10267000E9E7000000010050300000207400002055
:10268000340000203100002038000020434E543A2E
:102690002564204750533A2564204359433A256422
:1026A000204750523A25640A0000000070B50A46DF
:1026B000054605230A21FEF7ECFF01212846FEF717
:1026C00055FF01242043024621462846FEF7FCFF21
:1026D00002212846FEF74AFF2043024602212846EF
:1026E000FEF7F2FF70BD10B504461D21FEF73EFF58
:1026F0000421084302461D212046FEF7E5FF1C2168
:102700002046FEF733FF0121084302461C212046E4
:10271000FEF7DAFF10BD000070B50D460446FEF767
:1027200016FFFF283FD0A06880470B2200212046DB
:10273000FEF7CAFF002201212046FEF7C5FF002256
:1027400002212046FEF7C0FF032211462046FEF775
:10275000BBFFFF2204212046FEF7B6FF2A460521D3
:102760002046FEF7B1FF0F2206212046FEF7ACFF00
:10277000702207212046FEF7A7FF00221C212046D9
:10278000FEF7A2FF00221D212046FEF79DFF064D09
:102790002868FEF7AFFE2868FEF7BAFE227C072104
:1027A0002046FEF791FF70BD40000020FFB50746B0
:1027B00083B00C46082000F009F907600646047152
:1027C000B868804702213846FEF7D0FE0125A540B3
:1027D0002843C2B202213846FEF776FF0698002849
:1027E00009D001213846FEF7C1FE2843C2B20121BB
:1027F0003846FEF769FF0C9800280FD0EAB21C217A
:102800003846FEF761FF1D213846FEF7AFFE042172
:10281000084302461D213846FEF756FF25460A3575
:10282000012C14D9052268460599FDF719FE059873
:10283000E9B202783846FEF747FF0B213846FEF72B
:1028400095FE6946087005236A460B2102E0059A49
:10285000E9B205233846FEF71CFF304607B0F0BD4D
:1028600070B516461D460A46044605231021FEF79C
:1028700010FF2A4631462046FEF7F2FE6068804788
:102880000720FFF70FFE207C8006800FFBD0FFF7AC
:102890002DFEA068804707212046FEF767FE04460C
:1028A0000246054807210068FEF70EFFA00601D585
:1028B000012070BD002070BD40000020F3B5184E0F
:1028C00081B0054600243068FEF741FE2846FEF739
:1028D00074FE686880470720FFF7E4FD287C8006C7
:1028E000800FFBD0FFF702FEA8688047072128462B
:1028F000FEF73CFE0746024607213068FEF7E4FE7D
:10290000F80604D520460299641C8842DBD3284689
:10291000FEF7FEFDF80601D50020FEBD0120FEBD3C
:102920004000002010B50446016810A0FDF78CFCA3
:1029300011A06168FDF788FC12A0A168FDF784FC76
:1029400013A0E168FDF780FC14A02169FDF77CFC71
:1029500015A06169FDF778FC16A0A169FDF774FC6C
:1029600017A0E169FDF770FC10BD00007230202057
:102970003D20307825780A00723120203D203078C3
:1029800025780A00723220203D20307825780A0010
:10299000723320203D20307825780A0072313220B1
:1029A0003D20307825780A006C7220203D20307858
:1029B00025780A00706320203D20307825780A00B1
:1029C000707372203D20307825780A00F8B5002415
:1029D000234F0546009478682646002801D100F070
:1029E00041F8680702D0ED1DED08ED001C4A2846AD
:1029F0000832083084461A481168476817E048686A
:102A0000A84209D1164803685B1B083B03600846CF
:102A1000096808301160F8BD604506D3002C02D06B
:102A20006368984201D20C4616460A460968B942C4
:102A3000E5D1002C11D00A480168491B0839016012
:102A40002046083000906019216881606168491B48
:102A50000839C1600830656030600098F8BD00003A
:102A600004000020104810B50E49420705D0C01DD3
:102A7000C0080D4AC000821A891A0C4A0024134665
:102A80001160083311C30839401850600460506861
:102A9000083B4460186851680160091A08394160B0
:102AA00010BD000088130000B800002004000020C2
:102AB00001790208110079020811000001000000EC
:102AC00002000000040000000800000010000000E8
:102AD00001000000010000000100000001000000F2
:102AE00002000000040000000800000010000000C8
:102AF000010000000100000001000000303132330D
:102B00003435363738394142434445464030580021
:102B10003031323334353637383961626364656653
:102B200040307800040000080000000000000002AF
:102B30000001000010000000582B000000000020E1
:102B4000B800000004010000102C0000B8000020B4
:102B5000E81A000020010000000000000000000052
:102B6000000000000000000000000000511E0000F6
:102B7000151E00003D1E0000E11D0000F11D0000BB
:102B80008922000061220000000000010000000016
:102B90000000000000000000000000000000000035
:102BA0000000000000000000E40700000100000039
:102BB0000100000000000000000000000000000014
:102BC0000000000001000000000000000000000004
:102BD000001BB7000C000000000000000000000017
:102BE00000000000000000000000000000000000E5
:102BF00000000000000000000000000000000000D5
:102C000000000000000000000000000000000000C4
:04000005000001D125
:00000001FF
