:020000040000FA
:10000000A01A0020D1010000F90100007D010000CC
:1000100000000000000000000000000000000000E0
:10002000000000000000000000000000FD010000D2
:100030000000000000000000FF01000001020000BD
:10004000030200000302000003020000030200009C
:10005000010B00000302000003020000000000008A
:100060006514000003020000030200000302000008
:1000700003020000991400000302000003020000C4
:10008000030200000302000003020000030200005C
:10009000030200000302000003020000030200004C
:1000A000030200000302000003020000030200003C
:1000B000030200000302000003020000030200002C
:1000C00000F002F800F04BF80CA030C808382418F3
:1000D0002D18A246671EAB4654465D46AC4201D180
:1000E00000F03DF87E460F3E0FCCB6460126334267
:1000F00000D0FB1AA246AB4633431847101C000041
:10010000301C0000103A02D378C878C1FAD85207E0
:1001100001D330C830C101D504680C6070470000BD
:100120000023002400250026103A01D378C1FBD813
:10013000520700D330C100D50B60704710B5642959
:1001400002D100F0B7F810BD782902D100F0E8F82C
:1001500010BD002010BD1FB51FBD10B510BD00F0B3
:1001600035FB1146FFF7F7FF01F09EFA00F04DFB5B
:1001700003B4FFF7F2FF03BC00F050FB042071460C
:10018000084202D0EFF3098001E0EFF308807146E6
:10019000004A1047710C000070B505460C46164623
:1001A00002E00FCC0FC5103E102EFAD2082E02D35B
:1001B00003CC03C5083E042E07D301CC01C5361F6E
:1001C00003E021782970641C6D1C761EF9D270BD85
:1001D0000F48104901601049016010490160104A40
:1001E00010491160104A11491160114880470848B0
:1001F000002101600F480047FEE7FEE7FEE7FEE74B
:10020000FEE7FEE70C480D490D4A0E4B7047000013
:100210000001005059000000160000008800000096
:1002200060000050A55A000014000050C0000000FB
:1002300021130000C1000000A0140020A01A00201B
:10024000A0160020A01600200FB4054910B503AA7F
:10025000029800F077FA10BC08BC04B01847000000
:100260007C00002070B5044685690068C10601D590
:10027000302600E02026C00707D070BD62683046F7
:10028000A1689047206A401C20626D1EF6D570BDA3
:1002900070B5044685690078C00707D170BD6268F3
:1002A000A16820209047206A401C20626D1EF6D570
:1002B00070BD0000F7B5002575291068009914A6D7
:1002C00011D0C046C046002802DA404211A608E01C
:1002D000009909688A0701D50FA602E0490704D5ED
:1002E0000EA6012501E0C046C046009F0024243729
:1002F00004E000F03BFA30313955641C0028F8D195
:100300002B4632462146009800F0C3F9FEBD00009E
:10031000000000002D0000002B0000002000000065
:1003200070B504460D4621461068C046C046218877
:10033000090502D50F4A7A4402E00E4A7A440E3289
:1003400023460021243305E006070009360F965D99
:100350005E54491C0028F7D120780023000705D5FA
:10036000702D03D0002901D002231132204600F065
:1003700090F970BD96190000F3B50446002081B0D5
:1003800020622046E168884700287DD0252802D0D9
:100390006268A16883E0454F00257F442046E168FC
:1003A00088472028064608DB312E06D2B8192038A7
:1003B0000078002801D00543F0E7A80701D5042004
:1003C00085430020E0610746A0612A2E0AD030460E
:1003D00001F05AF9002827D0B8000019303E0090EB
:1003E000866119E00298BA00121902C89161029060
:1003F0002046E1688847012F064617D1E0690028AA
:100400001FDA202085431CE000980A2180694843B8
:1004100000998019303888612046E168884706468F
:1004200001F032F90028EFD1012F0AD02E2E08D189
:100430002046E16888470646202005437F1C022F9E
:10044000C3DBA069002803DA4042A0610120054314
:10045000E80701D010208543002E24D030464138D3
:10046000192803D80120C002054320362046256004
:100470003146029A1546FFF761FE00280CD001288C
:1004800007D0ED1DE80800E00DE0C0000830029044
:1004900077E72D1D029574E762683046A1689047A2
:1004A000206A401C6CE7206AFEBD00005A1900005B
:1004B000F8B5042A2CD3830712D00B78491C03709B
:1004C000401C521E83070BD00B78491C0370401C44
:1004D000521E830704D00B78491C0370401C521E27
:1004E0008B079B0F05D0C91ADF002023DE1B08C92C
:1004F0000AE0FFF751FEF8BD1D4608C9FD401C4645
:10050000B4402C4310C0121F042AF5D2F308C91AB4
:10051000521EF0D40B78491C0370401C521EEAD4C2
:100520000B78491C0370401C012AE4D4097801703F
:10053000F8BD002203098B422CD3030A8B4211D34E
:1005400000239C464EE003460B433CD40022430864
:100550008B4231D303098B421CD3030A8B4201D354
:1005600094463FE0C3098B4201D3CB01C01A5241EC
:1005700083098B4201D38B01C01A524143098B423C
:1005800001D34B01C01A524103098B4201D30B0125
:10059000C01A5241C3088B4201D3CB00C01A52414A
:1005A00083088B4201D38B00C01A524143088B420F
:1005B00001D34B00C01A5241411A00D201465241A8
:1005C000104670475DE0CA0F00D04942031000D3C7
:1005D0004042534000229C4603098B422DD3030A1C
:1005E0008B4212D3FC22890112BA030A8B420CD32C
:1005F000890192118B4208D3890192118B4204D355
:1006000089013AD0921100E08909C3098B4201D3D4
:10061000CB01C01A524183098B4201D38B01C01A0E
:10062000524143098B4201D34B01C01A5241030985
:100630008B4201D30B01C01A5241C3088B4201D334
:10064000CB00C01A524183088B4201D38B00C01AE1
:100650005241D9D243088B4201D34B00C01A5241B8
:10066000411A00D20146634652415B10104601D345
:100670004042002B00D54942704763465B1000D3CF
:10068000404201B50020C046C04602BD70477047D9
:100690007047FFB504460D4681B0243000902168B4
:1006A000880604D51022E0699143216000E0012012
:1006B000A84201DD471B00E000270498A1697A19D0
:1006C0001018081AA0612078C00602D42046FFF74F
:1006D000C9FD002608E003986268A168805D904724
:1006E000206A401C761C206204988642F3DB207846
:1006F000C0060AD52046FFF7B5FD06E06268A1688E
:1007000030209047206A401C206238467F1E002817
:10071000F4DC07E000986268A168405D9047206AB9
:10072000401C206228466D1E0028F3DC2046FFF79F
:10073000AFFD2078000602D5022005B0F0BD0120F3
:10074000FBE70000084B70B50D467B4400F027F82E
:100750000446284600F09FFF002802D00020C04336
:1007600070BD204670BD00004F0F0000014680089C
:10077000081A02091018020A1018020C1018C008F2
:10078000820012185200891A01E0401C0A390A2915
:10079000FBD2704701694A1C02610878704700B5B6
:1007A0008FB002910021059105490193794403918D
:1007B000114604906846FFF7DFFD0FB000BD000052
:1007C000E5FFFFFF004870473C1400207546FFF727
:1007D000F9FFAE46050069465346C008C00085468D
:1007E00018B020B5FFF70EFD60BC00274908B646DB
:1007F0000026C0C5C0C5C0C5C0C5C0C5C0C5C0C530
:10080000C0C5403D49008D46704710B50446C046FE
:10081000C0462046FFF7ACFC10BD0000014918207F
:10082000ABBEFEE72600020070470000C10F8A0041
:10083000044951184A68C306DB0E01209840024360
:100840004A6070470002005002490A6802430A6089
:10085000704700000002005010B500F051FD014843
:10086000006810BD7400002010B500F049FD01487B
:10087000006810BD7400002002480068C00700D066
:10088000014870470002005000366E0104480068BD
:10089000800702D50120C003704700207047000088
:1008A0000002005010B588B0202209496846FFF7C1
:1008B00073FC0848406B4407640F00F021FDA00062
:1008C0006946095804480068FFF733FE08B010BDB8
:1008D000801C0000000200507400002010B588B099
:1008E000202209496846FFF757FC0848446B7020EE
:1008F000044000F005FDA00069460958044800685E
:10090000FFF717FE08B010BDA01C00000002005049
:100910007400002010B512494A6AD00301D50020A6
:1009200010BD5003830F0CD0800F01280BD00D4851
:1009300091049206890E920E5043491CFFF7F9FD6F
:1009400010BD0948F4E70869000701D50748EFE73B
:100950000868800401D50648EAE70648E8E7000091
:100960000002005000093D0000366E0100512502D2
:100970000024F400001BB70010B5074AD3691B0917
:100980001B010B43D361116909090901014311617D
:1009900000F0B6FC10BD00000002005070B5840AE3
:1009A00023061B0E0CD003039B0F0F4D9B005B19FE
:1009B0001D688605E4B2F60EB440A54315431D60DC
:1009C000420E12070ED04200074B920F92000C3BD2
:1009D000D2181368C400240FC001C00E8440A34382
:1009E0000B43136070BD00001C02005006490968EB
:1009F00048430649486100228A6105200861086968
:100A0000C003FCD50A6170477800002000E000E0D8
:100A100010B504460749084B05E00A46491E002A5E
:100A200001DC002010BDDA6820469043F5D101209A
:100A300010BD000080F520000002005010B502201B
:100A4000FFF702FF0220FFF7E3FF0028FAD00120A2
:100A5000FFF7FAFE0120FFF7DBFF0028FAD008209D
:100A6000FFF7F2FE0820FFF7D3FF0028FAD000219D
:100A70000846FFF781FF002211460E48FFF78EFF60
:100A8000002211460C48FFF789FF01210022490688
:100A90000A48FFF783FF01210022C9060848FFF733
:100AA0007DFF0F22FF21120201310648FFF776FF7A
:100AB00010BD0000103D00AE913D00CE0C008CA793
:100AC0000F00ACC7023D84AE70B50446FFF7C4FE0C
:100AD0000A49FFF72EFD014601200006FFF729FD18
:100AE0000546AC4205D92846FFF780FF641BF8D1C4
:100AF00070BD2046FFF77AFF70BD000040420F0036
:100B000070B51948016A490701D504210162016ADB
:100B1000490402D5012189030162134C4034206A43
:100B200000071FD5114D286800F0DFF82868007B0A
:100B3000400602D50EA0FFF787FB2868007B8006E1
:100B400002D50DA0FFF780FB2868007BC00602D508
:100B50000BA0FFF779FB28680721027B00F046F91C
:100B60000820206270BD00000040005028000020D6
:100B700052585F44520A000054585F44530A000020
:100B80004D41585F52540A0010B58369140E8C40D1
:100B900023438361C3691202120A8A401343C3616B
:100BA00010BDF0B5002301273C469C400C4208D004
:100BB00005685C000326A640B5431646A6403543AB
:100BC00005605B1C102BEFD3F0BD0000F8B5264C80
:100BD000012211462046FFF7E4FF002204212046AF
:100BE000FFF7DFFF0127BF03002239462046FFF74A
:100BF000D8FF0122D1032046FFF7D3FF1A4D01226F
:100C0000403504212846FFF7CCFF00220821284662
:100C1000FFF7C7FF606A042630436062606A3843AA
:100C20006062686A08210843686201220221204646
:100C3000FFF7AAFF01220E212046FFF7A5FF0122A0
:100C400003212846FFF7A0FF0848332101606069AF
:100C50003043606105490120803108600022CA6389
:100C60000249C0318860F8BD00400050804100500A
:100C7000044603A0FFF7E8FA204600F035FFFEE740
:100C8000496E2048617264204661756C7420486129
:100C90006E646C65720A000010B5044600688068D6
:100CA000804720680168E220884720732068C06878
:100CB000804710BD10B504460068806880472068F2
:100CC0000168E120884720732068C068804710BD14
:100CD00070B5064614460D46102000F059FF002856
:100CE00002D006604560846070BD10B5044600689F
:100CF0008068804720680168FF208847207320684B
:100D0000C0688047207B10BDF8B5054600681E46C8
:100D1000806817460C468047286801682046884747
:100D20002873002403E0406880473855641C286815
:100D3000B442F8D3C0688047F8BD70B50446006877
:100D40000D468068804720680268284690472073D7
:100D500020684068804705462068C068804728466C
:100D600070BDF8B505460068164680680F46804796
:100D700028680168A02088472873002404E02968B7
:100D8000385D09688847641CB442F8D32868C06895
:100D90008047F8BD10B50446806880470021204692
:100DA000FFF7CBFF420852000021204600F01EF85A
:100DB0006068804710BDF8B5054600681E4680682B
:100DC00017460C4680472968202009682043884739
:100DD0002873002404E02968385D09688847641C8A
:100DE000B442F8D32868C0688047F8BD70B504469F
:100DF0000068154680680E468047216820200968F3
:100E00003043884720732068016828468847206857
:100E1000C068804770BD000002481021016049028F
:100E20000160704700E100E00EB5174A1749184805
:100E3000FFF74EFF174C606000F0B4FD5021606872
:100E400000F0C4FC20200121134B0090029101907E
:100E50005A1F606800F0ECFCA0606068FFF71CFFA0
:100E60006068FFF727FF6068FFF794FF0949A068F3
:100E7000303100F05EFD002801D008A000E008A09D
:100E8000FFF7E2F9F2E70000FD0F0000D1110000CA
:100E90001000002024000020791C0000540A0000EB
:100EA000460A00000E4988690E4A104388610520F1
:100EB0000007826B11231A438263826B1B041A435F
:100EC00082630A68084B1A430A60016B074A1143A0
:100ED0000163016B0163416B4163816B8163704707
:100EE0004000005000770077111100000060660696
:100EF000F8B50446314D304828602968012903D0EF
:100F0000286028680128FCD1002C46D0E069002820
:100F100044D000F057F868690121084368617D20DA
:100F200021680001081A0A21FFF703FB0E040005DF
:100F300006430A216068FFF7FCFA000330430E0203
:100F400006430A21A068FFF7F4FA000130431C4E63
:100F50000143316000F036F8306828610A212069C9
:100F6000FFF7E7FA0F04000507430A216069FFF75E
:100F7000E0FA000338430F0207430A21A069FFF794
:100F8000D8FA000138430143316000F01BF83068A3
:100F9000E86000F017F8E068A861F8BD00F012F80A
:100FA0006869400840006861206A0228B7D120695A
:100FB00014302061B3E700005713EBA50080004018
:100FC000800000200449054841604268D203FBD5F7
:100FD0004168C901FCD4704765A900000080004049
:100FE00000B50346FFF7EEFF03490A6BD208D200B3
:100FF0001A430A6300BD0000008000400149002040
:10100000C86370470042005010B50548FFF70EFC5A
:101010000448FFF76DFF0020FFF7E2FF10BD00005E
:1010200001000CE0300000200248C1680D2291430D
:10103000C160704700000340044801680122114369
:1010400001600168C943C907FBD070470000034035
:10105000054801680122114301600168C943C907BD
:10106000FBD00069C0B27047000003400349C86864
:101070000D229043401CC8607047000000000340F0
:101080000649086208680122104308600868C043E6
:10109000C007FBD00869C0B27047000000000340E1
:1010A00010B5029C202B00D10023DB000B4313431F
:1010B0000360214600F002F810BD0000F8B5364C80
:1010C0000E460546334F3549354A63103548BD4213
:1010D00016D14769BF01BF0F012F05D04769BF0176
:1010E000BF0F04D0476918E0FFF7BEFB01E0FFF730
:1010F00011FC044635E00068400731D5144630E065
:10110000294FBD4212D18769BF01BF0F012FEBD01C
:101110008769BF01BF0FEAD08769BF01BF0F022FE8
:101120001FD004692407E6D50C461AE01F4FBD42C4
:101130000AD147693F01BF0F012FD5D047693F0151
:10114000BF0FD4D0476909E087693F01BF0F012F66
:10115000CAD087693F01BF0FC9D087693F01DDE76A
:101160001C46A64200D92646002E11D03146204604
:10117000FFF7DFF9401EFF2800D9FF20A968090A00
:1011800009020143A960411C2046FFF7D2F9F8BDCE
:101190000020F8BD0000034000366E01005125021A
:1011A0000024F400000200500000134000000D4035
:1011B00006498A695205FCD408600A2804D1886966
:1011C0004005FCD40D200860704700000000054079
:1011D00010B503490120C8630F20FFF775FC10BD4F
:1011E0000042005038B50B48FFF720FB0A48FFF7D4
:1011F0001DFB0A4C08230422002109480094FFF734
:101200004FFF08230422002106480094FFF748FFFF
:1012100038BD00000C008CA70F00ACC740420F0087
:101220000000034000001E4010B5154C2069400727
:10123000400F0FD001280FD0022810D0032811D062
:10124000042811D00F48E1690907090F491CFFF76D
:1012500070F910BD0C48F6E70120C003F3E700F079
:101260001DF8F0E70948EEE72069000701D50848B6
:10127000E9E72068800401D50648E4E70648E2E78C
:101280000002005000093D0000366E0110270000EA
:10129000005125020024F400001BB70010B51249CC
:1012A0004A6AD00301D5002010BD5003830F0CD033
:1012B000800F01280BD00D4891049206890E920EE2
:1012C0005043491CFFF735F910BD0948F4E7086998
:1012D000000701D50748EFE70868800401D50648F4
:1012E000EAE70648E8E700000002005000093D0078
:1012F00000366E01005125020024F400001BB700E7
:1013000010B5FFF791FF044C044920604A10801883
:10131000FFF70FF9606010BD7400002040420F001D
:101320000A48826802210A4382600A4B084A5A60CE
:10133000094A126AFF231B049A43084B1A43084BBD
:101340001A6382688A43826070470000000200507E
:1013500065A9000000800040000100500030B0008E
:10136000C08100401FB525491EC903946C460EC4B8
:10137000234A2449904205D148690A6A4005400F32
:10138000120A16E0204A904206D148690A6A4004CF
:10139000400F1204140F0EE01C4A9042886904D1D9
:1013A00040050A6A400F120C03E040040A6A400F2D
:1013B000120D1407240F641C042803D28100684610
:1013C000405805E0042808D0052814D0FFF74CFA4F
:1013D0002146FFF7AEF804B010BD0869000702D53A
:1013E00021460B48F5E708682146800401D50948E5
:1013F000EFE70948EDE721460848EAE7C01C00008E
:1014000000000140000200500001014000001140B6
:10141000005125020024F400001BB70000093D0024
:10142000F7B517460646FFF79DFF0446002540081E
:10143000B84201D2022008E009498C4201D90125B5
:10144000044639462046FFF774F8B060756001998C
:1014500031606D1C684301462046FFF76AF8FEBD07
:10146000FFFFFF00014901200861704700000140B3
:1014700010B50748FFF7DAF9064C0822102120467C
:10148000FFF7CEFFE16801221143E16010BD0000CB
:10149000023D84AE0000014038B5114D2869114C61
:1014A000C10606D40AE020680121006A4268684645
:1014B0009047A8698007F6D510210CE0C00706D137
:1014C00038BD20680121006A426868469047A869D3
:1014D0008007F6D50121284600F006F838BD000047
:1014E00000001540240000204A0703D570228261C5
:1014F000012242610A0704D5C26901239B041A43F1
:10150000C2618A0602D5FF22023282614A0601D5F3
:10151000402202610A0601D506224261C90501D5B1
:10152000382141617047C2680A43C26070470000B9
:1015300070B50E46044600F05DF8054660680C2163
:10154000884360600020A0630320A060002E13D0B9
:10155000700840193146FEF7ECFF0849401E8842EA
:1015600009D9F00040193146FEF7E3FF01210009D7
:10157000C907401E0843606270BD0000FFFF000005
:10158000026A520A52020A430262C16810221143DF
:10159000C160704770B51348FFF748F91248FFF76C
:1015A00045F9E125114C6D0229462046FFF7C0FFA1
:1015B00029460F4D2846FFF7BBFFA1680320000214
:1015C0000143A160A9680143A960FF212046FFF7FC
:1015D000D7FFFF212846FFF7D3FF11212846FFF749
:1015E000A2FF70BD103D00AE913D00CE0000054051
:1015F0000000154010B51C4B002201241B499842E5
:1016000006D148694207C869520F0005040F08E077
:10161000174B984206D188694207C869520F0004E7
:10162000040F641C002A0AD0012A0AD0022A0BD017
:10163000032A0CD00F482146FEF77BFF10BD0E4851
:10164000F9E70120C003F6E7FFF728FEF3E7086992
:10165000000701D50948EEE70868800401D508486D
:10166000E9E70848E7E700000000054000020050F5
:101670000000154000093D0000366E0100512502B2
:101680000024F400001BB70030380A2801D20120E2
:101690007047002070470020C043704700B50346E4
:1016A000FFF786FD184600BD244C592116228820DC
:1016B00002E02160226020602368012BF9D1FFF74E
:1016C000F1FBFFF7BBF9FFF765FFFFF7C5F8014630
:1016D0001BA0FEF7B9FDFFF7C7F801461DA0FEF7F6
:1016E000B3FDFFF7C9F801461FA0FEF7ADFDFFF7F8
:1016F000CDF8014621A0FEF7A7FDFFF7D3F801467C
:1017000023A0FEF7A1FDFFF7E9F8014625A0FEF7AB
:101710009BFDFFF7FFF8014627A0FEF795FDFFF7B9
:1017200073FCFFF7A5FEFFF751FAFFF75BFDFFF72C
:1017300073FBFFF779FB00202060FEE700010050FB
:1017400043505520467265712020203A2025644878
:101750007A0A000048434C4B204672657120203ABB
:10176000202564487A0A0000485854204672657162
:101770002020203A202564487A0A00004C58542042
:10178000467265712020203A202564487A0A0000BC
:1017900050434C4B302046726571203A20256448F6
:1017A0007A0A000050434C4B312046726571203A52
:1017B000202564487A0A0000504C4C20467265711E
:1017C0002020203A202564487A0A000070B50D4692
:1017D0000446FFF78AFAFF2829D0A06880470B2229
:1017E00000212046FFF702FB002201212046FFF7DF
:1017F000FDFA002202212046FFF7F8FA03221146E3
:101800002046FFF7F3FA0F2204212046FFF7EEFAF5
:101810002A4605212046FFF7E9FA0F220621204635
:10182000FFF7E4FA702207212046FFF7DFFA70BDC8
:10183000FFB583B01F460E4614200E9D00F0A8F998
:1018400004460398206026710598E760A0600C9814
:1018500020740D986074A5740398806880470C9874
:10186000374611378006800E009001202946B0408F
:101870000546002920D001210398FFF75EFA28438E
:1018800001210843C2B20398FFF7B0FA022103987E
:10189000FFF753FA054301200543EAB202210398FA
:1018A000FFF7A4FAF9B2009A0398FFF79FFA0D9890
:1018B0008206920E112117E001210398FFF73DFAED
:1018C000A843024601210398FFF790FA02210398EA
:1018D000FFF733FA054301200543EAB202210398DA
:1018E000FFF784FA009AF9B20398FFF77FFA3546BA
:1018F0000A35012E14D9052268460599FEF7D8FD50
:101900000598E9B202780398FFF770FA0B21039863
:10191000FFF713FA6946087005236A460B2102E0B7
:10192000059AE9B205230398FFF745FA204607B068
:10193000F0BD70B50446807C0D46012805D1052315
:101940000A21E2682068FFF736FA05231021E268D1
:101950002068FFF730FA206880688047627C29465B
:101960002068FFF7FEF92068406880473220FFF7C3
:10197000ABF820688068804723681A7B900605D5FD
:1019800007211846FFF732FA012070BDD006F5D5C1
:101990001846FFF78FF920680721027BFFF726FA28
:1019A000002070BD30B585B000200390049033A0B6
:1019B000FEF74AFC3B4D002421466868FFF7BDF95D
:1019C000694608730246214637A0FEF73DFC641CB9
:1019D000E4B2092CF0D90A24052303AA2146686839
:1019E000FFF792F96846027B417B807B6B4607C319
:1019F0006A46D37B127C214631A0FEF725FC641C8D
:101A0000E4B20B2CE8D90C2421466868FFF795F95D
:101A1000694608730246214623A0FEF715FC641CA4
:101A2000E4B20F2CF0D91024052303AA21466868DC
:101A3000FFF76AF96846027B417B807B6B4607C3F0
:101A40006A46D37B127C21461DA0FEF7FDFB641C79
:101A5000E4B2102CE8D9112421466868FFF76DF92B
:101A600069460873024621460FA0FEF7EDFB641C91
:101A7000E4B2172CF0D905B030BD00002D2D2D2D6E
:101A80002D2D2D2D2D2D2D2D2D2D2D2D2D2D2D2D86
:101A90002D2D2D2D2D2D2D2D2D2D2D2D2D2D2D2D76
:101AA0002D2D0A0024000020526567203A2030784E
:101AB00025303258203D203078253032580A000039
:101AC000526567203A20307825303258203D20304A
:101AD000782530325825303258253032582530326A
:101AE00058253032580A000010B50446016810A08D
:101AF000FEF7AAFB11A06168FEF7A6FB12A0A16881
:101B0000FEF7A2FB13A0E168FEF79EFB14A021697B
:101B1000FEF79AFB15A06169FEF796FB16A0A16976
:101B2000FEF792FB17A0E169FEF78EFB10BD0000E7
:101B3000723020203D20307825780A007231202034
:101B40003D20307825780A00723220203D20307800
:101B500025780A00723320203D20307825780A004D
:101B6000723132203D20307825780A006C722020B6
:101B70003D20307825780A00706320203D203078A1
:101B800025780A00707372203D20307825780A008D
:101B9000F8B50024234F05460094786826460028AF
:101BA00001D100F041F8680702D0ED1DED08ED000D
:101BB0001C4A28460832083084461A48116847688B
:101BC00017E04868A84209D1164803685B1B083B28
:101BD00003600846096808301160F8BD604506D307
:101BE000002C02D06368984201D20C4616460A4681
:101BF0000968B942E5D1002C11D00A480168491B97
:101C00000839016020460830009060192168816021
:101C10006168491B0839C160083065603060009810
:101C2000F8BD000000000020104810B50E49420722
:101C300005D0C01DC0080D4AC000821A891A0C4A7E
:101C4000002413461160083311C30839401850604E
:101C500004605068083B4460186851680160091AC4
:101C60000839416010BD000088130000B400002056
:101C7000000000200179020811007902081100001B
:101C80000100000002000000040000000800000045
:101C90001000000001000000010000000100000031
:101CA0000100000002000000040000000800000025
:101CB0001000000001000000010000000100000011
:101CC00000366E01008000001027000000000000B8
:101CD0003031323334353637383941424344454662
:101CE000403058003031323334353637383961625C
:101CF000636465664030780004000008000000005E
:101D00000000000200010000100000002C1D000077
:101D100000000020B400000004010000E01D0000ED
:101D2000B4000020EC1900002001000000000000B9
:101D30000000000000000000000000008110000012
:101D4000511000006D100000291000003910000033
:101D5000000000000000000000000000E407000098
:101D60000100000001000000000000000000000071
:101D70000000000000000000010000000000000062
:101D800003BBCCDD000000000000000000000000EC
:101D90000000000000000000000000000000000043
:101DA000001BB7000C000000000000000000000055
:101DB0000000000000000000000000000000000023
:101DC0000000000000000000000000000000000013
:101DD0000000000000000000000000000000000003
:04000005000001D125
:00000001FF
